
lpc1758_freertos.elf:     file format elf32-littlearm
lpc1758_freertos.elf
architecture: arm, flags 0x00000112:
EXEC_P, HAS_SYMS, D_PAGED
start address 0x00010195

Program Header:
0x70000001 off    0x00025d3c vaddr 0x00025d3c paddr 0x00025d3c align 2**2
         filesz 0x00000008 memsz 0x00000008 flags r--
    LOAD off    0x00010000 vaddr 0x00010000 paddr 0x00010000 align 2**16
         filesz 0x00015d44 memsz 0x00015d44 flags r-x
    LOAD off    0x0002c000 vaddr 0x2007c000 paddr 0x00025d44 align 2**16
         filesz 0x000002f4 memsz 0x000002f4 flags rw-
    LOAD off    0x0002c2f8 vaddr 0x2007c2f8 paddr 0x00026038 align 2**16
         filesz 0x00000000 memsz 0x00000490 flags rw-
private flags = 5000200: [Version5 EABI] [soft-float ABI]

Sections:
Idx Name          Size      VMA       LMA       File off  Algn  Flags
  0 .text         00015d3c  00010000  00010000  00010000  2**4  CONTENTS, ALLOC, LOAD, READONLY, CODE
  1 .data         000002f4  2007c000  00025d44  0002c000  2**2  CONTENTS, ALLOC, LOAD, DATA
  2 .bss          00000490  2007c2f8  00026038  0002c2f8  2**3  ALLOC
  3 .comment      0000006e  00000000  00000000  0002c2f4  2**0  CONTENTS, READONLY
  4 .ARM.attributes 00000031  00000000  00000000  0002c362  2**0  CONTENTS, READONLY
  5 .ARM.exidx    00000008  00025d3c  00025d3c  00025d3c  2**2  CONTENTS, ALLOC, LOAD, READONLY, DATA
  6 .debug_frame  00002210  00000000  00000000  0002c394  2**2  CONTENTS, READONLY, DEBUGGING
SYMBOL TABLE:
00010000 l    d  .text	00000000 .text
2007c000 l    d  .data	00000000 .data
2007c2f8 l    d  .bss	00000000 .bss
00000000 l    d  .comment	00000000 .comment
00000000 l    d  .ARM.attributes	00000000 .ARM.attributes
00025d3c l    d  .ARM.exidx	00000000 .ARM.exidx
00000000 l    d  .debug_frame	00000000 .debug_frame
00000000 l    df *ABS*	00000000 startup.cpp
000100f0 l       .text	00000000 _MSP
0001abc0 l     F .text	0000003c isr_forwarder_routine
2007c048 l     O .data	0000008c g_isr_array
00000000 l    df *ABS*	00000000 malloc_lock.c
00000000 l    df *ABS*	00000000 memory.cpp
00010344 l     F .text	00000020 _GLOBAL__sub_I__sbrk
2007c2f8 l     O .bss	00000004 g_last_sbrk_ptr
2007c2fc l     O .bss	00000004 g_next_heap_ptr
2007c300 l     O .bss	00000004 g_last_sbrk_size
2007c304 l     O .bss	00000004 ram_region_1_end
2007c308 l     O .bss	00000004 ram_region_2_end
2007c30c l     O .bss	00000004 g_sbrk_calls
00000000 l    df *ABS*	00000000 newlib_syscalls.c
2007c310 l     O .bss	00000004 g_input_dev_fptr
2007c314 l     O .bss	00000004 g_output_dev_fptr
00000000 l    df *ABS*	00000000 newlib_time.c
00000000 l    df *ABS*	00000000 handlers.cpp
00022fcc l     O .text	0000000b logHandler(str&, CharDev&, void*)::__FUNCTION__
00000000 l    df *ABS*	00000000 prog_handlers.cpp
2007c338 l     O .bss	00000004 getFileHandler(str&, CharDev&, void*)::spBuffer
2007c33c l     O .bss	00000004 guard variable for getFileHandler(str&, CharDev&, void*)::spBuffer
00000000 l    df *ABS*	00000000 wireless_handlers.cpp
000114c4 l     F .text	00000034 wsAddrHandler(str&, CharDev&, void*)
000114f8 l     F .text	0000003c wirelessHandlerPrintStats(CharDev&, mesh_stats_t*, unsigned char) [clone .constprop.4]
00011534 l     F .text	00000114 wsTxHandler(str&, CharDev&, void*)
00011648 l     F .text	0000001e wsStatsHandler(str&, CharDev&, void*)
00011668 l     F .text	00000080 wsRxHandler(str&, CharDev&, void*)
00011b08 l     F .text	00000120 wsStreamHandler(str&, CharDev&, void*)
000118dc l     F .text	0000022c wsFileTxHandler(str&, CharDev&, void*)
2007c344 l     O .bss	00000004 wirelessHandler(str&, CharDev&, void*)::pCmdProcessor
00000000 l    df *ABS*	00000000 high_level_init.cpp
00011c28 l     F .text	0000000c hl_print_line()
00011c34 l     F .text	0000002c ssp_set_max_clock
00011c60 l     F .text	00000094 hl_mount_storage(FileSystemObject&, char const*)
00000000 l    df *ABS*	00000000 remote.cpp
00000000 l    df *ABS*	00000000 terminal.cpp
00012356 l     F .text	00000040 VECTOR<terminalTask::cmdChan_t>::changeCapacity(unsigned int) [clone .part.4]
00000000 l    df *ABS*	00000000 main.cpp
00000000 l    df *ABS*	00000000 mesh.c
000129f8 l     F .text	00000026 mesh_incr_soft_timers_for_arr
00012a20 l     F .text	0000004c mesh_update_soft_timers
00012a6c l     F .text	0000003c mesh_send_packet
00012aa8 l     F .text	00000034 mesh_send_retry_packet
00012adc l     F .text	00000024 mesh_find_rte_tbl_entry
00012b00 l     F .text	00000028 mesh_update_rte_scores
00012b28 l     F .text	00000042 mesh_get_pnd_pkt_slot
00012b6c l     F .text	00000090 mesh_pending_packets_add
00012bfc l     F .text	00000058 mesh_get_rte_to_modify
00012c54 l     F .text	00000184 mesh_handle_pnd_pkts_for_arr
0001309c l     F .text	0000001a mesh_send_ack
2007c000 l     O .data	00000004 g_pkt_hist_wptr
2007c40f l     O .bss	0000000c g_pkt_hist
2007c35c l     O .bss	00000014 g_driver
2007c370 l     O .bss	00000090 g_mesh_pnd_pkts
2007c004 l     O .data	00000001 g_retry_count
2007c400 l     O .bss	00000001 s_next_packet_id.5140
2007c401 l     O .bss	0000000c g_mesh_stats
2007c40d l     O .bss	00000001 g_locked
2007c40e l     O .bss	00000001 g_rpt_node
2007c41b l     O .bss	00000010 g_rte_table
2007c42c l     O .bss	00000004 s_prev_time_ms.5154
2007c430 l     O .bss	00000018 g_our_name
2007c005 l     O .data	00000001 g_our_node_id
2007c448 l     O .bss	00000001 g_error_mask
2007c449 l     O .bss	00000048 g_our_pnd_pkts
00000000 l    df *ABS*	00000000 nrf24L01Plus.c
00013430 l     F .text	00000104 nordic_transfer
00013534 l     F .text	00000020 nordic_readRegister
00013554 l     F .text	0000001e nordic_writeRegister
00000000 l    df *ABS*	00000000 wireless.c
000138d0 l     F .text	00000070 nrf_driver_init
000139e8 l     F .text	00000034 nrf_irq_callback
00013940 l     F .text	00000050 nrf_driver_app_recv
00013990 l     F .text	00000058 nrf_driver_send
00013a1c l     F .text	00000022 nrf_driver_receive
00013a3e l     F .text	00000064 wireless_get_queued_pkt
00013aa2 l     F .text	00000028 nrf_driver_get_timer
2007c494 l     O .bss	00000004 g_ack_queue
2007c498 l     O .bss	00000004 g_rx_queue
2007c49c l     O .bss	00000004 g_nrf_activity_sem
00000000 l    df *ABS*	00000000 io_source.cpp
2007c4a0 l     O .bss	00000004 g_last_decoded_signal
2007c4a4 l     O .bss	00000002 g_signal_count
000248cd l     O .text	00000080 LED_DISPLAY_CHARMAP
2007c4a8 l     O .bss	00000080 g_ir_timings
00000000 l    df *ABS*	00000000 storage.cpp
00000000 l    df *ABS*	00000000 ccsbcs.c
0002494e l     O .text	00000100 Tbl
00024a4e l     O .text	000001e0 tbl_lower.5824
00024c2e l     O .text	000001e0 tbl_upper.5825
00000000 l    df *ABS*	00000000 reentrant.c
00000000 l    df *ABS*	00000000 diskio.c
00000000 l    df *ABS*	00000000 sd.c
0001418c l     F .text	00000012 sys_get_uptime_ms
000141a0 l     F .text	00000030 ssp1_set_max_clock
000141d0 l     F .text	00000018 ssp1_exchange_byte
2007c528 l     O .bss	00000001 g_card_type
2007c006 l     O .data	00000001 g_disk_status
00000000 l    df *ABS*	00000000 spi_flash.cpp
000148c8 l     F .text	00000020 flash_get_mem_size_bytes()
000148e8 l     F .text	00000074 flash_perform_page_io_of_fatfs_sector(void (*)(unsigned char*, unsigned long, unsigned long), unsigned char*, unsigned long)
0001495c l     F .text	000000c4 ssp1_exchange_data
00014a20 l     F .text	00000026 flash_send_op_addr(flash_opcode_t, unsigned long)
00014a48 l     F .text	00000044 flash_read_page(unsigned char*, unsigned long, unsigned long)
00014a8c l     F .text	00000044 flash_wait_for_ready()
00014ccc l     F .text	0000008c flash_write_page(unsigned char*, unsigned long, unsigned long)
00024e18 l     O .text	00000010 CSWTCH.71
2007c52a l     O .bss	00000002 g_flash_pagesize
2007c52c l     O .bss	00000001 g_flash_capacity
2007c530 l     O .bss	00000004 g_sector_count
00000000 l    df *ABS*	00000000 fatfs_time.c
00000000 l    df *ABS*	00000000 ff.c
00014e2a l     F .text	00000038 mem_cpy
00014e62 l     F .text	0000000e mem_set
00014e70 l     F .text	0000001e sum_sfn
00014e8e l     F .text	0000003c get_ldnumber
00014eca l     F .text	000000c4 get_fileinfo
00014f8e l     F .text	00000046 sync_window.part.1
00014fd4 l     F .text	0000000c sync_window
00014fe0 l     F .text	00000074 sync_fs
00015054 l     F .text	00000034 move_window
00015088 l     F .text	0000004c check_fs
000150d4 l     F .text	0000023c find_volume
00015310 l     F .text	0000003a validate
0001534a l     F .text	0000001a unlock_fs
00015420 l     F .text	0000007e dir_sdi
00015570 l     F .text	000000a2 create_chain
00015612 l     F .text	000000ee dir_next
00015700 l     F .text	00000124 dir_find.part.9
00015824 l     F .text	00000268 follow_path
00015a8c l     F .text	00000224 dir_register
00015cb0 l     F .text	0000005a dir_remove
00015d0c l     F .text	000000e8 dir_read.constprop.11
00015df4 l     F .text	00000058 remove_chain
00024e28 l     O .text	00000016 cst.6397
2007c534 l     O .bss	00000002 Fsid
00024e82 l     O .text	00000080 ExCvt
00024f02 l     O .text	0000000d LfnOfs
00024f10 l     O .text	00000016 vst.6396
2007c538 l     O .bss	00000008 FatFs
00000000 l    df *ABS*	00000000 c_list.c
00000000 l    df *ABS*	00000000 command_handler.cpp
00000000 l    df *ABS*	00000000 file_logger.c
0001720c l     F .text	00000044 logger_get_buffer_ptr
00017250 l     F .text	000000b4 logger_write_to_file
00017304 l     F .text	000000d0 logger_task
000173d4 l     F .text	00000048 logger_write_log_message
2007c540 l     O .bss	00000004 g_write_buffer_queue
2007c007 l     O .data	00000001 g_logger_printf_mask
2007c544 l     O .bss	00000002 g_highest_file_write_time
2007c546 l     O .bss	00000002 g_blocked_calls
2007c548 l     O .bss	00000010 g_logger_calls
2007c558 l     O .bss	00000004 gp_file_buffer
2007c55c l     O .bss	00000004 g_empty_buffer_queue
2007c560 l     O .bss	00000002 g_buffer_watermark
00000000 l    df *ABS*	00000000 printf_lib.c
00000000 l    df *ABS*	00000000 rtc_alarm.c
00017746 l     F .text	00000024 for_each_recur_alarm_callback
0001776a l     F .text	0000005a for_each_alarm_callback
2007c564 l     O .bss	00000010 g_list_recur_alarms
2007c574 l     O .bss	00000004 g_list_timed_alarms
00000000 l    df *ABS*	00000000 scheduler_task.cpp
00017870 l     F .text	0000002c __sputc_r
0001789c l     F .text	00000034 dbg_print(char const*, char const*)
000178d0 l     F .text	00000038 printline(char const*, char const*)
2007c578 l     O .bss	00000001 g_dbg_print
2007c57c l     O .bss	00000008 gEnumObjects
2007c584 l     O .bss	00000004 gRunTaskSemaphore
2007c588 l     O .bss	00000004 gTaskEntryTaskHandle
2007c58c l     O .bss	00000004 gpTaskList
00000000 l    df *ABS*	00000000 str.cpp
00000000 l    df *ABS*	00000000 utilities.c
00000000 l    df *ABS*	00000000 adc.c
000180f0 l     F .text	00000024 adc0_start_conversion
00000000 l    df *ABS*	00000000 can.c
00018248 l     F .text	00000032 CAN_tx_now
0001827c l     F .text	000000a0 CAN_handle_isr
00000000 l    df *ABS*	00000000 eint.c
00018344 l     F .text	0000002c handle_eint_list
00018370 l     F .text	00000038 eint3_enable.isra.0
2007c598 l     O .bss	00000004 gp_port2_rising_list
2007c59c l     O .bss	00000004 gp_port2_falling_list
2007c5a0 l     O .bss	00000004 gp_port0_rising_list
2007c5a4 l     O .bss	00000004 gp_port0_falling_list
00000000 l    df *ABS*	00000000 i2c2.cpp
00000000 l    df *ABS*	00000000 lpc_rit.c
2007c5a8 l     O .bss	00000004 g_rit_callback
00000000 l    df *ABS*	00000000 lpc_timers.c
00018514 l     F .text	00000020 lpc_timer_get_struct
00000000 l    df *ABS*	00000000 nrf_stream.cpp
00000000 l    df *ABS*	00000000 rtc.c
00000000 l    df *ABS*	00000000 spi_dma.c
00000000 l    df *ABS*	00000000 spi_sem.c
2007c5ac l     O .bss	00000004 mSpi0Lock
00000000 l    df *ABS*	00000000 uart0.cpp
00000000 l    df *ABS*	00000000 uart2.cpp
00000000 l    df *ABS*	00000000 uart3.cpp
00000000 l    df *ABS*	00000000 char_dev.cpp
00000000 l    df *ABS*	00000000 i2c_base.cpp
00000000 l    df *ABS*	00000000 uart_dev.cpp
00000000 l    df *ABS*	00000000 list.c
00000000 l    df *ABS*	00000000 queue.c
00019314 l     F .text	00000070 prvCopyDataToQueue
00019384 l     F .text	0000004a prvNotifyQueueSetContainer
000193ce l     F .text	00000028 prvCopyDataFromQueue
000193f6 l     F .text	0000007c prvUnlockQueue
00000000 l    df *ABS*	00000000 tasks.c
000198f6 l     F .text	00000032 prvResetRunTimeStatsInList
00019928 l     F .text	00000028 prvIdleTask
00019950 l     F .text	00000024 prvResetNextTaskUnblockTime
00019974 l     F .text	00000090 prvAddCurrentTaskToDelayedList
0001a21c l     F .text	0000005e prvListTasksWithinSingleList
2007c5b8 l     O .bss	00000004 ulTaskSwitchedInTime
2007c5bc l     O .bss	00000004 xNumOfOverflows
2007c5c0 l     O .bss	00000004 pxDelayedTaskList
2007c5c4 l     O .bss	00000004 xSchedulerRunning
2007c5c8 l     O .bss	00000014 xDelayedTaskList1
2007c5dc l     O .bss	00000004 pxOverflowDelayedTaskList
2007c5e0 l     O .bss	00000004 uxPendedTicks
2007c5e4 l     O .bss	000000c8 pxReadyTasksLists
2007c6ac l     O .bss	00000004 uxSchedulerSuspended
2007c6b4 l     O .bss	00000014 xPendingReadyList
2007c6c8 l     O .bss	00000004 xTickCount
2007c6cc l     O .bss	00000004 xNextTaskUnblockTime
2007c6d0 l     O .bss	00000004 uxTaskNumber
2007c6d4 l     O .bss	00000004 uxCurrentNumberOfTasks
2007c6d8 l     O .bss	00000014 xDelayedTaskList2
2007c6ec l     O .bss	00000004 xIdleTaskHandle
2007c6f0 l     O .bss	00000014 xSuspendedTaskList
2007c704 l     O .bss	00000004 uxTopReadyPriority
2007c708 l     O .bss	00000004 xYieldPending
00000000 l    df *ABS*	00000000 port.c
0001a51c l     F .text	00000012 prvTaskExitError
0001a530 l     F .text	0000001a prvPortStartFirstTask
0001a5a0 l       .text	00000000 pxCurrentTCBConst2
0001a620 l       .text	00000000 pxCurrentTCBConst
2007c70c l     O .bss	00000004 uxCriticalNesting
00000000 l    df *ABS*	00000000 run_time_stats.c
2007c710 l     O .bss	00000008 g_freertos_runtime_timer_start
00000000 l    df *ABS*	00000000 hooks.c
00000000 l    df *ABS*	00000000 freertos_mem_man.c
00000000 l    df *ABS*	00000000 core_cm3.c
00000000 l    df *ABS*	00000000 low_level_init.cpp
2007c718 l     O .bss	00000001 g_sys_boot_type
2007c719 l     O .bss	0000000c g_rtc_boot_time
00000000 l    df *ABS*	00000000 lpc_peripherals.c
00000000 l    df *ABS*	00000000 lpc_sys.cpp
2007c726 l     O .bss	00000002 g_timer_rollover_count
00000000 l    df *ABS*	00000000 sys_clock.cpp
0001ac54 l     F .text	00000014 sys_clock_pll0_feed()
0001ac68 l     F .text	00000078 sys_clock_configure_pll(unsigned int, unsigned int, int*, int*, int*) [clone .constprop.0]
00000000 l    df *ABS*	00000000 uart0_min.c
00000000 l    df *ABS*	00000000 si_class_type_info.cc
00000000 l    df *ABS*	00000000 vmi_class_type_info.cc
00000000 l    df *ABS*	00000000 tinfo.cc
00000000 l    df *ABS*	00000000 class_type_info.cc
00000000 l    df *ABS*	00000000 guard.cc
00000000 l    df *ABS*	00000000 pure.cc
00000000 l    df *ABS*	00000000 eh_terminate.cc
00000000 l    df *ABS*	00000000 _ashldi3.o
00000000 l    df *ABS*	00000000 _arm_addsubdf3.o
00000000 l    df *ABS*	00000000 _arm_fixunsdfsi.o
00000000 l    df *ABS*	00000000 _arm_truncdfsf2.o
00000000 l    df *ABS*	00000000 _arm_addsubsf3.o
00000000 l    df *ABS*	00000000 _arm_muldivsf3.o
00000000 l    df *ABS*	00000000 _arm_fixsfsi.o
00000000 l    df *ABS*	00000000 _arm_fixunssfsi.o
00000000 l    df *ABS*	00000000 _aeabi_uldivmod.o
00000000 l    df *ABS*	00000000 libgcc2.c
00000000 l    df *ABS*	00000000 _dvmd_tls.o
00000000 l    df *ABS*	00000000 abort.c
00000000 l    df *ABS*	00000000 atoi.c
00000000 l    df *ABS*	00000000 ctime.c
00000000 l    df *ABS*	00000000 findfp.c
0001c2c0 l     F .text	00000048 std.isra.0
00000000 l    df *ABS*	00000000 fwalk.c
00000000 l    df *ABS*	00000000 init.c
00000000 l    df *ABS*	00000000 lcltime.c
00000000 l    df *ABS*	00000000 lcltime_r.c
00000000 l    df *ABS*	00000000 locale.c
0001c6bc l     F .text	00000018 __get_current_locale
00000000 l    df *ABS*	00000000 malloc.c
00000000 l    df *ABS*	00000000 mbtowc_r.c
00000000 l    df *ABS*	00000000 memchr-stub.c
00000000 l    df *ABS*	00000000 memcmp.c
00000000 l    df *ABS*	00000000 memcpy-stub.c
00000000 l    df *ABS*	00000000 memmove.c
00000000 l    df *ABS*	00000000 memset.c
00000000 l    df *ABS*	00000000 mktime.c
0001c7cc l     F .text	000001b8 validate_structure
00025910 l     O .text	00000030 _DAYS_BEFORE_MONTH
00025940 l     O .text	00000030 DAYS_IN_MONTH
00000000 l    df *ABS*	00000000 mstats.c
00000000 l    df *ABS*	00000000 nano-mallocr.c
00000000 l    df *ABS*	00000000 nano-mallocr.c
00000000 l    df *ABS*	00000000 nano-mallocr.c
00000000 l    df *ABS*	00000000 nano-vfprintf_float.c
00000000 l    df *ABS*	00000000 nano-vfprintf_i.c
00000000 l    df *ABS*	00000000 nano-vfscanf_float.c
00000000 l    df *ABS*	00000000 printf.c
00000000 l    df *ABS*	00000000 puts.c
00000000 l    df *ABS*	00000000 rand.c
00000000 l    df *ABS*	00000000 realloc.c
00000000 l    df *ABS*	00000000 refill.c
0001dc9c l     F .text	00000012 lflush
00000000 l    df *ABS*	00000000 sbrkr.c
00000000 l    df *ABS*	00000000 scanf.c
00000000 l    df *ABS*	00000000 setvbuf.c
00000000 l    df *ABS*	00000000 sf_nan.c
00000000 l    df *ABS*	00000000 signal.c
00000000 l    df *ABS*	00000000 signalr.c
00000000 l    df *ABS*	00000000 sprintf.c
00000000 l    df *ABS*	00000000 sscanf.c
00000000 l    df *ABS*	00000000 stdio.c
00000000 l    df *ABS*	00000000 strcasecmp.c
00000000 l    df *ABS*	00000000 strcat.c
00000000 l    df *ABS*	00000000 strchr.c
00000000 l    df *ABS*	00000000 lib_a-strcmp.o
00000000 l    df *ABS*	00000000 strcpy.c
00000000 l    df *ABS*	00000000 lib_a-strlen.o
00000000 l    df *ABS*	00000000 strncasecmp.c
00000000 l    df *ABS*	00000000 strncmp.c
00000000 l    df *ABS*	00000000 strncpy.c
00000000 l    df *ABS*	00000000 strrchr.c
00000000 l    df *ABS*	00000000 strstr.c
00000000 l    df *ABS*	00000000 strtod.c
0001e2c8 l     F .text	00000042 sulp
00025a08 l     O .text	00000028 tinytens
00025a30 l     O .text	00000014 fpi.6179
00025a44 l     O .text	00000014 fpinan.6215
00000000 l    df *ABS*	00000000 strtok_r.c
00000000 l    df *ABS*	00000000 strtol.c
0001ef74 l     F .text	00000110 _strtol_l.isra.0
00000000 l    df *ABS*	00000000 time.c
00000000 l    df *ABS*	00000000 tolower.c
00000000 l    df *ABS*	00000000 toupper.c
00000000 l    df *ABS*	00000000 tzcalc_limits.c
00000000 l    df *ABS*	00000000 tzlock.c
00000000 l    df *ABS*	00000000 tzset.c
00000000 l    df *ABS*	00000000 tzset_r.c
2007c75c l     O .bss	0000000b __tzname_dst
2007c767 l     O .bss	0000000b __tzname_std
2007c774 l     O .bss	00000004 prev_tzenv
00000000 l    df *ABS*	00000000 vsnprintf.c
00000000 l    df *ABS*	00000000 vsscanf.c
00000000 l    df *ABS*	00000000 wbuf.c
00000000 l    df *ABS*	00000000 wctomb_r.c
00000000 l    df *ABS*	00000000 writer.c
00000000 l    df *ABS*	00000000 wsetup.c
00000000 l    df *ABS*	00000000 asctime.c
00000000 l    df *ABS*	00000000 asctime_r.c
00025ab4 l     O .text	00000015 day_name.4761
00025ac9 l     O .text	00000024 mon_name.4762
00000000 l    df *ABS*	00000000 closer.c
00000000 l    df *ABS*	00000000 div.c
00000000 l    df *ABS*	00000000 dtoa.c
0001f8e8 l     F .text	00000116 quorem
00000000 l    df *ABS*	00000000 fflush.c
00000000 l    df *ABS*	00000000 gdtoa-gethex.c
000206b4 l     F .text	0000006c rshift
00000000 l    df *ABS*	00000000 gdtoa-hexnan.c
00020b8a l     F .text	00000024 L_shift
00000000 l    df *ABS*	00000000 getenv_r.c
00000000 l    df *ABS*	00000000 gettimeofdayr.c
00000000 l    df *ABS*	00000000 gettzinfo.c
2007c2b0 l     O .data	00000040 tzinfo
00000000 l    df *ABS*	00000000 gmtime_r.c
00000000 l    df *ABS*	00000000 localeconv.c
00000000 l    df *ABS*	00000000 lseekr.c
00000000 l    df *ABS*	00000000 makebuf.c
00000000 l    df *ABS*	00000000 mprec.c
00025cf0 l     O .text	0000000c p05.6097
00000000 l    df *ABS*	00000000 nano-mallocr.c
00000000 l    df *ABS*	00000000 nano-mallocr.c
00000000 l    df *ABS*	00000000 nano-vfprintf.c
00000000 l    df *ABS*	00000000 nano-vfscanf.c
00000000 l    df *ABS*	00000000 nano-vfprintf.c
00021e10 l     F .text	0000002c __sfputc_r
00000000 l    df *ABS*	00000000 nano-vfscanf.c
00000000 l    df *ABS*	00000000 nano-vfscanf_i.c
00000000 l    df *ABS*	00000000 readr.c
00000000 l    df *ABS*	00000000 sccl.c
00000000 l    df *ABS*	00000000 strtoul.c
000226cc l     F .text	00000102 _strtoul_l.isra.0
00000000 l    df *ABS*	00000000 ungetc.c
00000000 l    df *ABS*	00000000 envlock.c
00000000 l    df *ABS*	00000000 fstatr.c
00000000 l    df *ABS*	00000000 isattyr.c
00000000 l    df *ABS*	00000000 nano-mallocr.c
00000000 l    df *ABS*	00000000 _arm_muldivdf3.o
00000000 l    df *ABS*	00000000 _arm_cmpdf2.o
00000000 l    df *ABS*	00000000 _arm_unorddf2.o
00000000 l    df *ABS*	00000000 _arm_fixdfsi.o
00000000 l    df *ABS*	00000000 impure.c
2007c0d8 l     O .data	00000060 impure_data
00000000 l    df *ABS*	00000000 month_lengths.c
00000000 l    df *ABS*	00000000 ctype_.c
00000000 l    df *ABS*	00000000 eh_term_handler.cc
00000000 l    df *ABS*	00000000 tzvars.c
00000000 l    df *ABS*	00000000 environ.c
2007c780 l     O .bss	00000004 initial_env
00000000 l    df *ABS*	00000000 reent.c
00018ab8 g     F .text	0000001c Uart3::Uart3()
00017b30 g     F .text	00000040 scheduler_start(bool, bool)
000229c0 g     F .text	00000014 _malloc_usable_size_r
00010f18 g     F .text	00000030 rebootHandler(str&, CharDev&, void*)
0001ce34 g     F .text	000000c0 __cvt
00017d4c g     F .text	0000002e str::beginsWith(char const*) const
0001aa4c g     F .text	00000054 lpc_sys_setup_system_timer
00022398 g     F .text	000000cc _scanf_chars
0001b468 g     F .text	00000004 std::type_info::__is_function_p() const
00022f08 g     F .text	0000002c .hidden __aeabi_dcmpun
00018768 g     F .text	000000d0 rtc_init
00021762 g     F .text	00000044 __any_on
000229a0 g     F .text	00000020 _isatty_r
00022ecc g     F .text	00000012 .hidden __aeabi_dcmple
00017f34 g     F .text	00000006 str::operator int() const
0001e1ac g     F .text	00000010 strcpy
0001f828 g     F .text	0000002c asctime
0001b5c0 g     F .text	00000018 .hidden __ashldi3
0001039c g     F .text	00000004 _getpid
0001db04 g     F .text	000000b4 _puts_r
00010148  w    F .text	00000010 TIMER2_IRQHandler
00017b14 g     F .text	0000001c scheduler_add_task(scheduler_task*)
00022e08 g     F .text	0000007a .hidden __cmpdf2
00020ef0 g     F .text	00000024 _lseek_r
0001537a g     F .text	000000a6 get_fat
000184f8 g     F .text	0000001c RIT_IRQHandler
00012e0c g     F .text	00000100 mesh_form_pkt
00017de0 g     F .text	00000028 str::eraseFirst(int)
00017f2c g     F .text	00000004 str::operator==(char const*) const
00022e08 g     F .text	0000007a .hidden __eqdf2
00014cbc g     F .text	00000010 flash_supports_metadata
000254b9 g     O .text	00000009 typeinfo name for UartDev
000100cc g       .text	00000000 __section_table_start
00020d78 g     F .text	00000024 _gettimeofday_r
0001a5c8 g     F .text	00000014 vPortExitCritical
0001ef6e g     F .text	00000006 strtok_r
0001b8ec g     F .text	0000005a .hidden __floatdidf
00010148  w    F .text	00000010 I2C0_IRQHandler
000185f8  w    F .text	00000012 NordicStream::~NordicStream()
2007c34c  w    O .bss	00000004 SingletonTemplate<LED>::mpSingletonInstance
0001dfd0 g     F .text	00000024 _kill_r
0001dad4 g     F .text	00000030 printf
0001aaa0 g     F .text	0000002c sys_get_uptime_us
0001299c  w    F .text	0000000c wirelessTask::~wirelessTask()
0001e0f2 g     F .text	00000024 __sseek
0001c334 g     F .text	00000060 __sinit
00018a90  w    F .text	00000014 Uart3::~Uart3()
0001a19c g     F .text	00000080 vTaskGetInfo
0001f664 g     F .text	000000a8 __swbuf_r
2007c778 g     O .bss	00000004 _daylight
00010620 g     F .text	00000022 memInfoHandler(str&, CharDev&, void*)
2007c334  w    O .bss	00000004 Storage::getFlashDrive()::pFlashDrive
0001aee4 g     F .text	00000014 __cxxabiv1::__si_class_type_info::~__si_class_type_info()
000257a8 g     O .text	00000025 typeinfo name for __cxxabiv1::__si_class_type_info
00025470  w    O .text	0000001c vtable for Uart3
0001c308 g     F .text	0000002c __sfmoreglue
0001f608 g     F .text	00000048 _vsiscanf_r
00010208 g     F .text	00000004 __malloc_unlock
00017578 g     F .text	00000134 logger_log
00013dde g     F .text	00000030 I2C_Temp::getCelsius()
0001b33a g     F .text	0000012c __cxxabiv1::__vmi_class_type_info::__do_upcast(__cxxabiv1::__class_type_info const*, void const*, __cxxabiv1::__class_type_info::__upcast_result&) const
000116e8 g     F .text	00000074 wsRteHandler(str&, CharDev&, void*)
0001eef8 g     F .text	00000020 _strtod_r
0001bdac g     F .text	00000136 .hidden __divsf3
00014548 g     F .text	00000098 sd_read
00025424  w    O .text	0000001c typeinfo name for SingletonTemplate<Uart3>
00020720 g     F .text	0000002a __hexdig_fun
000250b0  w    O .text	00000020 vtable for scheduler_task
00012990  w    F .text	00000002 wirelessTask::~wirelessTask()
0001904c g     F .text	0000006e UartDev::getChar(char*, unsigned int)
00025440  w    O .text	00000008 typeinfo for SingletonTemplate<Uart3>
00018534 g     F .text	00000054 lpc_timer_enable
00010148  w    F .text	00000010 PWM1_IRQHandler
0001c784 g     F .text	00000036 memmove
000135e0 g     F .text	00000008 nordic_clear_packet_sent_flag
2007c320  w    O .bss	00000004 SingletonTemplate<I2C2>::mpSingletonInstance
0001c6dc g     F .text	00000014 __locale_ctype_ptr
00019650 g     F .text	0000007c xQueueGenericSendFromISR
00020fd4 g     F .text	0000006a _Balloc
00017c38 g     F .text	0000004c str::tokenize(char const*, int, ...)
00025d44 g       .ARM.exidx	00000000 __exidx_end
0001ef18 g     F .text	00000056 __strtok_r
000186b0 g     F .text	00000050 rtc_gettime
0001bee4 g     F .text	0000004c .hidden __fixsfsi
000100d8 g       .text	00000000 __data_section_table_end
00012448 g     F .text	00000074 terminalTask::handleEchoAndBackspace(terminalTask::cmdChan_t*, char)
00018428 g     F .text	00000030 eint3_enable_port0
00010148  w    F .text	00000010 I2C1_IRQHandler
000252dc  w    O .text	00000024 typeinfo name for SingletonTemplate<NordicStream>
000180c0 g     F .text	0000000e is_freertos_running
00010148  w    F .text	00000010 EINT2_IRQHandler
00010148  w    F .text	00000010 UART1_IRQHandler
00022df8 g     F .text	0000008a .hidden __gtdf2
00017b70 g     F .text	00000034 scheduler_task::scheduler_task(char const*, unsigned long, unsigned char, void*)
000254e0 g     O .text	0000000c typeinfo for UartDev
0001ace0 g     F .text	000000b4 sys_clock_configure()
00025334 g     O .text	00000020 typeinfo for NordicStream
0001cd14 g     F .text	00000064 _mallinfo_r
000198de g     F .text	00000018 xQueueSelectFromSet
0001a50c g     F .text	00000010 vRunTimeStatIsrExit
00020ed0 g     F .text	00000004 __localeconv_l
00011d34  w    F .text	00000028 SingletonTemplate<TemperatureSensor>::getInstance()
2007c6b0 g     O .bss	00000004 pxCurrentTCB
000141e8 g     F .text	0000002e wait_ready
00010f48 g     F .text	00000038 learnIrHandler(str&, CharDev&, void*)
000183a8 g     F .text	00000080 EINT3_IRQHandler
00013bf8 g     F .text	00000064 IR_Sensor::decodeIrCode()
00013594 g     F .text	00000016 nordic_standby1_to_tx_mode1
00017c14 g     F .text	00000008 str::clear()
000189a8 g     F .text	00000040 Uart0::init(unsigned int, int, int)
00012df0 g     F .text	0000000c mesh_get_node_address
00013c5c g     F .text	00000034 IR_Sensor::init()
0002297c g     F .text	00000024 _fstat_r
00017eb2 g     F .text	00000040 str::trimStart(char const*)
000130b8 g     F .text	0000002c mesh_get_routing_entry
2007c784 g     O .bss	00000004 errno
00022464 g     F .text	000001e4 _scanf_i
0001e0b6 g     F .text	00000004 __seofread
00025d44 g       .ARM.exidx	00000000 _etext
00010538 g     F .text	000000e8 taskListHandler(str&, CharDev&, void*)
0001367a g     F .text	0000003e nordic_set_intr_signals
00022e94 g     F .text	00000010 .hidden __aeabi_cdcmple
2007c5b0  w    O .bss	00000004 SingletonTemplate<Uart2>::mpSingletonInstance
00013580 g     F .text	00000008 nordic_clear_all_intr_flags
00017ba4 g     F .text	00000018 scheduler_task::getSharedObject(unsigned char)
00018d46 g     F .text	00000016 I2C_Base::writeReg(unsigned char, unsigned char, unsigned char)
0001ba34 g     F .text	00000160 .hidden __aeabi_fadd
00017be6 g     F .text	00000024 str::~str()
0001ba30 g     F .text	00000164 .hidden __subsf3
00014034 g     F .text	00000024 ff_wtoupper
00024218 g     O .text	00000020 vtable for terminalTask
00025318 g     O .text	0000001c vtable for NordicStream
00017faa g     F .text	0000000c str::str(int)
0001f650 g     F .text	00000014 vsscanf
00022348 g     F .text	00000050 _vfiscanf_r
000122dc  w    F .text	00000004 scheduler_task::taskEntry()
0001aa04 g     F .text	00000048 lpc_pclk
00010148  w    F .text	00000010 TIMER3_IRQHandler
000184c0 g     F .text	00000014 I2C2::I2C2()
000137fa g     F .text	0000000c nordic_set_rx_pipe0_addr
00018a04 g     F .text	00000024 UART0_IRQHandler
0001a664 g     F .text	00000030 xPortStartScheduler
000104f0  w    F .text	00000048 Storage::getSDDrive()
00019c60 g     F .text	00000020 vTaskEndScheduler
0001c76e g     F .text	00000016 memcpy
0001a09c g     F .text	00000020 vTaskPlaceOnEventList
00020bd4 g     F .text	0000011c __hexnan
00018868 g     F .text	000000c4 ssp1_dma_transfer_block
00022e84 g     F .text	00000020 .hidden __aeabi_cdrcmple
2007c728 g     O .bss	00000004 gp_timer_ptr
0001de10 g     F .text	00000154 setvbuf
000104a8  w    F .text	00000048 Storage::getFlashDrive()
000253bc  w    O .text	0000001c typeinfo name for SingletonTemplate<Uart2>
0001c2b4 g     F .text	0000000c _cleanup_r
0001b4cc g     F .text	0000000c __cxxabiv1::__class_type_info::__do_find_public_src(int, void const*, __cxxabiv1::__class_type_info const*, void const*) const
000218c0 g     F .text	000001e8 _svfprintf_r
0001b87c g     F .text	00000022 .hidden __floatsidf
0001a650  w    F .text	00000014 vPortSetupTimerInterrupt
00025308 g     O .text	0000000f typeinfo name for NordicStream
0001366e g     F .text	0000000c nordic_flush_rx_fifo
00022e00 g     F .text	00000082 .hidden __ltdf2
000100fa  w    F .text	0000000e isr_nmi
0001a624 g     F .text	0000002c xPortSysTickHandler
000140b4 g     F .text	00000026 disk_initialize
00012dfc g     F .text	00000010 mesh_set_retry_count
0001b4d8 g     F .text	00000014 __cxxabiv1::__class_type_info::~__class_type_info()
0001bf70 g     F .text	00000000 .hidden __aeabi_uldivmod
00018e54 g     F .text	00000122 I2C_Base::i2cStateMachine()
0001dbb8 g     F .text	00000010 puts
000257d0 g     O .text	0000000c typeinfo for __cxxabiv1::__vmi_class_type_info
00012990  w    F .text	00000002 wirelessTask::~wirelessTask()
0001a74e g     F .text	0000001a vPortFree
000112dc g     F .text	000000b4 flashProgHandler(str&, CharDev&, void*)
0001f0fc g     F .text	0000001c tolower
00022348 g     F .text	00000050 _vfscanf_r
000216de g     F .text	00000050 __ratio
0001dde0 g     F .text	00000030 iscanf
000168c8 g     F .text	00000120 f_rename
00013d32 g     F .text	00000004 LED::init()
0001406c g     F .text	00000004 ff_del_syncobj
000122fc  w    F .text	00000048 terminalTask::~terminalTask()
00025378  w    O .text	00000007 typeinfo name for Uart0
0001c6f0 g     F .text	00000010 malloc
00018af8  w    F .text	00000004 CharDev::flush()
000100e0  w    F .text	0000001a isr_hard_fault
00013c90 g     F .text	00000018 LED_Display::setLeftDigit(char)
0001df6c g     F .text	00000054 _raise_r
000103fa g     F .text	00000004 _fstat
0001892c g     F .text	00000030 spi1_lock
0001bb9c g     F .text	0000001c .hidden __aeabi_i2f
00025c00 g     O .text	000000c8 __mprec_tens
0001a318 g     F .text	00000020 uxTaskGetStackHighWaterMark
00010c68 g     F .text	000000b0 newFileHandler(str&, CharDev&, void*)
0001a5e0 g     F .text	00000044 xPortPendSVHandler
0001f5ec g     F .text	0000001c vsnprintf
00010d18 g     F .text	00000140 dcpHandler(str&, CharDev&, void*)
0001b948 g     F .text	00000040 .hidden __fixunsdfsi
000192ac g     F .text	00000018 vListInsertEnd
000143c8 g     F .text	00000170 sd_initialize
000137d8 g     F .text	00000016 nordic_set_addr_width
00018c40 g     F .text	000000dc I2C_Base::transfer(unsigned char, unsigned char, unsigned char*, unsigned long)
00021b24 g     F .text	0000003a __ssrefill_r
00013808 g     F .text	000000c8 nordic_init
0001dff4 g     F .text	00000004 _getpid_r
000140da g     F .text	00000010 disk_status
00013acc g     F .text	0000004c wireless_init
000227f4 g     F .text	0000002c strtoul
0001b85c g     F .text	0000001e .hidden __aeabi_ui2d
00018458 g     F .text	00000068 I2C2::init(unsigned int)
00020ed4 g     F .text	0000001c _localeconv_r
00024890  w    O .text	0000000c typeinfo for wirelessTask
0001afe8 g     F .text	00000014 __cxxabiv1::__vmi_class_type_info::~__vmi_class_type_info()
000211f8 g     F .text	00000012 __i2b
0001b54e g     F .text	0000002a __cxxabiv1::__class_type_info::__do_catch(std::type_info const*, void**, unsigned int) const
0001bfa0 g     F .text	000002ec .hidden __udivmoddi4
0001371e g     F .text	00000024 nordic_set_channel
0001b5d8 g     F .text	00000000 .hidden __aeabi_drsub
00010194 g     F .text	00000070 isr_reset
0001ddc0 g     F .text	00000020 _sbrk_r
00013060 g     F .text	0000003c mesh_send
00010708 g     F .text	00000190 logHandler(str&, CharDev&, void*)
000253d8  w    O .text	00000008 typeinfo for SingletonTemplate<Uart2>
00022648 g     F .text	00000024 _read_r
00024870 g     O .text	0000000f typeinfo name for terminalTask
000192a6 g     F .text	00000006 vListInitialiseItem
0001415a g     F .text	00000032 disk_ioctl
00010148  w    F .text	00000010 PLL0_IRQHandler
00022eb8 g     F .text	00000012 .hidden __aeabi_dcmplt
0001860a g     F .text	00000044 NordicStream::getChar(char*, unsigned int)
0001831c g     F .text	00000028 CAN_IRQHandler
00020690 g     F .text	00000024 fflush
00010118  w    F .text	00000010 isr_bus_fault
00017470 g     F .text	0000000c logger_get_highest_file_write_time_ms
00010148  w    F .text	00000010 PLL1_IRQHandler
000254b0 g     O .text	00000009 typeinfo name for CharDev
0001a694 g     F .text	00000014 rts_not_full_trace_init
00013cc0 g     F .text	00000038 LED_Display::init()
0001b8a0 g     F .text	0000003a .hidden __extendsfdf2
00021b60 g     F .text	000002b0 __ssvfscanf_r
00022c28 g     F .text	000001d0 .hidden __aeabi_ddiv
00010148  w    F .text	00000010 SSP0_IRQHandler
00013742 g     F .text	0000002c nordic_set_air_data_rate
0001b5e4 g     F .text	00000276 .hidden __adddf3
00010b94 g     F .text	0000003c mkdirHandler(str&, CharDev&, void*)
00010148  w    F .text	00000010 CANAct_IRQHandler
00025770 g     O .text	0000002c vtable for __cxxabiv1::__si_class_type_info
000133f8 g     F .text	00000024 mesh_get_max_timeout_before_packet_fails
000176ac g     F .text	00000040 logger_log_raw
000215a8 g     F .text	0000009a __b2d
00025d3c g       .text	00000000 __exidx_start
000229d4 g     F .text	00000254 .hidden __aeabi_dmul
0001a77c g     F .text	0000000c sys_get_boot_type
00010400 g     F .text	00000024 _isatty
0001b4fe g     F .text	00000018 __cxxabiv1::__class_type_info::__do_upcast(__cxxabiv1::__class_type_info const*, void const*, __cxxabiv1::__class_type_info::__upcast_result&) const
000137ee g     F .text	0000000c nordic_set_tx_address
00010284 g     F .text	00000004 operator delete(void*)
00025904 g     O .text	00000004 _global_impure_ptr
0001affc g     F .text	00000012 __cxxabiv1::__vmi_class_type_info::~__vmi_class_type_info()
000217c2 g     F .text	0000004c _realloc_r
0001c480 g     F .text	0000004c __libc_init_array
0001e1cc g     F .text	00000052 strncasecmp
000170c0 g     F .text	0000014c CommandProcessor::handleCommand(str&, CharDev&)
000142c8 g     F .text	0000004c xmit_datablock
00018ff2 g     F .text	0000005a UartDev::putChar(char, unsigned int)
0001365a g     F .text	00000014 nordic_read_rx_fifo
00011144 g     F .text	00000198 i2cIoHandler(str&, CharDev&, void*)
0001747c g     F .text	0000000c logger_get_num_buffers_watermark
00025cc8 g     O .text	00000028 __mprec_bigtens
000210e2 g     F .text	0000007c __s2b
0001c290 g     F .text	0000000e abort
0001b85c g     F .text	0000001e .hidden __floatunsidf
00014ad0 g     F .text	00000098 flash_initialize
0001020c g     F .text	00000074 _sbrk
000185e4  w    F .text	00000014 NordicStream::~NordicStream()
0002146a g     F .text	00000038 __mcmp
0001a730 g     F .text	0000001e pvPortMalloc
00020da4 g     F .text	0000012c gmtime_r
000253e0  w    O .text	00000007 typeinfo name for Uart2
000166bc g     F .text	000000ba f_unlink
00018994  w    F .text	00000012 Uart0::~Uart0()
00010148  w    F .text	00000010 I2S_IRQHandler
000103a0 g     F .text	00000004 _init
000122e0  w    F .text	00000018 SingletonTemplate<IR_Sensor>::getInstance()
0001a5a4 g     F .text	00000002 vPortEndScheduler
000184d4 g     F .text	00000024 I2C2_IRQHandler
00019290 g     F .text	00000016 vListInitialise
000103f8 g     F .text	00000002 syscalls_init
00018a90  w    F .text	00000014 Uart3::~Uart3()
000100cc g       .text	00000000 __data_section_table
0001f0a8 g     F .text	0000002c strtol
00018a28  w    F .text	00000014 Uart2::~Uart2()
0001b5b4 g     F .text	0000000a std::terminate()
0001b988 g     F .text	0000009e .hidden __aeabi_d2f
00018b90 g     F .text	00000078 CharDev::printf(char const*, ...)
00019c90 g     F .text	0000000c xTaskGetTickCount
00019524 g     F .text	00000108 xQueueGenericSend
0001ba30 g     F .text	00000164 .hidden __aeabi_fsub
000177c4 g     F .text	000000ac RTC_IRQHandler
0001e310 g     F .text	00000be8 _strtod_l
0002489c  w    O .text	00000020 vtable for wirelessTask
00020bae g     F .text	00000026 __match
2007c788 g       .bss	00000000 _ebss
00017908 g     F .text	00000120 scheduler_c_task_private(void*)
0001b00e g     F .text	00000074 __cxxabiv1::__vmi_class_type_info::__do_find_public_src(int, void const*, __cxxabiv1::__class_type_info const*, void const*) const
00010148  w    F .text	00000010 TIMER0_IRQHandler
0001a768 g     F .text	00000006 __set_PSP
00012398 g     F .text	000000b0 terminalTask::terminalTask(unsigned char)
00018b40 g     F .text	00000050 CharDev::gets(char*, int, unsigned int)
00018fd2 g     F .text	00000020 UartDev::flush()
0001f5ec g     F .text	0000001c vsniprintf
00025880 g     O .text	00000022 typeinfo name for __cxxabiv1::__class_type_info
0001f286 g     F .text	00000002 __tz_unlock
00010148  w    F .text	00000010 SPI_IRQHandler
0001e26e g     F .text	00000026 strrchr
0002115e g     F .text	00000040 __hi0bits
00010158  w    F .text	00000012 isr_sys_tick
000137c4 g     F .text	00000014 nordic_set_payload_for_pipe
0001a27c g     F .text	0000009c uxTaskGetSystemState
00022f34 g     F .text	0000004e .hidden __fixdfsi
0001a3ec g     F .text	00000070 xTaskPriorityDisinherit
00010bd0 g     F .text	0000003c rmHandler(str&, CharDev&, void*)
00018670 g     F .text	00000040 NordicStream::NordicStream()
00014c24 g     F .text	00000044 flash_write_permanent_id
2007c590 g     O .bss	00000004 g_adc_result_queue
0001bbc8 g     F .text	0000007c .hidden __floatdisf
00025408  w    O .text	0000001c vtable for Uart2
00011d8c g     F .text	00000548 high_level_init()
000191b8 g     F .text	00000028 UartDev::UartDev(unsigned int*)
0001a474 g     F .text	00000070 vTaskResetRunTimeStats
00017bbc g     F .text	0000002a str::str(char*, int)
0001b466 g     F .text	00000002 std::type_info::~type_info()
00010918 g     F .text	00000104 catHandler(str&, CharDev&, void*)
0001ad94 g     F .text	000000a4 sys_get_cpu_clock
00013b90  w    F .text	0000002a i2c2_device::get16BitRegister(unsigned char)
0001a79c g     F .text	00000238 low_level_init()
2007c2a8 g     O .data	00000008 _tzname
00011cf4  w    F .text	00000024 SingletonTemplate<LED_Display>::getInstance()
0001755c g     F .text	0000001c logger_set_printf
0001a70c g     F .text	00000024 vApplicationMallocFailedHook
0001a0bc g     F .text	00000070 xTaskRemoveFromEventList
2007c2f0 g     O .data	00000004 environ
0001abfc g     F .text	00000058 isr_hard_fault_handler
000189e8 g     F .text	0000001c Uart0::Uart0()
00017f3a g     F .text	00000014 str::operator[](int)
0001b5e4 g     F .text	00000276 .hidden __aeabi_dadd
00022e00 g     F .text	00000082 .hidden __ledf2
0001c2a6 g     F .text	0000000e ctime
2007c358  w    O .bss	00000004 SingletonTemplate<Acceleration_Sensor>::mpSingletonInstance
00018d24 g     F .text	0000001a I2C_Base::readReg(unsigned char, unsigned char)
00016ed4 g     F .text	0000002a c_list_for_each_elm
0001e15e g     F .text	0000001e strcat
0002132c g     F .text	0000009c __pow5mult
0001b8dc g     F .text	0000006a .hidden __aeabi_ul2d
000135bc g     F .text	00000024 nordic_standby1_to_rx
00010148  w    F .text	00000010 EINT1_IRQHandler
0001ab04 g     F .text	000000bc TIMER1_IRQHandler
00013da4 g     F .text	00000018 Switches::getSwitchValues()
000258e4 g     O .text	00000020 __sf_fake_stderr
000253e8  w    O .text	00000020 typeinfo for Uart2
00016f00 g     F .text	0000007c CommandProcessor::addHandler(bool (*)(str&, CharDev&, void*), char const*, char const*, void*)
0001b5a4 g     F .text	00000010 std::get_terminate()
0001804a g     F .text	0000001a str::operator+=(char)
000126f0  w    F .text	00000022 Uart0::getcharIntrDriven(char)
00017d7a g     F .text	0000002e str::beginsWithIgnoreCase(char const*) const
00012992  w    F .text	0000000a wirelessTask::run(void*)
000135f4 g     F .text	0000004c nordic_mode1_send_single_packet
00010e58 g     F .text	000000c0 storageHandler(str&, CharDev&, void*)
0001423c g     F .text	0000008c rcvr_datablock
00018a6c g     F .text	00000024 UART2_IRQHandler
00018fac  w    F .text	00000014 UartDev::~UartDev()
0001a6a8 g     F .text	00000014 rts_not_full_trace_get
000130e4 g     F .text	0000001c mesh_get_num_routing_entries
0002180e g     F .text	000000b2 __ssputs_r
00012dd8 g     F .text	00000018 mesh_set_node_address
0001a45c g     F .text	00000018 pvTaskIncrementMutexHeldCount
00018980  w    F .text	00000014 Uart0::~Uart0()
0001b516 g     F .text	00000038 __cxxabiv1::__class_type_info::__do_dyncast(int, __cxxabiv1::__class_type_info::__sub_kind, __cxxabiv1::__class_type_info const*, void const*, __cxxabiv1::__class_type_info const*, void const*, __cxxabiv1::__class_type_info::__dyncast_result&) const
0001afe8 g     F .text	00000014 __cxxabiv1::__vmi_class_type_info::~__vmi_class_type_info()
000122d4  w    F .text	00000004 scheduler_task::init()
00017e08 g     F .text	00000020 str::eraseLast(int)
00022ef4 g     F .text	00000012 .hidden __aeabi_dcmpgt
0001b498 g     F .text	00000034 __cxxabiv1::__class_type_info::__do_upcast(__cxxabiv1::__class_type_info const*, void**) const
2007c318  w    O .bss	00000004 SingletonTemplate<TemperatureSensor>::mpSingletonInstance
00021e3c g     F .text	00000024 __sfputs_r
00013d98 g     F .text	00000006 Light_Sensor::getRawValue()
0001c734 g     F .text	0000001c memchr
0001cf58  w    F .text	00000488 _printf_float
0001895c g     F .text	00000024 spi1_unlock
0001a144 g     F .text	0000004c xTaskCheckForTimeOut
0001cc7c g     F .text	00000098 _free_r
00016f7c g     F .text	00000098 CommandProcessor::getRegisteredCommandList(CharDev&)
00022ee0 g     F .text	00000012 .hidden __aeabi_dcmpge
00018a50 g     F .text	0000001c Uart2::Uart2()
00017d36 g     F .text	00000016 str::firstIndexOf(char const*) const
00010f80  w    F .text	00000020 SingletonTemplate<I2C2>::getInstance()
0001ae38 g     F .text	00000060 uart0_init
2007c2f8 g       .bss	00000000 _bss
00018006 g     F .text	00000022 str::ensureMemoryToInsertNChars(int)
00021aa8 g     F .text	0000007c _sungetc_r
00011d74  w    F .text	00000018 SingletonTemplate<Switches>::getInstance()
0001639a g     F .text	00000024 f_close
00014538 g     F .text	00000010 sd_status
0001b5e0 g     F .text	0000027a .hidden __aeabi_dsub
0001c984 g     F .text	000002e4 mktime
00010148 g     F .text	00000010 isr_default_handler
00013652 g     F .text	00000008 nordic_clear_packet_available_flag
00025370  w    O .text	00000008 typeinfo for SingletonTemplate<Uart0>
00019c80 g     F .text	00000010 vTaskSuspendAll
00019ba8 g     F .text	00000054 eTaskGetState
0001e294 g     F .text	00000034 strstr
2007c5b4  w    O .bss	00000004 SingletonTemplate<Uart3>::mpSingletonInstance
00025838 g     O .text	0000000d typeinfo name for std::type_info
00019c9c g     F .text	0000000c xTaskGetTickCountFromISR
0001b8dc g     F .text	0000006a .hidden __floatundidf
00014cb0 g     F .text	0000000c flash_get_page_size
0001dc18 g     F .text	00000074 rand
00010424 g     F .text	00000004 _lseek
0001b596 g     F .text	00000006 __cxa_pure_virtual
000213c8 g     F .text	000000a2 __lshift
000124bc g     F .text	00000040 terminalTask::addCommandChannel(CharDev*, bool)
0001bb9c g     F .text	0000001c .hidden __floatsisf
000192f4 g     F .text	00000020 uxListRemove
00013b84  w    F .text	0000000c i2c2_device::writeReg(unsigned char, unsigned char)
00013f28 g     F .text	00000044 Storage::read(char const*, void*, unsigned int, unsigned int)
00015ffc g     F .text	00000170 f_read
00018670 g     F .text	00000040 NordicStream::NordicStream()
0001e21e g     F .text	0000002a strncmp
00018114 g     F .text	00000048 ADC_IRQHandler
0001af0a g     F .text	0000007c __cxxabiv1::__si_class_type_info::__do_dyncast(int, __cxxabiv1::__class_type_info::__sub_kind, __cxxabiv1::__class_type_info const*, void const*, __cxxabiv1::__class_type_info const*, void const*, __cxxabiv1::__class_type_info::__dyncast_result&) const
0001ae98 g     F .text	00000018 uart0_getchar
00017fc4 g     F .text	00000042 str::printf(char const*, ...)
00017c84 g     F .text	00000014 str::compareTo(char const*) const
00010a1c g     F .text	00000178 lsHandler(str&, CharDev&, void*)
0002120a g     F .text	00000120 __multiply
00016594 g     F .text	0000005e f_readdir
000118bc  w    F .text	00000020 SingletonTemplate<NordicStream>::getInstance()
0001a358 g     F .text	00000094 vTaskPriorityInherit
20083fe0 g       .bss	00000000 _vStackTop
00014058 g     F .text	00000014 ff_cre_syncobj
0001bee4 g     F .text	0000004c .hidden __aeabi_f2iz
00025970 g     O .text	00000060 __month_lengths
00017be6 g     F .text	00000024 str::~str()
0001e248 g     F .text	00000026 strncpy
00017c0a g     F .text	00000006 str::getLen() const
2007c72c g     O .bss	00000028 __malloc_current_mallinfo
00017ef2 g     F .text	0000003a str::trimEnd(char const*)
00021642 g     F .text	0000009c __d2b
0001e11e g     F .text	00000040 strcasecmp
2007c32c  w    O .bss	00000004 Storage::getSDDrive()::pSDCardDrive
00019f30 g     F .text	000000b8 vTaskSwitchContext
0001b466 g     F .text	00000002 std::type_info::~type_info()
00010148  w    F .text	00000010 SSP1_IRQHandler
000189e8 g     F .text	0000001c Uart0::Uart0()
0002548c g     O .text	0000001c vtable for CharDev
00018d3e g     F .text	00000008 I2C_Base::writeRegisters(unsigned char, unsigned char, unsigned char*, unsigned long)
0001afbe g     F .text	0000002a __cxxabiv1::__si_class_type_info::__do_upcast(__cxxabiv1::__class_type_info const*, void const*, __cxxabiv1::__class_type_info::__upcast_result&) const
00012344  w    F .text	00000012 terminalTask::~terminalTask()
0001dc8c g     F .text	00000010 realloc
00018afc g     F .text	00000028 CharDev::put(char const*, unsigned int)
000257dc g     O .text	00000026 typeinfo name for __cxxabiv1::__vmi_class_type_info
00013b38 g     F .text	0000004c wireless_service
000227d0 g     F .text	00000024 _strtoul_r
00014b68 g     F .text	00000044 flash_read_sectors
00013640 g     F .text	00000012 nordic_is_packet_available
000100e0 g       .text	00000000 __bss_section_table_end
00017450 g     F .text	00000014 logger_get_logged_call_count
0001bdac g     F .text	00000136 .hidden __aeabi_fdiv
00017c10 g     F .text	00000004 str::getCapacity() const
0001f8a0 g     F .text	00000020 _close_r
2007c324  w    O .bss	00000004 SingletonTemplate<Uart0>::mpSingletonInstance
0001b87c g     F .text	00000022 .hidden __aeabi_i2d
00010898 g     F .text	00000080 cpHandler(str&, CharDev&, void*)
00010180 g     F .text	00000014 bss_init(unsigned int, unsigned int)
00012f5c g     F .text	00000104 mesh_init
00018f78 g     F .text	00000034 I2C_Base::handleInterrupt()
0001c750 g     F .text	0000001e memcmp
2007c340  w    O .bss	00000004 SingletonTemplate<NordicStream>::mpSingletonInstance
000180a0 g     F .text	00000004 str::operator=(char const*)
00010148  w    F .text	00000010 USB_IRQHandler
0001bbb8 g     F .text	0000008c .hidden __floatundisf
0001aee4 g     F .text	00000014 __cxxabiv1::__si_class_type_info::~__si_class_type_info()
0001e040 g     F .text	00000054 sscanf
0001f74c g     F .text	000000dc __swsetup_r
000124fc g     F .text	00000124 terminalTask::getCommand()
2007c594 g     O .bss	00000004 g_adc_mutex
0001a6d4 g     F .text	00000038 vApplicationStackOverflowHook
0001c28c  w    F .text	00000002 .hidden __aeabi_ldiv0
00019fe8 g     F .text	000000b4 vTaskSuspend
00022c28 g     F .text	000001d0 .hidden __divdf3
0001c394 g     F .text	00000078 __sfp
0002172e g     F .text	00000034 __copybits
0001b468 g     F .text	00000004 std::type_info::__is_pointer_p() const
00019ca8 g     F .text	0000000c uxTaskGetNumberOfTasks
00011390 g     F .text	00000134 getFileHandler(str&, CharDev&, void*)
00011d18  w    F .text	0000001c SingletonTemplate<LED>::getInstance()
00010148  w    F .text	00000010 BOD_IRQHandler
0001bb94 g     F .text	00000024 .hidden __aeabi_ui2f
2007c008 g     O .data	00000040 g_can_structs
0001f594 g     F .text	00000056 _vsnprintf_r
000229d4 g     F .text	00000254 .hidden __muldf3
0001e094 g     F .text	00000022 __sread
00017084 g     F .text	0000003c CommandProcessor::prepareCmdParam(str&, char const*)
00014dd8 g     F .text	00000052 get_fattime
000180a4 g     F .text	0000001c delay_us
00018fc0  w    F .text	00000012 UartDev::~UartDev()
000136b8 g     F .text	00000038 nordic_set_crc
0001aec8 g     F .text	0000001a uart0_puts
00018a28  w    F .text	00000014 Uart2::~Uart2()
00018c08 g     F .text	00000020 CharDev::CharDev()
00010204 g     F .text	00000004 __malloc_lock
00025848 g     O .text	0000002c vtable for __cxxabiv1::__class_type_info
0002063c g     F .text	00000054 _fflush_r
00013b28 g     F .text	00000010 wireless_get_ack_pkt
00018028 g     F .text	00000022 str::insertAtEnd(char const*)
000217a6 g     F .text	0000001c _calloc_r
00018dc4 g     F .text	00000090 I2C_Base::init(unsigned long, unsigned long)
0001a788 g     F .text	00000014 sys_get_boot_time
000258a4 g     O .text	00000020 __sf_fake_stdin
0001f284 g     F .text	00000002 __tz_lock
0001341c g     F .text	00000014 mesh_get_stats
0001f854 g     F .text	0000004c asctime_r
00013b18 g     F .text	00000010 wireless_get_rx_pkt
0001c4cc g     F .text	00000024 localtime
0001c7ba g     F .text	00000010 memset
0001016a g     F .text	00000016 data_init(unsigned int, unsigned int, unsigned int)
000129a8 g     F .text	00000050 main
00025354  w    O .text	0000001c typeinfo name for SingletonTemplate<Uart0>
000180ce g     F .text	00000022 delay_ms
00017fb6 g     F .text	0000000e str::reserve(int)
00013572 g     F .text	0000000e nordic_is_tx_fifo_empty
00013d9e g     F .text	00000004 Switches::init()
00013e34 g     F .text	000000f4 Storage::copy(char const*, char const*, unsigned int*, unsigned int*, unsigned int*)
0001028c g     F .text	000000b8 sys_get_mem_info
2007c354  w    O .bss	00000004 SingletonTemplate<IR_Sensor>::mpSingletonInstance
000135e8 g     F .text	0000000c nordic_flush_tx_fifo
0001bbc8 g     F .text	0000007c .hidden __aeabi_l2f
0001dbc8 g     F .text	00000050 srand
00017b70 g     F .text	00000034 scheduler_task::scheduler_task(char const*, unsigned long, unsigned char, void*)
000191b8 g     F .text	00000028 UartDev::UartDev(unsigned int*)
00018d74 g     F .text	00000050 I2C_Base::I2C_Base(LPC_I2C_TypeDef*)
0001630e g     F .text	0000008c f_sync
00010148  w    F .text	00000010 WDT_IRQHandler
00013ca8 g     F .text	00000018 LED_Display::setRightDigit(char)
00013100 g     F .text	000002c4 mesh_service
000192c4 g     F .text	00000030 vListInsert
000126b8  w    F .text	00000020 SingletonTemplate<Uart0>::getInstance()
0001e116 g     F .text	00000008 __sclose
00010288 g     F .text	00000004 operator delete[](void*)
00017d28 g     F .text	0000000e str::containsIgnoreCase(char const*) const
2007c328  w    O .bss	00000004 guard variable for Storage::getSDDrive()::pSDCardDrive
0001f084 g     F .text	00000024 _strtol_r
0001b988 g     F .text	0000009e .hidden __truncdfsf2
0001815c g     F .text	00000074 adc0_init
00020cf0 g     F .text	00000078 _findenv_r
00025d3c g       .text	00000000 __init_array_end
0001a580 g     F .text	00000024 vPortSVCHandler
0001fa00 g     F .text	00000b30 _dtoa_r
0001cd78 g     F .text	000000bc _malloc_r
0001f70c g     F .text	0000001a __ascii_wctomb
0001f0d4 g     F .text	00000028 time
00012f0c g     F .text	00000050 mesh_send_formed_pkt
000169e8 g     F .text	000004ec f_mkfs
0001b8ec g     F .text	0000005a .hidden __aeabi_l2d
00013d38 g     F .text	0000005c LED::setAll(unsigned char)
00017da8 g     F .text	00000038 str::beginsWithWholeWordIgnoreCase(char const*, char) const
00015e4c g     F .text	0000007c f_mount
00019ea8 g     F .text	00000058 vTaskDelayUntil
00022820 g     F .text	00000072 __submore
0002297a g     F .text	00000002 __env_unlock
00025874 g     O .text	0000000c typeinfo for __cxxabiv1::__class_type_info
00013bdc g     F .text	0000001c IR_Sensor::storeIrCode(unsigned long)
0001c40c g     F .text	00000038 _fwalk
00012620 g     F .text	00000098 terminalTask::run(void*)
00013fb0 g     F .text	00000048 Storage::append(char const*, void const*, unsigned int, unsigned int)
0001650c g     F .text	00000088 f_opendir
00019864 g     F .text	00000064 xQueueReceiveFromISR
0001bbb8 g     F .text	0000008c .hidden __aeabi_ul2f
000145e0 g     F .text	000000b4 sd_write
000194e0 g     F .text	00000032 xQueueGenericCreate
00025450  w    O .text	00000020 typeinfo for Uart3
0001bc44 g     F .text	00000168 .hidden __mulsf3
0001741c g     F .text	00000034 logger_send_flush_request
00010108  w    F .text	00000010 isr_mem_fault
00018d1c g     F .text	00000008 I2C_Base::readRegisters(unsigned char, unsigned char, unsigned char*, unsigned long)
0001f288 g     F .text	0000000c _tzset_unlocked
0001e198 g     F .text	00000014 strcmp
0001e040 g     F .text	00000054 siscanf
00019512 g     F .text	00000012 xQueueCreateCountingSemaphore
00010fa0 g     F .text	000001a4 healthHandler(str&, CharDev&, void*)
00012398 g     F .text	000000b0 terminalTask::terminalTask(unsigned char)
00017014 g     F .text	00000070 CommandProcessor::getHelpText(str&, CharDev&)
000136f0 g     F .text	00000018 nordic_power_up
00010370 g     F .text	0000000c sys_set_inchar_func
0002487f  w    O .text	0000000f typeinfo name for wirelessTask
0001549e g     F .text	000000d2 put_fat
00010148  w    F .text	00000010 QEI_IRQHandler
000100d8 g       .text	00000000 __bss_section_table
00022e08 g     F .text	0000007a .hidden __nedf2
000254a8 g     O .text	00000008 typeinfo for CharDev
000122fc  w    F .text	00000048 terminalTask::~terminalTask()
00011d5c  w    F .text	00000018 SingletonTemplate<Light_Sensor>::getInstance()
0001dad4 g     F .text	00000030 iprintf
00014096 g     F .text	0000001e ff_rel_grant
00018ab8 g     F .text	0000001c Uart3::Uart3()
0001aef8 g     F .text	00000012 __cxxabiv1::__si_class_type_info::~__si_class_type_info()
00019dcc g     F .text	000000dc xTaskResumeAll
00022098 g     F .text	000002b0 __svfiscanf_r
000163be g     F .text	0000014e f_lseek
0001dff8 g     F .text	00000048 sprintf
00018fac  w    F .text	00000014 UartDev::~UartDev()
00019bfc g     F .text	00000064 vTaskStartScheduler
0001cef4 g     F .text	00000062 __exponent
00025448  w    O .text	00000007 typeinfo name for Uart3
00013bba g     F .text	00000020 Acceleration_Sensor::init()
00018c08 g     F .text	00000020 CharDev::CharDev()
0001b590 g     F .text	00000006 __cxa_guard_release
0001f728 g     F .text	00000024 _write_r
000254c4 g     O .text	0000001c vtable for UartDev
000190bc g     F .text	0000003c UartDev::setBaudRate(unsigned int)
0001dde0 g     F .text	00000030 scanf
2007c31c  w    O .bss	00000004 SingletonTemplate<Light_Sensor>::mpSingletonInstance
0001ba28 g     F .text	0000016c .hidden __aeabi_frsub
00025804 g     O .text	0000002c vtable for __cxxabiv1::__vmi_class_type_info
00010148  w    F .text	00000010 EINT0_IRQHandler
00010364 g     F .text	0000000c sys_set_outchar_func
00014dac g     F .text	0000002c flash_chip_erase
0001df64 g     F .text	00000008 nanf
0001d3e0 g     F .text	000000ec _printf_common
000181d0 g     F .text	00000078 adc0_get_reading
2007c138 g     O .data	00000004 _impure_ptr
0001770a g     F .text	0000003c u0_dbg_printf
00020530 g     F .text	0000010c __sflush_r
0001bc44 g     F .text	00000168 .hidden __aeabi_fmul
000253a0  w    O .text	0000001c vtable for Uart0
00025d38 g       .text	00000000 __preinit_array_end
000218c0 g     F .text	000001e8 _svfiprintf_r
0001dcb0 g     F .text	00000110 __srefill_r
00014218 g     F .text	00000024 power_off
00013e10 g     F .text	00000024 I2C_Temp::getFarenheit()
0001c710 g     F .text	00000024 __ascii_mbtowc
2007c000 g       .data	00000000 _data
0001a76e g     F .text	00000006 __set_MSP
000184c0 g     F .text	00000014 I2C2::I2C2()
00021560 g     F .text	00000048 __ulp
00012714 g     F .text	0000027c terminalTask::taskEntry()
00017bbc g     F .text	0000002a str::str(char*, int)
00018aa4  w    F .text	00000012 Uart3::~Uart3()
00018a3c  w    F .text	00000012 Uart2::~Uart2()
0001a190 g     F .text	0000000c vTaskMissedYield
00013588 g     F .text	0000000c nordic_queue_tx_fifo
000185e4  w    F .text	00000014 NordicStream::~NordicStream()
00024864 g     O .text	0000000c typeinfo for terminalTask
2007c788 g       .bss	00000000 _pvHeapStart
0001aeb0 g     F .text	00000018 uart0_putchar
000100e0 g       .text	00000000 __section_table_end
0001cc68 g     F .text	00000014 mallinfo
000176ec g     F .text	0000001e u0_dbg_put
00017c98 g     F .text	00000010 str::compareToIgnoreCase(char const*) const
000190f8 g     F .text	000000c0 UartDev::handleInterrupt()
00018d5c g     F .text	00000016 I2C_Base::checkDeviceResponse(unsigned char)
0001f594 g     F .text	00000056 _vsniprintf_r
000198c8 g     F .text	00000012 uxQueueMessagesWaiting
00019730 g     F .text	00000134 xQueueGenericReceive
0001b948 g     F .text	00000040 .hidden __aeabi_d2uiz
00018d74 g     F .text	00000050 I2C_Base::I2C_Base(LPC_I2C_TypeDef*)
2007c77c g     O .bss	00000004 _timezone
0001c4f0 g     F .text	000001cc localtime_r
00014314 g     F .text	00000090 send_cmd
0001b4d8 g     F .text	00000014 __cxxabiv1::__class_type_info::~__class_type_info()
00018980  w    F .text	00000014 Uart0::~Uart0()
00019cb4 g     F .text	00000118 xTaskIncrementTick
00021b60 g     F .text	000002b0 __ssvfiscanf_r
00013708 g     F .text	00000016 nordic_power_down
00018700 g     F .text	00000068 rtc_settime
00017e28 g     F .text	00000038 str::eraseAfter(int, int)
2007c330  w    O .bss	00000004 guard variable for Storage::getFlashDrive()::pFlashDrive
00015364 g     F .text	00000016 clust2sect
0001b5c0 g     F .text	00000018 .hidden __aeabi_llsl
0001aacc g     F .text	00000038 sys_get_mem_info_str
00025300  w    O .text	00000008 typeinfo for SingletonTemplate<NordicStream>
00020f14 g     F .text	00000046 __swhatbuf_r
2007c0d4 g     O .data	00000004 __cxxabiv1::__terminate_handler
00017464 g     F .text	0000000c logger_get_blocked_call_count
0001a774 g     F .text	00000006 __set_BASEPRI
00022ea4 g     F .text	00000012 .hidden __aeabi_dcmpeq
0001884c g     F .text	0000001c ssp1_dma_init
00018a50 g     F .text	0000001c Uart2::Uart2()
0002579c g     O .text	0000000c typeinfo for __cxxabiv1::__si_class_type_info
00019474 g     F .text	0000006c xQueueGenericReset
000103a4 g     F .text	00000028 _write
2007c2f4 g       .data	00000000 _edata
0001b0ac g     F .text	0000028e __cxxabiv1::__vmi_class_type_info::__do_dyncast(int, __cxxabiv1::__class_type_info::__sub_kind, __cxxabiv1::__class_type_info const*, void const*, __cxxabiv1::__class_type_info const*, void const*, __cxxabiv1::__class_type_info::__dyncast_result&) const
000133c4 g     F .text	00000034 mesh_get_pnd_pkt_count
00013cf8 g     F .text	0000003a LED_Display::setNumber(char)
00013f6c g     F .text	00000044 Storage::write(char const*, void*, unsigned int, unsigned int)
00014c90 g     F .text	00000020 flash_get_page_count
0001616c g     F .text	000001a2 f_write
00017f30 g     F .text	00000004 str::operator()() const
00014bac g     F .text	00000040 flash_write_sectors
00013dbc g     F .text	00000022 I2C_Temp::init()
0001f294 g     F .text	00000300 _tzset_unlocked_r
00019a04 g     F .text	000001a4 xTaskCreate
0001f608 g     F .text	00000048 _vsscanf_r
0001bf30 g     F .text	0000003e .hidden __aeabi_f2uiz
00018c28 g     F .text	00000018 CharDev::~CharDev()
00017ca8 g     F .text	00000080 str::firstIndexOfIgnoreCase(char const*) const
0001864e g     F .text	00000022 NordicStream::putChar(char, unsigned int)
00018588 g     F .text	0000005c NordicStream::flush()
0001e0ba g     F .text	00000038 __swrite
00010280 g     F .text	00000004 operator new(unsigned int)
00015ec8 g     F .text	00000134 f_open
00017e60 g     F .text	00000028 str::erase(char const*)
0001b082  w    F .text	0000002a __cxxabiv1::__class_type_info::__find_public_src(int, void const*, __cxxabiv1::__class_type_info const*, void const*) const
00014122 g     F .text	00000038 disk_write
00014bec g     F .text	00000036 flash_ioctl
00013792 g     F .text	00000032 nordic_set_auto_transmit_options
00021e60 g     F .text	00000238 _vfiprintf_r
00010000 g     O .text	000000cc g_pfnVectors
000122d8  w    F .text	00000004 scheduler_task::regTlm()
00010c0c g     F .text	0000005c mvHandler(str&, CharDev&, void*)
0001c444 g     F .text	0000003c _fwalk_reent
0001af86 g     F .text	00000038 __cxxabiv1::__si_class_type_info::__do_find_public_src(int, void const*, __cxxabiv1::__class_type_info const*, void const*) const
0001bb94 g     F .text	00000024 .hidden __floatunsisf
000214a2 g     F .text	000000be __mdiff
00018c28 g     F .text	00000018 CharDev::~CharDev()
00022f34 g     F .text	0000004e .hidden __aeabi_d2iz
0001b59c g     F .text	00000008 __cxxabiv1::__terminate(void (*)())
00014070 g     F .text	00000026 ff_req_grant
0001f650 g     F .text	00000014 vsiscanf
2007c348  w    O .bss	00000004 SingletonTemplate<Switches>::mpSingletonInstance
0001037c g     F .text	00000010 _kill
00017f4e g     F .text	0000004c str::reAllocateMem(int)
00010148  w    F .text	00000010 DMA_IRQHandler
000122f8 g     F .text	00000004 terminalTask::regTlm()
00019f00 g     F .text	00000030 vTaskDelay
000126d8  w    F .text	00000018 Uart0::putcharIntrDriven(char)
00017a28 g     F .text	000000ec scheduler_init_all(bool)
000258c4 g     O .text	00000020 __sf_fake_stdout
0001dff8 g     F .text	00000048 siprintf
0002266c g     F .text	00000060 __sccl
0001c29e g     F .text	00000008 atoi
0001042c g     F .text	0000007a _gettimeofday
0001a338 g     F .text	00000020 xTaskGetSchedulerState
00025aed g     O .text	00000101 _ctype_
000103cc g     F .text	0000002c _read
00025d38 g       .text	00000000 __init_array_start
0001c28c  w    F .text	00000002 .hidden __aeabi_idiv0
00010644 g     F .text	000000c4 timeHandler(str&, CharDev&, void*)
00022f08 g     F .text	0000002c .hidden __unorddf2
0002420c  w    O .text	00000008 typeinfo for scheduler_task
00017488 g     F .text	000000d4 logger_init
00016776 g     F .text	00000152 f_mkdir
0001bf30 g     F .text	0000003e .hidden __fixunssfsi
00017c1c g     F .text	0000001c str::scanf(char const*, ...)
0001038c g     F .text	00000010 _exit
00010128  w    F .text	00000010 isr_usage_fault
00013d94 g     F .text	00000004 Light_Sensor::init()
00020f5c g     F .text	00000078 __smakebuf_r
00017faa g     F .text	0000000c str::str(int)
0001e1bc g     F .text	00000010 strlen
000140ea g     F .text	00000038 disk_read
0001a550 g     F .text	00000024 pxPortInitialiseStack
0001d4cc g     F .text	0000024c _printf_i
0001c6d4 g     F .text	00000006 __locale_ctype_ptr_l
00025830 g     O .text	00000008 typeinfo for std::type_info
00018b24 g     F .text	0000001c CharDev::putline(char const*, unsigned int)
0001f118 g     F .text	0000001c toupper
00022e94 g     F .text	00000010 .hidden __aeabi_cdcmpeq
00022df8 g     F .text	0000008a .hidden __gedf2
00018ad4 g     F .text	00000024 UART3_IRQHandler
0002074a g     F .text	00000440 __gethex
2007c754 g     O .bss	00000004 __malloc_sbrk_start
00010148  w    F .text	00000010 MCPWM_IRQHandler
0001175c g     F .text	00000160 wirelessHandler(str&, CharDev&, void*)
0001f8c0 g     F .text	00000028 div
0001e17c g     F .text	0000001c strchr
000165f2 g     F .text	000000ca f_getfree
0001a12c g     F .text	00000018 vTaskSetTimeOutState
00013ff8 g     F .text	0000003c ff_convert
0001b8a0 g     F .text	0000003a .hidden __aeabi_f2d
00018064 g     F .text	0000003c str::copyFrom(char const*)
0001a5a8 g     F .text	00000020 vPortEnterCritical
00017e88 g     F .text	0000002a str::eraseFirstWords(int, char)
000143a4 g     F .text	00000024 sd_update_card_status
00014c68 g     F .text	00000028 flash_read_permanent_id
00014d58 g     F .text	00000054 flash_get_page_write_count
2007c758 g     O .bss	00000004 __malloc_free_list
00017f9a  w    F .text	00000010 str::init(int)
2007c350  w    O .bss	00000004 SingletonTemplate<LED_Display>::mpSingletonInstance
000135ac g     F .text	00000010 nordic_rx_to_Stanby1
000198da g     F .text	00000004 uxQueueMessagesWaitingFromISR
00022978 g     F .text	00000002 __env_lock
00018838 g     F .text	00000014 rtc_get_date_time_str
0001b5e0 g     F .text	0000027a .hidden __subdf3
00021e60 g     F .text	00000238 _vfprintf_r
00025d38 g       .text	00000000 __preinit_array_start
000241fb  w    O .text	00000011 typeinfo name for scheduler_task
0002119e g     F .text	0000005a __lo0bits
00022098 g     F .text	000002b0 __svfscanf_r
0001f134 g     F .text	00000150 __tzcalc_limits
0001a4e4 g     F .text	00000028 vRunTimeStatIsrEntry
00022894 g     F .text	000000e4 _ungetc_r
0001b46c g     F .text	0000002c std::type_info::operator==(std::type_info const&) const
0001b578 g     F .text	00000018 __cxa_guard_acquire
00010148  w    F .text	00000010 ENET_IRQHandler
00010148  w    F .text	00000010 USBAct_IRQHandler
0001962c g     F .text	00000024 xQueueCreateMutex
0001ba34 g     F .text	00000160 .hidden __addsf3
2007c13c g     O .data	0000016c __global_locale
0001376e g     F .text	00000024 nordic_set_power_level
00010138  w    F .text	00000010 isr_debug_mon
000196cc g     F .text	00000062 xQueueGiveFromISR
00020d9c g     F .text	00000008 __gettzinfo
0001dfc0 g     F .text	00000010 raise
00010428 g     F .text	00000004 _close
0001c700 g     F .text	00000010 free
00025380  w    O .text	00000020 typeinfo for Uart0
0001d718  w    F .text	000003bc _scanf_float
00014694 g     F .text	00000234 sd_ioctl
0002106c g     F .text	00000076 __multadd
0001b4ec g     F .text	00000012 __cxxabiv1::__class_type_info::~__class_type_info()
0002103e g     F .text	0000002e _Bfree
0001a6bc g     F .text	00000014 rts_not_full_trace_reset
000191e0 g     F .text	000000b0 UartDev::init(unsigned int, unsigned int, int, int)
00020d68 g     F .text	0000000e _getenv_r
0001a9d4 g     F .text	00000030 lpc_pconp
0001a6d0 g     F .text	00000004 vApplicationIdleHook



Disassembly of section .text:

00010000 <g_pfnVectors>:
   10000:	e0 3f 08 20 95 01 01 00 fb 00 01 00 e1 00 01 00     .?. ............
   10010:	09 01 01 00 19 01 01 00 29 01 01 00 00 00 00 00     ........).......
	...
   1002c:	81 a5 01 00 39 01 01 00 00 00 00 00 e1 a5 01 00     ....9...........
   1003c:	59 01 01 00 c1 ab 01 00 c1 ab 01 00 c1 ab 01 00     Y...............
   1004c:	c1 ab 01 00 c1 ab 01 00 c1 ab 01 00 c1 ab 01 00     ................
   1005c:	c1 ab 01 00 c1 ab 01 00 c1 ab 01 00 c1 ab 01 00     ................
   1006c:	c1 ab 01 00 c1 ab 01 00 c1 ab 01 00 c1 ab 01 00     ................
   1007c:	c1 ab 01 00 c1 ab 01 00 c1 ab 01 00 c1 ab 01 00     ................
   1008c:	c1 ab 01 00 c1 ab 01 00 c1 ab 01 00 c1 ab 01 00     ................
   1009c:	c1 ab 01 00 c1 ab 01 00 c1 ab 01 00 c1 ab 01 00     ................
   100ac:	c1 ab 01 00 c1 ab 01 00 c1 ab 01 00 c1 ab 01 00     ................
   100bc:	c1 ab 01 00 c1 ab 01 00 c1 ab 01 00 c1 ab 01 00     ................

000100cc <__data_section_table>:
__data_section_table():
   100cc:	00025d44 	.word	0x00025d44
   100d0:	2007c000 	.word	0x2007c000
   100d4:	000002f4 	.word	0x000002f4

000100d8 <__bss_section_table>:
__bss_section_table():
   100d8:	2007c2f8 	.word	0x2007c2f8
   100dc:	00000490 	.word	0x00000490

000100e0 <isr_hard_fault>:
__section_table_end():
   100e0:	2004      	movs	r0, #4
   100e2:	4671      	mov	r1, lr
   100e4:	4208      	tst	r0, r1
   100e6:	d003      	beq.n	100f0 <_MSP>
   100e8:	f3ef 8009 	mrs	r0, PSP
   100ec:	f00a bd86 	b.w	1abfc <isr_hard_fault_handler>

000100f0 <_MSP>:
_MSP():
   100f0:	f3ef 8008 	mrs	r0, MSP
   100f4:	f00a bd82 	b.w	1abfc <isr_hard_fault_handler>
   100f8:	4770      	bx	lr

000100fa <isr_nmi>:
isr_nmi():
   100fa:	b508      	push	{r3, lr}
   100fc:	4801      	ldr	r0, [pc, #4]	; (10104 <isr_nmi+0xa>)
   100fe:	f007 faf5 	bl	176ec <u0_dbg_put>
   10102:	e7fe      	b.n	10102 <isr_nmi+0x8>
   10104:	000256f6 	.word	0x000256f6

00010108 <isr_mem_fault>:
isr_mem_fault():
   10108:	b508      	push	{r3, lr}
   1010a:	4802      	ldr	r0, [pc, #8]	; (10114 <isr_mem_fault+0xc>)
   1010c:	f007 faee 	bl	176ec <u0_dbg_put>
   10110:	e7fe      	b.n	10110 <isr_mem_fault+0x8>
   10112:	bf00      	nop
   10114:	00025701 	.word	0x00025701

00010118 <isr_bus_fault>:
isr_bus_fault():
   10118:	b508      	push	{r3, lr}
   1011a:	4802      	ldr	r0, [pc, #8]	; (10124 <isr_bus_fault+0xc>)
   1011c:	f007 fae6 	bl	176ec <u0_dbg_put>
   10120:	e7fe      	b.n	10120 <isr_bus_fault+0x8>
   10122:	bf00      	nop
   10124:	0002570c 	.word	0x0002570c

00010128 <isr_usage_fault>:
isr_usage_fault():
   10128:	b508      	push	{r3, lr}
   1012a:	4802      	ldr	r0, [pc, #8]	; (10134 <isr_usage_fault+0xc>)
   1012c:	f007 fade 	bl	176ec <u0_dbg_put>
   10130:	e7fe      	b.n	10130 <isr_usage_fault+0x8>
   10132:	bf00      	nop
   10134:	00025717 	.word	0x00025717

00010138 <isr_debug_mon>:
isr_debug_mon():
   10138:	b508      	push	{r3, lr}
   1013a:	4802      	ldr	r0, [pc, #8]	; (10144 <isr_debug_mon+0xc>)
   1013c:	f007 fad6 	bl	176ec <u0_dbg_put>
   10140:	e7fe      	b.n	10140 <isr_debug_mon+0x8>
   10142:	bf00      	nop
   10144:	00025724 	.word	0x00025724

00010148 <isr_default_handler>:
USBAct_IRQHandler():
   10148:	b508      	push	{r3, lr}
   1014a:	4802      	ldr	r0, [pc, #8]	; (10154 <isr_default_handler+0xc>)
   1014c:	f007 face 	bl	176ec <u0_dbg_put>
   10150:	e7fe      	b.n	10150 <isr_default_handler+0x8>
   10152:	bf00      	nop
   10154:	00025732 	.word	0x00025732

00010158 <isr_sys_tick>:
isr_sys_tick():
   10158:	b508      	push	{r3, lr}
   1015a:	f00a f9c3 	bl	1a4e4 <vRunTimeStatIsrEntry>
   1015e:	f00a fa61 	bl	1a624 <xPortSysTickHandler>
   10162:	e8bd 4008 	ldmia.w	sp!, {r3, lr}
   10166:	f00a b9d1 	b.w	1a50c <vRunTimeStatIsrExit>

0001016a <data_init(unsigned int, unsigned int, unsigned int)>:
_Z9data_initjjj():
   1016a:	460b      	mov	r3, r1
   1016c:	b510      	push	{r4, lr}
   1016e:	1a40      	subs	r0, r0, r1
   10170:	1a5c      	subs	r4, r3, r1
   10172:	42a2      	cmp	r2, r4
   10174:	d903      	bls.n	1017e <data_init(unsigned int, unsigned int, unsigned int)+0x14>
   10176:	58c4      	ldr	r4, [r0, r3]
   10178:	f843 4b04 	str.w	r4, [r3], #4
   1017c:	e7f8      	b.n	10170 <data_init(unsigned int, unsigned int, unsigned int)+0x6>
   1017e:	bd10      	pop	{r4, pc}

00010180 <bss_init(unsigned int, unsigned int)>:
_Z8bss_initjj():
   10180:	4603      	mov	r3, r0
   10182:	b510      	push	{r4, lr}
   10184:	2200      	movs	r2, #0
   10186:	1a1c      	subs	r4, r3, r0
   10188:	42a1      	cmp	r1, r4
   1018a:	d902      	bls.n	10192 <bss_init(unsigned int, unsigned int)+0x12>
   1018c:	f843 2b04 	str.w	r2, [r3], #4
   10190:	e7f9      	b.n	10186 <bss_init(unsigned int, unsigned int)+0x6>
   10192:	bd10      	pop	{r4, pc}

00010194 <isr_reset>:
isr_reset():
   10194:	4816      	ldr	r0, [pc, #88]	; (101f0 <isr_reset+0x5c>)
   10196:	f00a fae7 	bl	1a768 <__set_PSP>
   1019a:	4815      	ldr	r0, [pc, #84]	; (101f0 <isr_reset+0x5c>)
   1019c:	f00a fae7 	bl	1a76e <__set_MSP>
   101a0:	4c14      	ldr	r4, [pc, #80]	; (101f4 <isr_reset+0x60>)
   101a2:	4d15      	ldr	r5, [pc, #84]	; (101f8 <isr_reset+0x64>)
   101a4:	42ac      	cmp	r4, r5
   101a6:	d301      	bcc.n	101ac <isr_reset+0x18>
   101a8:	4d14      	ldr	r5, [pc, #80]	; (101fc <isr_reset+0x68>)
   101aa:	e007      	b.n	101bc <isr_reset+0x28>
   101ac:	e894 0003 	ldmia.w	r4, {r0, r1}
   101b0:	340c      	adds	r4, #12
   101b2:	f854 2c04 	ldr.w	r2, [r4, #-4]
   101b6:	f7ff ffd8 	bl	1016a <data_init(unsigned int, unsigned int, unsigned int)>
   101ba:	e7f3      	b.n	101a4 <isr_reset+0x10>
   101bc:	42ac      	cmp	r4, r5
   101be:	d206      	bcs.n	101ce <isr_reset+0x3a>
   101c0:	f854 0b08 	ldr.w	r0, [r4], #8
   101c4:	f854 1c04 	ldr.w	r1, [r4, #-4]
   101c8:	f7ff ffda 	bl	10180 <bss_init(unsigned int, unsigned int)>
   101cc:	e7f6      	b.n	101bc <isr_reset+0x28>
   101ce:	f00c f957 	bl	1c480 <__libc_init_array>
   101d2:	f00a fae3 	bl	1a79c <low_level_init()>
   101d6:	f001 fdd9 	bl	11d8c <high_level_init()>
   101da:	f002 fbe5 	bl	129a8 <main>
   101de:	f44f 4016 	mov.w	r0, #38400	; 0x9600
   101e2:	f00a fe29 	bl	1ae38 <uart0_init>
   101e6:	4806      	ldr	r0, [pc, #24]	; (10200 <isr_reset+0x6c>)
   101e8:	f007 fa80 	bl	176ec <u0_dbg_put>
   101ec:	e7fe      	b.n	101ec <isr_reset+0x58>
   101ee:	bf00      	nop
   101f0:	20083fe0 	.word	0x20083fe0
   101f4:	000100cc 	.word	0x000100cc
   101f8:	000100d8 	.word	0x000100d8
   101fc:	000100e0 	.word	0x000100e0
   10200:	00025746 	.word	0x00025746

00010204 <__malloc_lock>:
__malloc_lock():
   10204:	f00a b9d0 	b.w	1a5a8 <vPortEnterCritical>

00010208 <__malloc_unlock>:
__malloc_unlock():
   10208:	f00a b9de 	b.w	1a5c8 <vPortExitCritical>

0001020c <_sbrk>:
_sbrk():
   1020c:	4b14      	ldr	r3, [pc, #80]	; (10260 <_sbrk+0x54>)
   1020e:	b510      	push	{r4, lr}
   10210:	681a      	ldr	r2, [r3, #0]
   10212:	4601      	mov	r1, r0
   10214:	b912      	cbnz	r2, 1021c <_sbrk+0x10>
   10216:	f04f 5280 	mov.w	r2, #268435456	; 0x10000000
   1021a:	601a      	str	r2, [r3, #0]
   1021c:	4c11      	ldr	r4, [pc, #68]	; (10264 <_sbrk+0x58>)
   1021e:	6818      	ldr	r0, [r3, #0]
   10220:	6824      	ldr	r4, [r4, #0]
   10222:	1842      	adds	r2, r0, r1
   10224:	4294      	cmp	r4, r2
   10226:	601a      	str	r2, [r3, #0]
   10228:	d207      	bcs.n	1023a <_sbrk+0x2e>
   1022a:	4c0f      	ldr	r4, [pc, #60]	; (10268 <_sbrk+0x5c>)
   1022c:	42a2      	cmp	r2, r4
   1022e:	d804      	bhi.n	1023a <_sbrk+0x2e>
   10230:	4a0e      	ldr	r2, [pc, #56]	; (1026c <_sbrk+0x60>)
   10232:	480b      	ldr	r0, [pc, #44]	; (10260 <_sbrk+0x54>)
   10234:	188c      	adds	r4, r1, r2
   10236:	6004      	str	r4, [r0, #0]
   10238:	4610      	mov	r0, r2
   1023a:	4a0d      	ldr	r2, [pc, #52]	; (10270 <_sbrk+0x64>)
   1023c:	681b      	ldr	r3, [r3, #0]
   1023e:	6812      	ldr	r2, [r2, #0]
   10240:	4293      	cmp	r3, r2
   10242:	bf22      	ittt	cs
   10244:	4b06      	ldrcs	r3, [pc, #24]	; (10260 <_sbrk+0x54>)
   10246:	2000      	movcs	r0, #0
   10248:	601a      	strcs	r2, [r3, #0]
   1024a:	b139      	cbz	r1, 1025c <_sbrk+0x50>
   1024c:	4a09      	ldr	r2, [pc, #36]	; (10274 <_sbrk+0x68>)
   1024e:	6813      	ldr	r3, [r2, #0]
   10250:	3301      	adds	r3, #1
   10252:	6013      	str	r3, [r2, #0]
   10254:	4b08      	ldr	r3, [pc, #32]	; (10278 <_sbrk+0x6c>)
   10256:	6018      	str	r0, [r3, #0]
   10258:	4b08      	ldr	r3, [pc, #32]	; (1027c <_sbrk+0x70>)
   1025a:	6019      	str	r1, [r3, #0]
   1025c:	bd10      	pop	{r4, pc}
   1025e:	bf00      	nop
   10260:	2007c2fc 	.word	0x2007c2fc
   10264:	2007c304 	.word	0x2007c304
   10268:	2007bfff 	.word	0x2007bfff
   1026c:	2007c788 	.word	0x2007c788
   10270:	2007c308 	.word	0x2007c308
   10274:	2007c30c 	.word	0x2007c30c
   10278:	2007c2f8 	.word	0x2007c2f8
   1027c:	2007c300 	.word	0x2007c300

00010280 <operator new(unsigned int)>:
_Znwj():
   10280:	f00c ba36 	b.w	1c6f0 <malloc>

00010284 <operator delete(void*)>:
_ZdlPv():
   10284:	f00c ba3c 	b.w	1c700 <free>

00010288 <operator delete[](void*)>:
_ZdaPv():
   10288:	f00c ba3a 	b.w	1c700 <free>

0001028c <sys_get_mem_info>:
sys_get_mem_info():
   1028c:	b530      	push	{r4, r5, lr}
   1028e:	4604      	mov	r4, r0
   10290:	b08b      	sub	sp, #44	; 0x2c
   10292:	4668      	mov	r0, sp
   10294:	f00c fce8 	bl	1cc68 <mallinfo>
   10298:	4b22      	ldr	r3, [pc, #136]	; (10324 <sys_get_mem_info+0x98>)
   1029a:	9a07      	ldr	r2, [sp, #28]
   1029c:	6023      	str	r3, [r4, #0]
   1029e:	9b08      	ldr	r3, [sp, #32]
   102a0:	4d21      	ldr	r5, [pc, #132]	; (10328 <sys_get_mem_info+0x9c>)
   102a2:	60a3      	str	r3, [r4, #8]
   102a4:	6062      	str	r2, [r4, #4]
   102a6:	4921      	ldr	r1, [pc, #132]	; (1032c <sys_get_mem_info+0xa0>)
   102a8:	4b21      	ldr	r3, [pc, #132]	; (10330 <sys_get_mem_info+0xa4>)
   102aa:	b952      	cbnz	r2, 102c2 <sys_get_mem_info+0x36>
   102ac:	680a      	ldr	r2, [r1, #0]
   102ae:	6818      	ldr	r0, [r3, #0]
   102b0:	4282      	cmp	r2, r0
   102b2:	bf8a      	itet	hi
   102b4:	f102 4260 	addhi.w	r2, r2, #3758096384	; 0xe0000000
   102b8:	f102 4270 	addls.w	r2, r2, #4026531840	; 0xf0000000
   102bc:	f5a2 22e8 	subhi.w	r2, r2, #475136	; 0x74000
   102c0:	6062      	str	r2, [r4, #4]
   102c2:	6862      	ldr	r2, [r4, #4]
   102c4:	681b      	ldr	r3, [r3, #0]
   102c6:	f5b2 3f80 	cmp.w	r2, #65536	; 0x10000
   102ca:	bf82      	ittt	hi
   102cc:	f102 4270 	addhi.w	r2, r2, #4026531840	; 0xf0000000
   102d0:	f5a2 22e8 	subhi.w	r2, r2, #475136	; 0x74000
   102d4:	6062      	strhi	r2, [r4, #4]
   102d6:	2200      	movs	r2, #0
   102d8:	60e2      	str	r2, [r4, #12]
   102da:	680a      	ldr	r2, [r1, #0]
   102dc:	4293      	cmp	r3, r2
   102de:	d306      	bcc.n	102ee <sys_get_mem_info+0x62>
   102e0:	1a99      	subs	r1, r3, r2
   102e2:	f1c5 5300 	rsb	r3, r5, #536870912	; 0x20000000
   102e6:	f503 2304 	add.w	r3, r3, #540672	; 0x84000
   102ea:	440b      	add	r3, r1
   102ec:	e00b      	b.n	10306 <sys_get_mem_info+0x7a>
   102ee:	4b11      	ldr	r3, [pc, #68]	; (10334 <sys_get_mem_info+0xa8>)
   102f0:	681b      	ldr	r3, [r3, #0]
   102f2:	4293      	cmp	r3, r2
   102f4:	d908      	bls.n	10308 <sys_get_mem_info+0x7c>
   102f6:	1a99      	subs	r1, r3, r2
   102f8:	f1c5 5300 	rsb	r3, r5, #536870912	; 0x20000000
   102fc:	f503 23f8 	add.w	r3, r3, #507904	; 0x7c000
   10300:	440b      	add	r3, r1
   10302:	2b00      	cmp	r3, #0
   10304:	dd00      	ble.n	10308 <sys_get_mem_info+0x7c>
   10306:	60e3      	str	r3, [r4, #12]
   10308:	4620      	mov	r0, r4
   1030a:	4b0b      	ldr	r3, [pc, #44]	; (10338 <sys_get_mem_info+0xac>)
   1030c:	61e2      	str	r2, [r4, #28]
   1030e:	681b      	ldr	r3, [r3, #0]
   10310:	61a3      	str	r3, [r4, #24]
   10312:	4b0a      	ldr	r3, [pc, #40]	; (1033c <sys_get_mem_info+0xb0>)
   10314:	681b      	ldr	r3, [r3, #0]
   10316:	6163      	str	r3, [r4, #20]
   10318:	4b09      	ldr	r3, [pc, #36]	; (10340 <sys_get_mem_info+0xb4>)
   1031a:	681b      	ldr	r3, [r3, #0]
   1031c:	6123      	str	r3, [r4, #16]
   1031e:	b00b      	add	sp, #44	; 0x2c
   10320:	bd30      	pop	{r4, r5, pc}
   10322:	bf00      	nop
   10324:	00000788 	.word	0x00000788
   10328:	2007c788 	.word	0x2007c788
   1032c:	2007c2fc 	.word	0x2007c2fc
   10330:	2007c304 	.word	0x2007c304
   10334:	2007c308 	.word	0x2007c308
   10338:	2007c2f8 	.word	0x2007c2f8
   1033c:	2007c300 	.word	0x2007c300
   10340:	2007c30c 	.word	0x2007c30c

00010344 <_GLOBAL__sub_I__sbrk>:
_GLOBAL__sub_I__sbrk():
   10344:	4a03      	ldr	r2, [pc, #12]	; (10354 <_GLOBAL__sub_I__sbrk+0x10>)
   10346:	4b04      	ldr	r3, [pc, #16]	; (10358 <_GLOBAL__sub_I__sbrk+0x14>)
   10348:	601a      	str	r2, [r3, #0]
   1034a:	4a04      	ldr	r2, [pc, #16]	; (1035c <_GLOBAL__sub_I__sbrk+0x18>)
   1034c:	4b04      	ldr	r3, [pc, #16]	; (10360 <_GLOBAL__sub_I__sbrk+0x1c>)
   1034e:	601a      	str	r2, [r3, #0]
   10350:	4770      	bx	lr
   10352:	bf00      	nop
   10354:	10008000 	.word	0x10008000
   10358:	2007c304 	.word	0x2007c304
   1035c:	20084000 	.word	0x20084000
   10360:	2007c308 	.word	0x2007c308

00010364 <sys_set_outchar_func>:
sys_set_outchar_func():
   10364:	4b01      	ldr	r3, [pc, #4]	; (1036c <sys_set_outchar_func+0x8>)
   10366:	6018      	str	r0, [r3, #0]
   10368:	4770      	bx	lr
   1036a:	bf00      	nop
   1036c:	2007c314 	.word	0x2007c314

00010370 <sys_set_inchar_func>:
sys_set_inchar_func():
   10370:	4b01      	ldr	r3, [pc, #4]	; (10378 <sys_set_inchar_func+0x8>)
   10372:	6018      	str	r0, [r3, #0]
   10374:	4770      	bx	lr
   10376:	bf00      	nop
   10378:	2007c310 	.word	0x2007c310

0001037c <_kill>:
_kill():
   1037c:	b508      	push	{r3, lr}
   1037e:	4802      	ldr	r0, [pc, #8]	; (10388 <_kill+0xc>)
   10380:	f00d fc1a 	bl	1dbb8 <puts>
   10384:	e7fe      	b.n	10384 <_kill+0x8>
   10386:	bf00      	nop
   10388:	00022f84 	.word	0x00022f84

0001038c <_exit>:
_exit():
   1038c:	b508      	push	{r3, lr}
   1038e:	4802      	ldr	r0, [pc, #8]	; (10398 <_exit+0xc>)
   10390:	f00d fc12 	bl	1dbb8 <puts>
   10394:	e7fe      	b.n	10394 <_exit+0x8>
   10396:	bf00      	nop
   10398:	00022f9e 	.word	0x00022f9e

0001039c <_getpid>:
_getpid():
   1039c:	2000      	movs	r0, #0
   1039e:	4770      	bx	lr

000103a0 <_init>:
_init():
   103a0:	2001      	movs	r0, #1
   103a2:	4770      	bx	lr

000103a4 <_write>:
_write():
   103a4:	b5f8      	push	{r3, r4, r5, r6, r7, lr}
   103a6:	4b08      	ldr	r3, [pc, #32]	; (103c8 <_write+0x24>)
   103a8:	4616      	mov	r6, r2
   103aa:	681a      	ldr	r2, [r3, #0]
   103ac:	460f      	mov	r7, r1
   103ae:	461c      	mov	r4, r3
   103b0:	b142      	cbz	r2, 103c4 <_write+0x20>
   103b2:	460d      	mov	r5, r1
   103b4:	1beb      	subs	r3, r5, r7
   103b6:	429e      	cmp	r6, r3
   103b8:	dd04      	ble.n	103c4 <_write+0x20>
   103ba:	6823      	ldr	r3, [r4, #0]
   103bc:	f815 0b01 	ldrb.w	r0, [r5], #1
   103c0:	4798      	blx	r3
   103c2:	e7f7      	b.n	103b4 <_write+0x10>
   103c4:	4630      	mov	r0, r6
   103c6:	bdf8      	pop	{r3, r4, r5, r6, r7, pc}
   103c8:	2007c314 	.word	0x2007c314

000103cc <_read>:
_read():
   103cc:	b5f8      	push	{r3, r4, r5, r6, r7, lr}
   103ce:	4b09      	ldr	r3, [pc, #36]	; (103f4 <_read+0x28>)
   103d0:	460f      	mov	r7, r1
   103d2:	6818      	ldr	r0, [r3, #0]
   103d4:	4616      	mov	r6, r2
   103d6:	461c      	mov	r4, r3
   103d8:	b158      	cbz	r0, 103f2 <_read+0x26>
   103da:	460d      	mov	r5, r1
   103dc:	1beb      	subs	r3, r5, r7
   103de:	429e      	cmp	r6, r3
   103e0:	dd05      	ble.n	103ee <_read+0x22>
   103e2:	6823      	ldr	r3, [r4, #0]
   103e4:	2000      	movs	r0, #0
   103e6:	4798      	blx	r3
   103e8:	f805 0b01 	strb.w	r0, [r5], #1
   103ec:	e7f6      	b.n	103dc <_read+0x10>
   103ee:	ea26 70e6 	bic.w	r0, r6, r6, asr #31
   103f2:	bdf8      	pop	{r3, r4, r5, r6, r7, pc}
   103f4:	2007c310 	.word	0x2007c310

000103f8 <syscalls_init>:
syscalls_init():
   103f8:	4770      	bx	lr

000103fa <_fstat>:
_fstat():
   103fa:	2000      	movs	r0, #0
   103fc:	4770      	bx	lr
   103fe:	Address 0x000103fe is out of bounds.


00010400 <_isatty>:
_isatty():
   10400:	4b07      	ldr	r3, [pc, #28]	; (10420 <_isatty+0x20>)
   10402:	681b      	ldr	r3, [r3, #0]
   10404:	689a      	ldr	r2, [r3, #8]
   10406:	4282      	cmp	r2, r0
   10408:	d007      	beq.n	1041a <_isatty+0x1a>
   1040a:	685a      	ldr	r2, [r3, #4]
   1040c:	4282      	cmp	r2, r0
   1040e:	d004      	beq.n	1041a <_isatty+0x1a>
   10410:	68db      	ldr	r3, [r3, #12]
   10412:	1a1b      	subs	r3, r3, r0
   10414:	4258      	negs	r0, r3
   10416:	4158      	adcs	r0, r3
   10418:	4770      	bx	lr
   1041a:	2001      	movs	r0, #1
   1041c:	4770      	bx	lr
   1041e:	bf00      	nop
   10420:	2007c138 	.word	0x2007c138

00010424 <_lseek>:
_lseek():
   10424:	2000      	movs	r0, #0
   10426:	4770      	bx	lr

00010428 <_close>:
_close():
   10428:	2000      	movs	r0, #0
   1042a:	4770      	bx	lr

0001042c <_gettimeofday>:
_gettimeofday():
   1042c:	b530      	push	{r4, r5, lr}
   1042e:	4604      	mov	r4, r0
   10430:	b08d      	sub	sp, #52	; 0x34
   10432:	b3a8      	cbz	r0, 104a0 <_gettimeofday+0x74>
   10434:	4668      	mov	r0, sp
   10436:	f008 f93b 	bl	186b0 <rtc_gettime>
   1043a:	f89d 3000 	ldrb.w	r3, [sp]
   1043e:	2500      	movs	r5, #0
   10440:	f003 033f 	and.w	r3, r3, #63	; 0x3f
   10444:	9303      	str	r3, [sp, #12]
   10446:	f89d 3001 	ldrb.w	r3, [sp, #1]
   1044a:	a803      	add	r0, sp, #12
   1044c:	f003 033f 	and.w	r3, r3, #63	; 0x3f
   10450:	9304      	str	r3, [sp, #16]
   10452:	f89d 3002 	ldrb.w	r3, [sp, #2]
   10456:	950b      	str	r5, [sp, #44]	; 0x2c
   10458:	f003 031f 	and.w	r3, r3, #31
   1045c:	9305      	str	r3, [sp, #20]
   1045e:	f89d 3004 	ldrb.w	r3, [sp, #4]
   10462:	f003 031f 	and.w	r3, r3, #31
   10466:	9306      	str	r3, [sp, #24]
   10468:	f89d 3005 	ldrb.w	r3, [sp, #5]
   1046c:	f003 030f 	and.w	r3, r3, #15
   10470:	3b01      	subs	r3, #1
   10472:	9307      	str	r3, [sp, #28]
   10474:	f8bd 3006 	ldrh.w	r3, [sp, #6]
   10478:	f3c3 030b 	ubfx	r3, r3, #0, #12
   1047c:	f2a3 736c 	subw	r3, r3, #1900	; 0x76c
   10480:	9308      	str	r3, [sp, #32]
   10482:	f89d 3003 	ldrb.w	r3, [sp, #3]
   10486:	f003 0307 	and.w	r3, r3, #7
   1048a:	9309      	str	r3, [sp, #36]	; 0x24
   1048c:	f8bd 3008 	ldrh.w	r3, [sp, #8]
   10490:	f3c3 030b 	ubfx	r3, r3, #0, #12
   10494:	3b01      	subs	r3, #1
   10496:	930a      	str	r3, [sp, #40]	; 0x28
   10498:	f00c fa74 	bl	1c984 <mktime>
   1049c:	e884 0021 	stmia.w	r4, {r0, r5}
   104a0:	2000      	movs	r0, #0
   104a2:	b00d      	add	sp, #52	; 0x34
   104a4:	bd30      	pop	{r4, r5, pc}
   104a6:	Address 0x000104a6 is out of bounds.


000104a8 <Storage::getFlashDrive()>:
_ZN7Storage13getFlashDriveEv():
   104a8:	b570      	push	{r4, r5, r6, lr}
   104aa:	4d0f      	ldr	r5, [pc, #60]	; (104e8 <Storage::getFlashDrive()+0x40>)
   104ac:	4e0f      	ldr	r6, [pc, #60]	; (104ec <Storage::getFlashDrive()+0x44>)
   104ae:	682c      	ldr	r4, [r5, #0]
   104b0:	f014 0401 	ands.w	r4, r4, #1
   104b4:	d115      	bne.n	104e2 <Storage::getFlashDrive()+0x3a>
   104b6:	4628      	mov	r0, r5
   104b8:	f00b f85e 	bl	1b578 <__cxa_guard_acquire>
   104bc:	b188      	cbz	r0, 104e2 <Storage::getFlashDrive()+0x3a>
   104be:	f44f 700e 	mov.w	r0, #568	; 0x238
   104c2:	f7ff fedd 	bl	10280 <operator new(unsigned int)>
   104c6:	2330      	movs	r3, #48	; 0x30
   104c8:	f880 3235 	strb.w	r3, [r0, #565]	; 0x235
   104cc:	233a      	movs	r3, #58	; 0x3a
   104ce:	f880 4234 	strb.w	r4, [r0, #564]	; 0x234
   104d2:	f880 3236 	strb.w	r3, [r0, #566]	; 0x236
   104d6:	f880 4237 	strb.w	r4, [r0, #567]	; 0x237
   104da:	6030      	str	r0, [r6, #0]
   104dc:	4628      	mov	r0, r5
   104de:	f00b f857 	bl	1b590 <__cxa_guard_release>
   104e2:	6830      	ldr	r0, [r6, #0]
   104e4:	bd70      	pop	{r4, r5, r6, pc}
   104e6:	bf00      	nop
   104e8:	2007c330 	.word	0x2007c330
   104ec:	2007c334 	.word	0x2007c334

000104f0 <Storage::getSDDrive()>:
_ZN7Storage10getSDDriveEv():
   104f0:	b570      	push	{r4, r5, r6, lr}
   104f2:	4d0f      	ldr	r5, [pc, #60]	; (10530 <Storage::getSDDrive()+0x40>)
   104f4:	4e0f      	ldr	r6, [pc, #60]	; (10534 <Storage::getSDDrive()+0x44>)
   104f6:	682b      	ldr	r3, [r5, #0]
   104f8:	f013 0401 	ands.w	r4, r3, #1
   104fc:	d116      	bne.n	1052c <Storage::getSDDrive()+0x3c>
   104fe:	4628      	mov	r0, r5
   10500:	f00b f83a 	bl	1b578 <__cxa_guard_acquire>
   10504:	b190      	cbz	r0, 1052c <Storage::getSDDrive()+0x3c>
   10506:	f44f 700e 	mov.w	r0, #568	; 0x238
   1050a:	f7ff feb9 	bl	10280 <operator new(unsigned int)>
   1050e:	2301      	movs	r3, #1
   10510:	f880 3234 	strb.w	r3, [r0, #564]	; 0x234
   10514:	2331      	movs	r3, #49	; 0x31
   10516:	f880 3235 	strb.w	r3, [r0, #565]	; 0x235
   1051a:	233a      	movs	r3, #58	; 0x3a
   1051c:	f880 3236 	strb.w	r3, [r0, #566]	; 0x236
   10520:	f880 4237 	strb.w	r4, [r0, #567]	; 0x237
   10524:	6030      	str	r0, [r6, #0]
   10526:	4628      	mov	r0, r5
   10528:	f00b f832 	bl	1b590 <__cxa_guard_release>
   1052c:	6830      	ldr	r0, [r6, #0]
   1052e:	bd70      	pop	{r4, r5, r6, pc}
   10530:	2007c328 	.word	0x2007c328
   10534:	2007c32c 	.word	0x2007c32c

00010538 <taskListHandler(str&, CharDev&, void*)>:
_Z15taskListHandlerR3strR7CharDevPv():
   10538:	e92d 4ff0 	stmdb	sp!, {r4, r5, r6, r7, r8, r9, sl, fp, lr}
   1053c:	f5ad 7d1b 	sub.w	sp, sp, #620	; 0x26c
   10540:	460f      	mov	r7, r1
   10542:	f007 fcf7 	bl	17f34 <str::operator int() const>
   10546:	1e04      	subs	r4, r0, #0
   10548:	dd04      	ble.n	10554 <taskListHandler(str&, CharDev&, void*)+0x1c>
   1054a:	f009 ff93 	bl	1a474 <vTaskResetRunTimeStats>
   1054e:	4620      	mov	r0, r4
   10550:	f009 fcd6 	bl	19f00 <vTaskDelay>
   10554:	f10d 0914 	add.w	r9, sp, #20
   10558:	464c      	mov	r4, r9
   1055a:	4d2a      	ldr	r5, [pc, #168]	; (10604 <taskListHandler(str&, CharDev&, void*)+0xcc>)
   1055c:	f04f 0b64 	mov.w	fp, #100	; 0x64
   10560:	cd0f      	ldmia	r5!, {r0, r1, r2, r3}
   10562:	c40f      	stmia	r4!, {r0, r1, r2, r3}
   10564:	682b      	ldr	r3, [r5, #0]
   10566:	aa04      	add	r2, sp, #16
   10568:	6023      	str	r3, [r4, #0]
   1056a:	2110      	movs	r1, #16
   1056c:	2400      	movs	r4, #0
   1056e:	a80a      	add	r0, sp, #40	; 0x28
   10570:	9404      	str	r4, [sp, #16]
   10572:	f009 fe83 	bl	1a27c <uxTaskGetSystemState>
   10576:	4a24      	ldr	r2, [pc, #144]	; (10608 <taskListHandler(str&, CharDev&, void*)+0xd0>)
   10578:	4682      	mov	sl, r0
   1057a:	4924      	ldr	r1, [pc, #144]	; (1060c <taskListHandler(str&, CharDev&, void*)+0xd4>)
   1057c:	4638      	mov	r0, r7
   1057e:	f008 fb07 	bl	18b90 <CharDev::printf(char const*, ...)>
   10582:	4626      	mov	r6, r4
   10584:	ad0a      	add	r5, sp, #40	; 0x28
   10586:	f04f 0800 	mov.w	r8, #0
   1058a:	45d0      	cmp	r8, sl
   1058c:	d01c      	beq.n	105c8 <taskListHandler(str&, CharDev&, void*)+0x90>
   1058e:	696b      	ldr	r3, [r5, #20]
   10590:	42a3      	cmp	r3, r4
   10592:	d115      	bne.n	105c0 <taskListHandler(str&, CharDev&, void*)+0x88>
   10594:	69aa      	ldr	r2, [r5, #24]
   10596:	9b04      	ldr	r3, [sp, #16]
   10598:	4416      	add	r6, r2
   1059a:	b11b      	cbz	r3, 105a4 <taskListHandler(str&, CharDev&, void*)+0x6c>
   1059c:	fbb3 f3fb 	udiv	r3, r3, fp
   105a0:	fbb2 f3f3 	udiv	r3, r2, r3
   105a4:	7b29      	ldrb	r1, [r5, #12]
   105a6:	9203      	str	r2, [sp, #12]
   105a8:	9302      	str	r3, [sp, #8]
   105aa:	8c2b      	ldrh	r3, [r5, #32]
   105ac:	9400      	str	r4, [sp, #0]
   105ae:	009b      	lsls	r3, r3, #2
   105b0:	9301      	str	r3, [sp, #4]
   105b2:	f859 3021 	ldr.w	r3, [r9, r1, lsl #2]
   105b6:	686a      	ldr	r2, [r5, #4]
   105b8:	4915      	ldr	r1, [pc, #84]	; (10610 <taskListHandler(str&, CharDev&, void*)+0xd8>)
   105ba:	4638      	mov	r0, r7
   105bc:	f008 fae8 	bl	18b90 <CharDev::printf(char const*, ...)>
   105c0:	f108 0801 	add.w	r8, r8, #1
   105c4:	3524      	adds	r5, #36	; 0x24
   105c6:	e7e0      	b.n	1058a <taskListHandler(str&, CharDev&, void*)+0x52>
   105c8:	3401      	adds	r4, #1
   105ca:	2c0a      	cmp	r4, #10
   105cc:	d1da      	bne.n	10584 <taskListHandler(str&, CharDev&, void*)+0x4c>
   105ce:	9b04      	ldr	r3, [sp, #16]
   105d0:	2264      	movs	r2, #100	; 0x64
   105d2:	1b9e      	subs	r6, r3, r6
   105d4:	fbb3 f3f2 	udiv	r3, r3, r2
   105d8:	490e      	ldr	r1, [pc, #56]	; (10614 <taskListHandler(str&, CharDev&, void*)+0xdc>)
   105da:	fbb6 f3f3 	udiv	r3, r6, r3
   105de:	4a0e      	ldr	r2, [pc, #56]	; (10618 <taskListHandler(str&, CharDev&, void*)+0xe0>)
   105e0:	9600      	str	r6, [sp, #0]
   105e2:	4638      	mov	r0, r7
   105e4:	f008 fad4 	bl	18b90 <CharDev::printf(char const*, ...)>
   105e8:	f009 fb5e 	bl	19ca8 <uxTaskGetNumberOfTasks>
   105ec:	2810      	cmp	r0, #16
   105ee:	d904      	bls.n	105fa <taskListHandler(str&, CharDev&, void*)+0xc2>
   105f0:	2210      	movs	r2, #16
   105f2:	490a      	ldr	r1, [pc, #40]	; (1061c <taskListHandler(str&, CharDev&, void*)+0xe4>)
   105f4:	4638      	mov	r0, r7
   105f6:	f008 facb 	bl	18b90 <CharDev::printf(char const*, ...)>
   105fa:	2001      	movs	r0, #1
   105fc:	f50d 7d1b 	add.w	sp, sp, #620	; 0x26c
   10600:	e8bd 8ff0 	ldmia.w	sp!, {r4, r5, r6, r7, r8, r9, sl, fp, pc}
   10604:	00022fb8 	.word	0x00022fb8
   10608:	00022fd7 	.word	0x00022fd7
   1060c:	00022fdc 	.word	0x00022fdc
   10610:	00023003 	.word	0x00023003
   10614:	0002302b 	.word	0x0002302b
   10618:	00023020 	.word	0x00023020
   1061c:	0002304a 	.word	0x0002304a

00010620 <memInfoHandler(str&, CharDev&, void*)>:
_Z14memInfoHandlerR3strR7CharDevPv():
   10620:	b510      	push	{r4, lr}
   10622:	460c      	mov	r4, r1
   10624:	f5ad 7d00 	sub.w	sp, sp, #512	; 0x200
   10628:	4668      	mov	r0, sp
   1062a:	f00a fa4f 	bl	1aacc <sys_get_mem_info_str>
   1062e:	4620      	mov	r0, r4
   10630:	f04f 32ff 	mov.w	r2, #4294967295
   10634:	4669      	mov	r1, sp
   10636:	f008 fa75 	bl	18b24 <CharDev::putline(char const*, unsigned int)>
   1063a:	2001      	movs	r0, #1
   1063c:	f50d 7d00 	add.w	sp, sp, #512	; 0x200
   10640:	bd10      	pop	{r4, pc}
   10642:	Address 0x00010642 is out of bounds.


00010644 <timeHandler(str&, CharDev&, void*)>:
_Z11timeHandlerR3strR7CharDevPv():
   10644:	b530      	push	{r4, r5, lr}
   10646:	460c      	mov	r4, r1
   10648:	b091      	sub	sp, #68	; 0x44
   1064a:	492c      	ldr	r1, [pc, #176]	; (106fc <timeHandler(str&, CharDev&, void*)+0xb8>)
   1064c:	4605      	mov	r5, r0
   1064e:	f007 fb7d 	bl	17d4c <str::beginsWith(char const*) const>
   10652:	2800      	cmp	r0, #0
   10654:	d047      	beq.n	106e6 <timeHandler(str&, CharDev&, void*)+0xa2>
   10656:	ab0c      	add	r3, sp, #48	; 0x30
   10658:	9304      	str	r3, [sp, #16]
   1065a:	ab0b      	add	r3, sp, #44	; 0x2c
   1065c:	9303      	str	r3, [sp, #12]
   1065e:	ab0a      	add	r3, sp, #40	; 0x28
   10660:	9302      	str	r3, [sp, #8]
   10662:	ab09      	add	r3, sp, #36	; 0x24
   10664:	9301      	str	r3, [sp, #4]
   10666:	ab08      	add	r3, sp, #32
   10668:	9300      	str	r3, [sp, #0]
   1066a:	aa06      	add	r2, sp, #24
   1066c:	ab07      	add	r3, sp, #28
   1066e:	4924      	ldr	r1, [pc, #144]	; (10700 <timeHandler(str&, CharDev&, void*)+0xbc>)
   10670:	4628      	mov	r0, r5
   10672:	f007 fad3 	bl	17c1c <str::scanf(char const*, ...)>
   10676:	2807      	cmp	r0, #7
   10678:	d001      	beq.n	1067e <timeHandler(str&, CharDev&, void*)+0x3a>
   1067a:	2000      	movs	r0, #0
   1067c:	e03b      	b.n	106f6 <timeHandler(str&, CharDev&, void*)+0xb2>
   1067e:	f89d 3039 	ldrb.w	r3, [sp, #57]	; 0x39
   10682:	9a06      	ldr	r2, [sp, #24]
   10684:	a80d      	add	r0, sp, #52	; 0x34
   10686:	f362 0303 	bfi	r3, r2, #0, #4
   1068a:	f88d 3039 	strb.w	r3, [sp, #57]	; 0x39
   1068e:	9a07      	ldr	r2, [sp, #28]
   10690:	f89d 3038 	ldrb.w	r3, [sp, #56]	; 0x38
   10694:	f362 0304 	bfi	r3, r2, #0, #5
   10698:	f88d 3038 	strb.w	r3, [sp, #56]	; 0x38
   1069c:	9a08      	ldr	r2, [sp, #32]
   1069e:	f8bd 303a 	ldrh.w	r3, [sp, #58]	; 0x3a
   106a2:	f362 030b 	bfi	r3, r2, #0, #12
   106a6:	f8ad 303a 	strh.w	r3, [sp, #58]	; 0x3a
   106aa:	9a09      	ldr	r2, [sp, #36]	; 0x24
   106ac:	f89d 3036 	ldrb.w	r3, [sp, #54]	; 0x36
   106b0:	f362 0304 	bfi	r3, r2, #0, #5
   106b4:	f88d 3036 	strb.w	r3, [sp, #54]	; 0x36
   106b8:	9a0a      	ldr	r2, [sp, #40]	; 0x28
   106ba:	f89d 3035 	ldrb.w	r3, [sp, #53]	; 0x35
   106be:	f362 0305 	bfi	r3, r2, #0, #6
   106c2:	f88d 3035 	strb.w	r3, [sp, #53]	; 0x35
   106c6:	9a0b      	ldr	r2, [sp, #44]	; 0x2c
   106c8:	f89d 3034 	ldrb.w	r3, [sp, #52]	; 0x34
   106cc:	f362 0305 	bfi	r3, r2, #0, #6
   106d0:	f88d 3034 	strb.w	r3, [sp, #52]	; 0x34
   106d4:	9a0c      	ldr	r2, [sp, #48]	; 0x30
   106d6:	f89d 3037 	ldrb.w	r3, [sp, #55]	; 0x37
   106da:	f362 0302 	bfi	r3, r2, #0, #3
   106de:	f88d 3037 	strb.w	r3, [sp, #55]	; 0x37
   106e2:	f008 f80d 	bl	18700 <rtc_settime>
   106e6:	f008 f8a7 	bl	18838 <rtc_get_date_time_str>
   106ea:	4906      	ldr	r1, [pc, #24]	; (10704 <timeHandler(str&, CharDev&, void*)+0xc0>)
   106ec:	4602      	mov	r2, r0
   106ee:	4620      	mov	r0, r4
   106f0:	f008 fa4e 	bl	18b90 <CharDev::printf(char const*, ...)>
   106f4:	2001      	movs	r0, #1
   106f6:	b011      	add	sp, #68	; 0x44
   106f8:	bd30      	pop	{r4, r5, pc}
   106fa:	bf00      	nop
   106fc:	00023074 	.word	0x00023074
   10700:	00023078 	.word	0x00023078
   10704:	00024f56 	.word	0x00024f56

00010708 <logHandler(str&, CharDev&, void*)>:
_Z10logHandlerR3strR7CharDevPv():
   10708:	b5f7      	push	{r0, r1, r2, r4, r5, r6, r7, lr}
   1070a:	460d      	mov	r5, r1
   1070c:	494e      	ldr	r1, [pc, #312]	; (10848 <logHandler(str&, CharDev&, void*)+0x140>)
   1070e:	4604      	mov	r4, r0
   10710:	f007 fc0c 	bl	17f2c <str::operator==(char const*) const>
   10714:	4606      	mov	r6, r0
   10716:	b140      	cbz	r0, 1072a <logHandler(str&, CharDev&, void*)+0x22>
   10718:	f006 fe80 	bl	1741c <logger_send_flush_request>
   1071c:	f04f 32ff 	mov.w	r2, #4294967295
   10720:	494a      	ldr	r1, [pc, #296]	; (1084c <logHandler(str&, CharDev&, void*)+0x144>)
   10722:	4628      	mov	r0, r5
   10724:	f008 f9fe 	bl	18b24 <CharDev::putline(char const*, unsigned int)>
   10728:	e08b      	b.n	10842 <logHandler(str&, CharDev&, void*)+0x13a>
   1072a:	4949      	ldr	r1, [pc, #292]	; (10850 <logHandler(str&, CharDev&, void*)+0x148>)
   1072c:	4620      	mov	r0, r4
   1072e:	f007 fbfd 	bl	17f2c <str::operator==(char const*) const>
   10732:	b360      	cbz	r0, 1078e <logHandler(str&, CharDev&, void*)+0x86>
   10734:	f006 fe96 	bl	17464 <logger_get_blocked_call_count>
   10738:	4946      	ldr	r1, [pc, #280]	; (10854 <logHandler(str&, CharDev&, void*)+0x14c>)
   1073a:	4602      	mov	r2, r0
   1073c:	4628      	mov	r0, r5
   1073e:	f008 fa27 	bl	18b90 <CharDev::printf(char const*, ...)>
   10742:	f006 fe9b 	bl	1747c <logger_get_num_buffers_watermark>
   10746:	4944      	ldr	r1, [pc, #272]	; (10858 <logHandler(str&, CharDev&, void*)+0x150>)
   10748:	4602      	mov	r2, r0
   1074a:	4628      	mov	r0, r5
   1074c:	f008 fa20 	bl	18b90 <CharDev::printf(char const*, ...)>
   10750:	f006 fe8e 	bl	17470 <logger_get_highest_file_write_time_ms>
   10754:	4941      	ldr	r1, [pc, #260]	; (1085c <logHandler(str&, CharDev&, void*)+0x154>)
   10756:	4602      	mov	r2, r0
   10758:	4628      	mov	r0, r5
   1075a:	f008 fa19 	bl	18b90 <CharDev::printf(char const*, ...)>
   1075e:	4630      	mov	r0, r6
   10760:	f006 fe76 	bl	17450 <logger_get_logged_call_count>
   10764:	4604      	mov	r4, r0
   10766:	2001      	movs	r0, #1
   10768:	f006 fe72 	bl	17450 <logger_get_logged_call_count>
   1076c:	4606      	mov	r6, r0
   1076e:	2002      	movs	r0, #2
   10770:	f006 fe6e 	bl	17450 <logger_get_logged_call_count>
   10774:	4607      	mov	r7, r0
   10776:	2003      	movs	r0, #3
   10778:	f006 fe6a 	bl	17450 <logger_get_logged_call_count>
   1077c:	9700      	str	r7, [sp, #0]
   1077e:	9001      	str	r0, [sp, #4]
   10780:	4633      	mov	r3, r6
   10782:	4622      	mov	r2, r4
   10784:	4936      	ldr	r1, [pc, #216]	; (10860 <logHandler(str&, CharDev&, void*)+0x158>)
   10786:	4628      	mov	r0, r5
   10788:	f008 fa02 	bl	18b90 <CharDev::printf(char const*, ...)>
   1078c:	e059      	b.n	10842 <logHandler(str&, CharDev&, void*)+0x13a>
   1078e:	4935      	ldr	r1, [pc, #212]	; (10864 <logHandler(str&, CharDev&, void*)+0x15c>)
   10790:	4620      	mov	r0, r4
   10792:	f007 fadb 	bl	17d4c <str::beginsWith(char const*) const>
   10796:	b150      	cbz	r0, 107ae <logHandler(str&, CharDev&, void*)+0xa6>
   10798:	2220      	movs	r2, #32
   1079a:	2101      	movs	r1, #1
   1079c:	4620      	mov	r0, r4
   1079e:	f007 fb73 	bl	17e88 <str::eraseFirstWords(int, char)>
   107a2:	4620      	mov	r0, r4
   107a4:	f007 fbc4 	bl	17f30 <str::operator()() const>
   107a8:	f006 ff80 	bl	176ac <logger_log_raw>
   107ac:	e049      	b.n	10842 <logHandler(str&, CharDev&, void*)+0x13a>
   107ae:	492e      	ldr	r1, [pc, #184]	; (10868 <logHandler(str&, CharDev&, void*)+0x160>)
   107b0:	4620      	mov	r0, r4
   107b2:	f007 facb 	bl	17d4c <str::beginsWith(char const*) const>
   107b6:	4606      	mov	r6, r0
   107b8:	b920      	cbnz	r0, 107c4 <logHandler(str&, CharDev&, void*)+0xbc>
   107ba:	492c      	ldr	r1, [pc, #176]	; (1086c <logHandler(str&, CharDev&, void*)+0x164>)
   107bc:	4620      	mov	r0, r4
   107be:	f007 fac5 	bl	17d4c <str::beginsWith(char const*) const>
   107c2:	b360      	cbz	r0, 1081e <logHandler(str&, CharDev&, void*)+0x116>
   107c4:	492a      	ldr	r1, [pc, #168]	; (10870 <logHandler(str&, CharDev&, void*)+0x168>)
   107c6:	4620      	mov	r0, r4
   107c8:	f007 faae 	bl	17d28 <str::containsIgnoreCase(char const*) const>
   107cc:	b960      	cbnz	r0, 107e8 <logHandler(str&, CharDev&, void*)+0xe0>
   107ce:	4929      	ldr	r1, [pc, #164]	; (10874 <logHandler(str&, CharDev&, void*)+0x16c>)
   107d0:	4620      	mov	r0, r4
   107d2:	f007 faa9 	bl	17d28 <str::containsIgnoreCase(char const*) const>
   107d6:	b928      	cbnz	r0, 107e4 <logHandler(str&, CharDev&, void*)+0xdc>
   107d8:	4620      	mov	r0, r4
   107da:	4927      	ldr	r1, [pc, #156]	; (10878 <logHandler(str&, CharDev&, void*)+0x170>)
   107dc:	f007 faa4 	bl	17d28 <str::containsIgnoreCase(char const*) const>
   107e0:	4604      	mov	r4, r0
   107e2:	e002      	b.n	107ea <logHandler(str&, CharDev&, void*)+0xe2>
   107e4:	2403      	movs	r4, #3
   107e6:	e000      	b.n	107ea <logHandler(str&, CharDev&, void*)+0xe2>
   107e8:	2402      	movs	r4, #2
   107ea:	4631      	mov	r1, r6
   107ec:	4620      	mov	r0, r4
   107ee:	f006 feb5 	bl	1755c <logger_set_printf>
   107f2:	4a22      	ldr	r2, [pc, #136]	; (1087c <logHandler(str&, CharDev&, void*)+0x174>)
   107f4:	4b22      	ldr	r3, [pc, #136]	; (10880 <logHandler(str&, CharDev&, void*)+0x178>)
   107f6:	2e00      	cmp	r6, #0
   107f8:	bf18      	it	ne
   107fa:	461a      	movne	r2, r3
   107fc:	b13c      	cbz	r4, 1080e <logHandler(str&, CharDev&, void*)+0x106>
   107fe:	2c01      	cmp	r4, #1
   10800:	d007      	beq.n	10812 <logHandler(str&, CharDev&, void*)+0x10a>
   10802:	491c      	ldr	r1, [pc, #112]	; (10874 <logHandler(str&, CharDev&, void*)+0x16c>)
   10804:	4b1a      	ldr	r3, [pc, #104]	; (10870 <logHandler(str&, CharDev&, void*)+0x168>)
   10806:	2c02      	cmp	r4, #2
   10808:	bf18      	it	ne
   1080a:	460b      	movne	r3, r1
   1080c:	e002      	b.n	10814 <logHandler(str&, CharDev&, void*)+0x10c>
   1080e:	4b1d      	ldr	r3, [pc, #116]	; (10884 <logHandler(str&, CharDev&, void*)+0x17c>)
   10810:	e000      	b.n	10814 <logHandler(str&, CharDev&, void*)+0x10c>
   10812:	4b19      	ldr	r3, [pc, #100]	; (10878 <logHandler(str&, CharDev&, void*)+0x170>)
   10814:	491c      	ldr	r1, [pc, #112]	; (10888 <logHandler(str&, CharDev&, void*)+0x180>)
   10816:	4628      	mov	r0, r5
   10818:	f008 f9ba 	bl	18b90 <CharDev::printf(char const*, ...)>
   1081c:	e011      	b.n	10842 <logHandler(str&, CharDev&, void*)+0x13a>
   1081e:	4620      	mov	r0, r4
   10820:	f007 fb86 	bl	17f30 <str::operator()() const>
   10824:	4a19      	ldr	r2, [pc, #100]	; (1088c <logHandler(str&, CharDev&, void*)+0x184>)
   10826:	491a      	ldr	r1, [pc, #104]	; (10890 <logHandler(str&, CharDev&, void*)+0x188>)
   10828:	9000      	str	r0, [sp, #0]
   1082a:	23f3      	movs	r3, #243	; 0xf3
   1082c:	2001      	movs	r0, #1
   1082e:	f006 fea3 	bl	17578 <logger_log>
   10832:	4620      	mov	r0, r4
   10834:	f007 fb7c 	bl	17f30 <str::operator()() const>
   10838:	4916      	ldr	r1, [pc, #88]	; (10894 <logHandler(str&, CharDev&, void*)+0x18c>)
   1083a:	4602      	mov	r2, r0
   1083c:	4628      	mov	r0, r5
   1083e:	f008 f9a7 	bl	18b90 <CharDev::printf(char const*, ...)>
   10842:	2001      	movs	r0, #1
   10844:	b003      	add	sp, #12
   10846:	bdf0      	pop	{r4, r5, r6, r7, pc}
   10848:	000230b3 	.word	0x000230b3
   1084c:	000230b9 	.word	0x000230b9
   10850:	000230d2 	.word	0x000230d2
   10854:	000230d9 	.word	0x000230d9
   10858:	000230ee 	.word	0x000230ee
   1085c:	00023103 	.word	0x00023103
   10860:	00023122 	.word	0x00023122
   10864:	00023152 	.word	0x00023152
   10868:	00023156 	.word	0x00023156
   1086c:	0002315e 	.word	0x0002315e
   10870:	000230ae 	.word	0x000230ae
   10874:	000230a8 	.word	0x000230a8
   10878:	000242a2 	.word	0x000242a2
   1087c:	00023099 	.word	0x00023099
   10880:	00023091 	.word	0x00023091
   10884:	000230a2 	.word	0x000230a2
   10888:	00023167 	.word	0x00023167
   1088c:	00022fcc 	.word	0x00022fcc
   10890:	00023180 	.word	0x00023180
   10894:	000231b3 	.word	0x000231b3

00010898 <cpHandler(str&, CharDev&, void*)>:
_Z9cpHandlerR3strR7CharDevPv():
   10898:	b530      	push	{r4, r5, lr}
   1089a:	b089      	sub	sp, #36	; 0x24
   1089c:	ab04      	add	r3, sp, #16
   1089e:	2400      	movs	r4, #0
   108a0:	9300      	str	r3, [sp, #0]
   108a2:	460d      	mov	r5, r1
   108a4:	ab03      	add	r3, sp, #12
   108a6:	2202      	movs	r2, #2
   108a8:	4918      	ldr	r1, [pc, #96]	; (1090c <cpHandler(str&, CharDev&, void*)+0x74>)
   108aa:	9403      	str	r4, [sp, #12]
   108ac:	9404      	str	r4, [sp, #16]
   108ae:	f007 f9c3 	bl	17c38 <str::tokenize(char const*, int, ...)>
   108b2:	2802      	cmp	r0, #2
   108b4:	d127      	bne.n	10906 <cpHandler(str&, CharDev&, void*)+0x6e>
   108b6:	ab07      	add	r3, sp, #28
   108b8:	9300      	str	r3, [sp, #0]
   108ba:	aa05      	add	r2, sp, #20
   108bc:	ab06      	add	r3, sp, #24
   108be:	9904      	ldr	r1, [sp, #16]
   108c0:	9803      	ldr	r0, [sp, #12]
   108c2:	9405      	str	r4, [sp, #20]
   108c4:	9406      	str	r4, [sp, #24]
   108c6:	9407      	str	r4, [sp, #28]
   108c8:	f003 fab4 	bl	13e34 <Storage::copy(char const*, char const*, unsigned int*, unsigned int*, unsigned int*)>
   108cc:	4602      	mov	r2, r0
   108ce:	b138      	cbz	r0, 108e0 <cpHandler(str&, CharDev&, void*)+0x48>
   108d0:	9b04      	ldr	r3, [sp, #16]
   108d2:	490f      	ldr	r1, [pc, #60]	; (10910 <cpHandler(str&, CharDev&, void*)+0x78>)
   108d4:	9300      	str	r3, [sp, #0]
   108d6:	4628      	mov	r0, r5
   108d8:	9b03      	ldr	r3, [sp, #12]
   108da:	f008 f959 	bl	18b90 <CharDev::printf(char const*, ...)>
   108de:	e010      	b.n	10902 <cpHandler(str&, CharDev&, void*)+0x6a>
   108e0:	9a05      	ldr	r2, [sp, #20]
   108e2:	9b06      	ldr	r3, [sp, #24]
   108e4:	2a00      	cmp	r2, #0
   108e6:	9907      	ldr	r1, [sp, #28]
   108e8:	bf08      	it	eq
   108ea:	2201      	moveq	r2, #1
   108ec:	2b00      	cmp	r3, #0
   108ee:	bf08      	it	eq
   108f0:	2301      	moveq	r3, #1
   108f2:	fbb1 f3f3 	udiv	r3, r1, r3
   108f6:	fbb1 f2f2 	udiv	r2, r1, r2
   108fa:	4628      	mov	r0, r5
   108fc:	4905      	ldr	r1, [pc, #20]	; (10914 <cpHandler(str&, CharDev&, void*)+0x7c>)
   108fe:	f008 f947 	bl	18b90 <CharDev::printf(char const*, ...)>
   10902:	2001      	movs	r0, #1
   10904:	e000      	b.n	10908 <cpHandler(str&, CharDev&, void*)+0x70>
   10906:	4620      	mov	r0, r4
   10908:	b009      	add	sp, #36	; 0x24
   1090a:	bd30      	pop	{r4, r5, pc}
   1090c:	00024242 	.word	0x00024242
   10910:	000231c1 	.word	0x000231c1
   10914:	000231e0 	.word	0x000231e0

00010918 <catHandler(str&, CharDev&, void*)>:
_Z10catHandlerR3strR7CharDevPv():
   10918:	e92d 47f0 	stmdb	sp!, {r4, r5, r6, r7, r8, r9, sl, lr}
   1091c:	460e      	mov	r6, r1
   1091e:	f5ad 6d85 	sub.w	sp, sp, #1064	; 0x428
   10922:	4939      	ldr	r1, [pc, #228]	; (10a08 <catHandler(str&, CharDev&, void*)+0xf0>)
   10924:	4605      	mov	r5, r0
   10926:	f007 fa9b 	bl	17e60 <str::erase(char const*)>
   1092a:	4938      	ldr	r1, [pc, #224]	; (10a0c <catHandler(str&, CharDev&, void*)+0xf4>)
   1092c:	4607      	mov	r7, r0
   1092e:	4628      	mov	r0, r5
   10930:	f007 fabf 	bl	17eb2 <str::trimStart(char const*)>
   10934:	4935      	ldr	r1, [pc, #212]	; (10a0c <catHandler(str&, CharDev&, void*)+0xf4>)
   10936:	4628      	mov	r0, r5
   10938:	f007 fadb 	bl	17ef2 <str::trimEnd(char const*)>
   1093c:	4628      	mov	r0, r5
   1093e:	f007 faf7 	bl	17f30 <str::operator()() const>
   10942:	2201      	movs	r2, #1
   10944:	4601      	mov	r1, r0
   10946:	a881      	add	r0, sp, #516	; 0x204
   10948:	f005 fabe 	bl	15ec8 <f_open>
   1094c:	4604      	mov	r4, r0
   1094e:	b140      	cbz	r0, 10962 <catHandler(str&, CharDev&, void*)+0x4a>
   10950:	4628      	mov	r0, r5
   10952:	f007 faed 	bl	17f30 <str::operator()() const>
   10956:	492e      	ldr	r1, [pc, #184]	; (10a10 <catHandler(str&, CharDev&, void*)+0xf8>)
   10958:	4602      	mov	r2, r0
   1095a:	4630      	mov	r0, r6
   1095c:	f008 f918 	bl	18b90 <CharDev::printf(char const*, ...)>
   10960:	e04c      	b.n	109fc <catHandler(str&, CharDev&, void*)+0xe4>
   10962:	f10d 0a04 	add.w	sl, sp, #4
   10966:	4601      	mov	r1, r0
   10968:	f44f 7200 	mov.w	r2, #512	; 0x200
   1096c:	4650      	mov	r0, sl
   1096e:	f00b ff24 	bl	1c7ba <memset>
   10972:	9400      	str	r4, [sp, #0]
   10974:	f00a f894 	bl	1aaa0 <sys_get_uptime_us>
   10978:	4680      	mov	r8, r0
   1097a:	4689      	mov	r9, r1
   1097c:	466b      	mov	r3, sp
   1097e:	f44f 7200 	mov.w	r2, #512	; 0x200
   10982:	4651      	mov	r1, sl
   10984:	a881      	add	r0, sp, #516	; 0x204
   10986:	f005 fb39 	bl	15ffc <f_read>
   1098a:	b908      	cbnz	r0, 10990 <catHandler(str&, CharDev&, void*)+0x78>
   1098c:	9b00      	ldr	r3, [sp, #0]
   1098e:	bb23      	cbnz	r3, 109da <catHandler(str&, CharDev&, void*)+0xc2>
   10990:	a881      	add	r0, sp, #516	; 0x204
   10992:	f005 fd02 	bl	1639a <f_close>
   10996:	b1cf      	cbz	r7, 109cc <catHandler(str&, CharDev&, void*)+0xb4>
   10998:	f00a f882 	bl	1aaa0 <sys_get_uptime_us>
   1099c:	f44f 727a 	mov.w	r2, #1000	; 0x3e8
   109a0:	2300      	movs	r3, #0
   109a2:	f00b fae5 	bl	1bf70 <__aeabi_uldivmod>
   109a6:	2300      	movs	r3, #0
   109a8:	4605      	mov	r5, r0
   109aa:	f44f 727a 	mov.w	r2, #1000	; 0x3e8
   109ae:	4640      	mov	r0, r8
   109b0:	4649      	mov	r1, r9
   109b2:	f00b fadd 	bl	1bf70 <__aeabi_uldivmod>
   109b6:	1a28      	subs	r0, r5, r0
   109b8:	bf14      	ite	ne
   109ba:	4603      	movne	r3, r0
   109bc:	2301      	moveq	r3, #1
   109be:	fbb4 f3f3 	udiv	r3, r4, r3
   109c2:	4622      	mov	r2, r4
   109c4:	4913      	ldr	r1, [pc, #76]	; (10a14 <catHandler(str&, CharDev&, void*)+0xfc>)
   109c6:	4630      	mov	r0, r6
   109c8:	f008 f8e2 	bl	18b90 <CharDev::printf(char const*, ...)>
   109cc:	f04f 32ff 	mov.w	r2, #4294967295
   109d0:	4911      	ldr	r1, [pc, #68]	; (10a18 <catHandler(str&, CharDev&, void*)+0x100>)
   109d2:	4630      	mov	r0, r6
   109d4:	f008 f8a6 	bl	18b24 <CharDev::putline(char const*, unsigned int)>
   109d8:	e010      	b.n	109fc <catHandler(str&, CharDev&, void*)+0xe4>
   109da:	441c      	add	r4, r3
   109dc:	2f00      	cmp	r7, #0
   109de:	d1cd      	bne.n	1097c <catHandler(str&, CharDev&, void*)+0x64>
   109e0:	463d      	mov	r5, r7
   109e2:	9b00      	ldr	r3, [sp, #0]
   109e4:	429d      	cmp	r5, r3
   109e6:	d2c9      	bcs.n	1097c <catHandler(str&, CharDev&, void*)+0x64>
   109e8:	6833      	ldr	r3, [r6, #0]
   109ea:	f81a 1005 	ldrb.w	r1, [sl, r5]
   109ee:	685b      	ldr	r3, [r3, #4]
   109f0:	f04f 32ff 	mov.w	r2, #4294967295
   109f4:	4630      	mov	r0, r6
   109f6:	4798      	blx	r3
   109f8:	3501      	adds	r5, #1
   109fa:	e7f2      	b.n	109e2 <catHandler(str&, CharDev&, void*)+0xca>
   109fc:	2001      	movs	r0, #1
   109fe:	f50d 6d85 	add.w	sp, sp, #1064	; 0x428
   10a02:	e8bd 87f0 	ldmia.w	sp!, {r4, r5, r6, r7, r8, r9, sl, pc}
   10a06:	bf00      	nop
   10a08:	0002320e 	.word	0x0002320e
   10a0c:	00024242 	.word	0x00024242
   10a10:	00023217 	.word	0x00023217
   10a14:	0002322b 	.word	0x0002322b
   10a18:	000237b9 	.word	0x000237b9

00010a1c <lsHandler(str&, CharDev&, void*)>:
_Z9lsHandlerR3strR7CharDevPv():
   10a1c:	e92d 47f0 	stmdb	sp!, {r4, r5, r6, r7, r8, r9, sl, lr}
   10a20:	2300      	movs	r3, #0
   10a22:	b0be      	sub	sp, #248	; 0xf8
   10a24:	460c      	mov	r4, r1
   10a26:	4953      	ldr	r1, [pc, #332]	; (10b74 <lsHandler(str&, CharDev&, void*)+0x158>)
   10a28:	4605      	mov	r5, r0
   10a2a:	930c      	str	r3, [sp, #48]	; 0x30
   10a2c:	f007 fa7e 	bl	17f2c <str::operator==(char const*) const>
   10a30:	b920      	cbnz	r0, 10a3c <lsHandler(str&, CharDev&, void*)+0x20>
   10a32:	4628      	mov	r0, r5
   10a34:	f007 fa7c 	bl	17f30 <str::operator()() const>
   10a38:	4606      	mov	r6, r0
   10a3a:	e000      	b.n	10a3e <lsHandler(str&, CharDev&, void*)+0x22>
   10a3c:	4e4e      	ldr	r6, [pc, #312]	; (10b78 <lsHandler(str&, CharDev&, void*)+0x15c>)
   10a3e:	4631      	mov	r1, r6
   10a40:	a815      	add	r0, sp, #84	; 0x54
   10a42:	f005 fd63 	bl	1650c <f_opendir>
   10a46:	4605      	mov	r5, r0
   10a48:	b130      	cbz	r0, 10a58 <lsHandler(str&, CharDev&, void*)+0x3c>
   10a4a:	4603      	mov	r3, r0
   10a4c:	4632      	mov	r2, r6
   10a4e:	494b      	ldr	r1, [pc, #300]	; (10b7c <lsHandler(str&, CharDev&, void*)+0x160>)
   10a50:	4620      	mov	r0, r4
   10a52:	f008 f89d 	bl	18b90 <CharDev::printf(char const*, ...)>
   10a56:	e089      	b.n	10b6c <lsHandler(str&, CharDev&, void*)+0x150>
   10a58:	4632      	mov	r2, r6
   10a5a:	4949      	ldr	r1, [pc, #292]	; (10b80 <lsHandler(str&, CharDev&, void*)+0x164>)
   10a5c:	4620      	mov	r0, r4
   10a5e:	f008 f897 	bl	18b90 <CharDev::printf(char const*, ...)>
   10a62:	462f      	mov	r7, r5
   10a64:	f10d 0878 	add.w	r8, sp, #120	; 0x78
   10a68:	2380      	movs	r3, #128	; 0x80
   10a6a:	a90d      	add	r1, sp, #52	; 0x34
   10a6c:	a815      	add	r0, sp, #84	; 0x54
   10a6e:	f8cd 804c 	str.w	r8, [sp, #76]	; 0x4c
   10a72:	9314      	str	r3, [sp, #80]	; 0x50
   10a74:	f005 fd8e 	bl	16594 <f_readdir>
   10a78:	2800      	cmp	r0, #0
   10a7a:	d161      	bne.n	10b40 <lsHandler(str&, CharDev&, void*)+0x124>
   10a7c:	f89d 303d 	ldrb.w	r3, [sp, #61]	; 0x3d
   10a80:	2b00      	cmp	r3, #0
   10a82:	d05d      	beq.n	10b40 <lsHandler(str&, CharDev&, void*)+0x124>
   10a84:	f89d 103c 	ldrb.w	r1, [sp, #60]	; 0x3c
   10a88:	f10d 003d 	add.w	r0, sp, #61	; 0x3d
   10a8c:	06ca      	lsls	r2, r1, #27
   10a8e:	bf5b      	ittet	pl
   10a90:	9b0d      	ldrpl	r3, [sp, #52]	; 0x34
   10a92:	9a0c      	ldrpl	r2, [sp, #48]	; 0x30
   10a94:	2244      	movmi	r2, #68	; 0x44
   10a96:	189b      	addpl	r3, r3, r2
   10a98:	bf5b      	ittet	pl
   10a9a:	930c      	strpl	r3, [sp, #48]	; 0x30
   10a9c:	222d      	movpl	r2, #45	; 0x2d
   10a9e:	3501      	addmi	r5, #1
   10aa0:	3701      	addpl	r7, #1
   10aa2:	f011 0f01 	tst.w	r1, #1
   10aa6:	bf14      	ite	ne
   10aa8:	2352      	movne	r3, #82	; 0x52
   10aaa:	232d      	moveq	r3, #45	; 0x2d
   10aac:	f8bd a03a 	ldrh.w	sl, [sp, #58]	; 0x3a
   10ab0:	f011 0f02 	tst.w	r1, #2
   10ab4:	9009      	str	r0, [sp, #36]	; 0x24
   10ab6:	980d      	ldr	r0, [sp, #52]	; 0x34
   10ab8:	bf14      	ite	ne
   10aba:	f04f 0e48 	movne.w	lr, #72	; 0x48
   10abe:	f04f 0e2d 	moveq.w	lr, #45	; 0x2d
   10ac2:	f011 0f04 	tst.w	r1, #4
   10ac6:	bf14      	ite	ne
   10ac8:	f04f 0c53 	movne.w	ip, #83	; 0x53
   10acc:	f04f 0c2d 	moveq.w	ip, #45	; 0x2d
   10ad0:	9008      	str	r0, [sp, #32]
   10ad2:	f011 0f20 	tst.w	r1, #32
   10ad6:	f3ca 1045 	ubfx	r0, sl, #5, #6
   10ada:	f8bd 1038 	ldrh.w	r1, [sp, #56]	; 0x38
   10ade:	9007      	str	r0, [sp, #28]
   10ae0:	ea4f 20ea 	mov.w	r0, sl, asr #11
   10ae4:	9006      	str	r0, [sp, #24]
   10ae6:	f001 001f 	and.w	r0, r1, #31
   10aea:	9005      	str	r0, [sp, #20]
   10aec:	f3c1 1043 	ubfx	r0, r1, #5, #4
   10af0:	ea4f 2161 	mov.w	r1, r1, asr #9
   10af4:	bf14      	ite	ne
   10af6:	f04f 0941 	movne.w	r9, #65	; 0x41
   10afa:	f04f 092d 	moveq.w	r9, #45	; 0x2d
   10afe:	f201 71bc 	addw	r1, r1, #1980	; 0x7bc
   10b02:	f8cd c004 	str.w	ip, [sp, #4]
   10b06:	f8cd e000 	str.w	lr, [sp]
   10b0a:	9004      	str	r0, [sp, #16]
   10b0c:	9103      	str	r1, [sp, #12]
   10b0e:	f8cd 9008 	str.w	r9, [sp, #8]
   10b12:	491c      	ldr	r1, [pc, #112]	; (10b84 <lsHandler(str&, CharDev&, void*)+0x168>)
   10b14:	4620      	mov	r0, r4
   10b16:	f008 f83b 	bl	18b90 <CharDev::printf(char const*, ...)>
   10b1a:	f04f 32ff 	mov.w	r2, #4294967295
   10b1e:	491a      	ldr	r1, [pc, #104]	; (10b88 <lsHandler(str&, CharDev&, void*)+0x16c>)
   10b20:	4620      	mov	r0, r4
   10b22:	f007 ffeb 	bl	18afc <CharDev::put(char const*, unsigned int)>
   10b26:	4641      	mov	r1, r8
   10b28:	f04f 32ff 	mov.w	r2, #4294967295
   10b2c:	4620      	mov	r0, r4
   10b2e:	f007 ffe5 	bl	18afc <CharDev::put(char const*, unsigned int)>
   10b32:	f04f 32ff 	mov.w	r2, #4294967295
   10b36:	490f      	ldr	r1, [pc, #60]	; (10b74 <lsHandler(str&, CharDev&, void*)+0x158>)
   10b38:	4620      	mov	r0, r4
   10b3a:	f007 fff3 	bl	18b24 <CharDev::putline(char const*, unsigned int)>
   10b3e:	e791      	b.n	10a64 <lsHandler(str&, CharDev&, void*)+0x48>
   10b40:	463a      	mov	r2, r7
   10b42:	4912      	ldr	r1, [pc, #72]	; (10b8c <lsHandler(str&, CharDev&, void*)+0x170>)
   10b44:	9500      	str	r5, [sp, #0]
   10b46:	9b0c      	ldr	r3, [sp, #48]	; 0x30
   10b48:	4620      	mov	r0, r4
   10b4a:	f008 f821 	bl	18b90 <CharDev::printf(char const*, ...)>
   10b4e:	aa0b      	add	r2, sp, #44	; 0x2c
   10b50:	a90c      	add	r1, sp, #48	; 0x30
   10b52:	4630      	mov	r0, r6
   10b54:	f005 fd4d 	bl	165f2 <f_getfree>
   10b58:	b940      	cbnz	r0, 10b6c <lsHandler(str&, CharDev&, void*)+0x150>
   10b5a:	9b0b      	ldr	r3, [sp, #44]	; 0x2c
   10b5c:	490c      	ldr	r1, [pc, #48]	; (10b90 <lsHandler(str&, CharDev&, void*)+0x174>)
   10b5e:	789a      	ldrb	r2, [r3, #2]
   10b60:	9b0c      	ldr	r3, [sp, #48]	; 0x30
   10b62:	4620      	mov	r0, r4
   10b64:	435a      	muls	r2, r3
   10b66:	0852      	lsrs	r2, r2, #1
   10b68:	f008 f812 	bl	18b90 <CharDev::printf(char const*, ...)>
   10b6c:	2001      	movs	r0, #1
   10b6e:	b03e      	add	sp, #248	; 0xf8
   10b70:	e8bd 87f0 	ldmia.w	sp!, {r4, r5, r6, r7, r8, r9, sl, pc}
   10b74:	000237b9 	.word	0x000237b9
   10b78:	00023246 	.word	0x00023246
   10b7c:	00023249 	.word	0x00023249
   10b80:	0002326d 	.word	0x0002326d
   10b84:	00023288 	.word	0x00023288
   10b88:	000232b5 	.word	0x000232b5
   10b8c:	000232b9 	.word	0x000232b9
   10b90:	000232e3 	.word	0x000232e3

00010b94 <mkdirHandler(str&, CharDev&, void*)>:
_Z12mkdirHandlerR3strR7CharDevPv():
   10b94:	b570      	push	{r4, r5, r6, lr}
   10b96:	460c      	mov	r4, r1
   10b98:	4606      	mov	r6, r0
   10b9a:	f007 f9c9 	bl	17f30 <str::operator()() const>
   10b9e:	4605      	mov	r5, r0
   10ba0:	4630      	mov	r0, r6
   10ba2:	f007 f9c5 	bl	17f30 <str::operator()() const>
   10ba6:	f005 fde6 	bl	16776 <f_mkdir>
   10baa:	4a06      	ldr	r2, [pc, #24]	; (10bc4 <mkdirHandler(str&, CharDev&, void*)+0x30>)
   10bac:	4b06      	ldr	r3, [pc, #24]	; (10bc8 <mkdirHandler(str&, CharDev&, void*)+0x34>)
   10bae:	4907      	ldr	r1, [pc, #28]	; (10bcc <mkdirHandler(str&, CharDev&, void*)+0x38>)
   10bb0:	2800      	cmp	r0, #0
   10bb2:	bf08      	it	eq
   10bb4:	4613      	moveq	r3, r2
   10bb6:	462a      	mov	r2, r5
   10bb8:	4620      	mov	r0, r4
   10bba:	f007 ffe9 	bl	18b90 <CharDev::printf(char const*, ...)>
   10bbe:	2001      	movs	r0, #1
   10bc0:	bd70      	pop	{r4, r5, r6, pc}
   10bc2:	bf00      	nop
   10bc4:	00023499 	.word	0x00023499
   10bc8:	000234a3 	.word	0x000234a3
   10bcc:	000232f7 	.word	0x000232f7

00010bd0 <rmHandler(str&, CharDev&, void*)>:
_Z9rmHandlerR3strR7CharDevPv():
   10bd0:	b570      	push	{r4, r5, r6, lr}
   10bd2:	460c      	mov	r4, r1
   10bd4:	4606      	mov	r6, r0
   10bd6:	f007 f9ab 	bl	17f30 <str::operator()() const>
   10bda:	4605      	mov	r5, r0
   10bdc:	4630      	mov	r0, r6
   10bde:	f007 f9a7 	bl	17f30 <str::operator()() const>
   10be2:	f005 fd6b 	bl	166bc <f_unlink>
   10be6:	4a06      	ldr	r2, [pc, #24]	; (10c00 <rmHandler(str&, CharDev&, void*)+0x30>)
   10be8:	4b06      	ldr	r3, [pc, #24]	; (10c04 <rmHandler(str&, CharDev&, void*)+0x34>)
   10bea:	4907      	ldr	r1, [pc, #28]	; (10c08 <rmHandler(str&, CharDev&, void*)+0x38>)
   10bec:	2800      	cmp	r0, #0
   10bee:	bf08      	it	eq
   10bf0:	4613      	moveq	r3, r2
   10bf2:	462a      	mov	r2, r5
   10bf4:	4620      	mov	r0, r4
   10bf6:	f007 ffcb 	bl	18b90 <CharDev::printf(char const*, ...)>
   10bfa:	2001      	movs	r0, #1
   10bfc:	bd70      	pop	{r4, r5, r6, pc}
   10bfe:	bf00      	nop
   10c00:	00023499 	.word	0x00023499
   10c04:	000234a3 	.word	0x000234a3
   10c08:	00023313 	.word	0x00023313

00010c0c <mvHandler(str&, CharDev&, void*)>:
_Z9mvHandlerR3strR7CharDevPv():
   10c0c:	b57f      	push	{r0, r1, r2, r3, r4, r5, r6, lr}
   10c0e:	ab03      	add	r3, sp, #12
   10c10:	2400      	movs	r4, #0
   10c12:	9300      	str	r3, [sp, #0]
   10c14:	460e      	mov	r6, r1
   10c16:	ab02      	add	r3, sp, #8
   10c18:	2202      	movs	r2, #2
   10c1a:	490f      	ldr	r1, [pc, #60]	; (10c58 <mvHandler(str&, CharDev&, void*)+0x4c>)
   10c1c:	9402      	str	r4, [sp, #8]
   10c1e:	9403      	str	r4, [sp, #12]
   10c20:	f007 f80a 	bl	17c38 <str::tokenize(char const*, int, ...)>
   10c24:	2802      	cmp	r0, #2
   10c26:	d114      	bne.n	10c52 <mvHandler(str&, CharDev&, void*)+0x46>
   10c28:	9c02      	ldr	r4, [sp, #8]
   10c2a:	9d03      	ldr	r5, [sp, #12]
   10c2c:	4620      	mov	r0, r4
   10c2e:	4629      	mov	r1, r5
   10c30:	f005 fe4a 	bl	168c8 <f_rename>
   10c34:	4b09      	ldr	r3, [pc, #36]	; (10c5c <mvHandler(str&, CharDev&, void*)+0x50>)
   10c36:	490a      	ldr	r1, [pc, #40]	; (10c60 <mvHandler(str&, CharDev&, void*)+0x54>)
   10c38:	4622      	mov	r2, r4
   10c3a:	2800      	cmp	r0, #0
   10c3c:	bf0c      	ite	eq
   10c3e:	4608      	moveq	r0, r1
   10c40:	4618      	movne	r0, r3
   10c42:	462b      	mov	r3, r5
   10c44:	9000      	str	r0, [sp, #0]
   10c46:	4907      	ldr	r1, [pc, #28]	; (10c64 <mvHandler(str&, CharDev&, void*)+0x58>)
   10c48:	4630      	mov	r0, r6
   10c4a:	f007 ffa1 	bl	18b90 <CharDev::printf(char const*, ...)>
   10c4e:	2001      	movs	r0, #1
   10c50:	e000      	b.n	10c54 <mvHandler(str&, CharDev&, void*)+0x48>
   10c52:	4620      	mov	r0, r4
   10c54:	b004      	add	sp, #16
   10c56:	bd70      	pop	{r4, r5, r6, pc}
   10c58:	00024242 	.word	0x00024242
   10c5c:	000234a3 	.word	0x000234a3
   10c60:	00023499 	.word	0x00023499
   10c64:	00023325 	.word	0x00023325

00010c68 <newFileHandler(str&, CharDev&, void*)>:
_Z14newFileHandlerR3strR7CharDevPv():
   10c68:	b530      	push	{r4, r5, lr}
   10c6a:	f5ad 7d0d 	sub.w	sp, sp, #564	; 0x234
   10c6e:	460c      	mov	r4, r1
   10c70:	4605      	mov	r5, r0
   10c72:	f007 f95d 	bl	17f30 <str::operator()() const>
   10c76:	220a      	movs	r2, #10
   10c78:	4601      	mov	r1, r0
   10c7a:	a803      	add	r0, sp, #12
   10c7c:	f005 f924 	bl	15ec8 <f_open>
   10c80:	b140      	cbz	r0, 10c94 <newFileHandler(str&, CharDev&, void*)+0x2c>
   10c82:	4628      	mov	r0, r5
   10c84:	f007 f954 	bl	17f30 <str::operator()() const>
   10c88:	491f      	ldr	r1, [pc, #124]	; (10d08 <newFileHandler(str&, CharDev&, void*)+0xa0>)
   10c8a:	4602      	mov	r2, r0
   10c8c:	4620      	mov	r0, r4
   10c8e:	f007 ff7f 	bl	18b90 <CharDev::printf(char const*, ...)>
   10c92:	e034      	b.n	10cfe <newFileHandler(str&, CharDev&, void*)+0x96>
   10c94:	f88d 0007 	strb.w	r0, [sp, #7]
   10c98:	9002      	str	r0, [sp, #8]
   10c9a:	491c      	ldr	r1, [pc, #112]	; (10d0c <newFileHandler(str&, CharDev&, void*)+0xa4>)
   10c9c:	f242 7310 	movw	r3, #10000	; 0x2710
   10ca0:	227e      	movs	r2, #126	; 0x7e
   10ca2:	4620      	mov	r0, r4
   10ca4:	f007 ff74 	bl	18b90 <CharDev::printf(char const*, ...)>
   10ca8:	4919      	ldr	r1, [pc, #100]	; (10d10 <newFileHandler(str&, CharDev&, void*)+0xa8>)
   10caa:	4620      	mov	r0, r4
   10cac:	f007 ff70 	bl	18b90 <CharDev::printf(char const*, ...)>
   10cb0:	6823      	ldr	r3, [r4, #0]
   10cb2:	f242 7210 	movw	r2, #10000	; 0x2710
   10cb6:	681b      	ldr	r3, [r3, #0]
   10cb8:	f10d 0107 	add.w	r1, sp, #7
   10cbc:	4620      	mov	r0, r4
   10cbe:	4798      	blx	r3
   10cc0:	b118      	cbz	r0, 10cca <newFileHandler(str&, CharDev&, void*)+0x62>
   10cc2:	f89d 3007 	ldrb.w	r3, [sp, #7]
   10cc6:	2b7e      	cmp	r3, #126	; 0x7e
   10cc8:	d103      	bne.n	10cd2 <newFileHandler(str&, CharDev&, void*)+0x6a>
   10cca:	a803      	add	r0, sp, #12
   10ccc:	f005 fb65 	bl	1639a <f_close>
   10cd0:	e015      	b.n	10cfe <newFileHandler(str&, CharDev&, void*)+0x96>
   10cd2:	ab02      	add	r3, sp, #8
   10cd4:	2201      	movs	r2, #1
   10cd6:	f10d 0107 	add.w	r1, sp, #7
   10cda:	a803      	add	r0, sp, #12
   10cdc:	f005 fa46 	bl	1616c <f_write>
   10ce0:	b958      	cbnz	r0, 10cfa <newFileHandler(str&, CharDev&, void*)+0x92>
   10ce2:	9b02      	ldr	r3, [sp, #8]
   10ce4:	2b01      	cmp	r3, #1
   10ce6:	d108      	bne.n	10cfa <newFileHandler(str&, CharDev&, void*)+0x92>
   10ce8:	6823      	ldr	r3, [r4, #0]
   10cea:	f04f 32ff 	mov.w	r2, #4294967295
   10cee:	685b      	ldr	r3, [r3, #4]
   10cf0:	f89d 1007 	ldrb.w	r1, [sp, #7]
   10cf4:	4620      	mov	r0, r4
   10cf6:	4798      	blx	r3
   10cf8:	e7da      	b.n	10cb0 <newFileHandler(str&, CharDev&, void*)+0x48>
   10cfa:	4906      	ldr	r1, [pc, #24]	; (10d14 <newFileHandler(str&, CharDev&, void*)+0xac>)
   10cfc:	e7d5      	b.n	10caa <newFileHandler(str&, CharDev&, void*)+0x42>
   10cfe:	2001      	movs	r0, #1
   10d00:	f50d 7d0d 	add.w	sp, sp, #564	; 0x234
   10d04:	bd30      	pop	{r4, r5, pc}
   10d06:	bf00      	nop
   10d08:	0002333d 	.word	0x0002333d
   10d0c:	00023364 	.word	0x00023364
   10d10:	0002339c 	.word	0x0002339c
   10d14:	000233bc 	.word	0x000233bc

00010d18 <dcpHandler(str&, CharDev&, void*)>:
_Z10dcpHandlerR3strR7CharDevPv():
   10d18:	e92d 4ff0 	stmdb	sp!, {r4, r5, r6, r7, r8, r9, sl, fp, lr}
   10d1c:	f5ad 7d41 	sub.w	sp, sp, #772	; 0x304
   10d20:	2300      	movs	r3, #0
   10d22:	ac04      	add	r4, sp, #16
   10d24:	6023      	str	r3, [r4, #0]
   10d26:	9303      	str	r3, [sp, #12]
   10d28:	460d      	mov	r5, r1
   10d2a:	9400      	str	r4, [sp, #0]
   10d2c:	ab03      	add	r3, sp, #12
   10d2e:	2202      	movs	r2, #2
   10d30:	4941      	ldr	r1, [pc, #260]	; (10e38 <dcpHandler(str&, CharDev&, void*)+0x120>)
   10d32:	f006 ff81 	bl	17c38 <str::tokenize(char const*, int, ...)>
   10d36:	2802      	cmp	r0, #2
   10d38:	d006      	beq.n	10d48 <dcpHandler(str&, CharDev&, void*)+0x30>
   10d3a:	f04f 32ff 	mov.w	r2, #4294967295
   10d3e:	493f      	ldr	r1, [pc, #252]	; (10e3c <dcpHandler(str&, CharDev&, void*)+0x124>)
   10d40:	4628      	mov	r0, r5
   10d42:	f007 feef 	bl	18b24 <CharDev::putline(char const*, unsigned int)>
   10d46:	e072      	b.n	10e2e <dcpHandler(str&, CharDev&, void*)+0x116>
   10d48:	6821      	ldr	r1, [r4, #0]
   10d4a:	a817      	add	r0, sp, #92	; 0x5c
   10d4c:	f005 fbde 	bl	1650c <f_opendir>
   10d50:	b110      	cbz	r0, 10d58 <dcpHandler(str&, CharDev&, void*)+0x40>
   10d52:	6822      	ldr	r2, [r4, #0]
   10d54:	493a      	ldr	r1, [pc, #232]	; (10e40 <dcpHandler(str&, CharDev&, void*)+0x128>)
   10d56:	e006      	b.n	10d66 <dcpHandler(str&, CharDev&, void*)+0x4e>
   10d58:	9903      	ldr	r1, [sp, #12]
   10d5a:	a817      	add	r0, sp, #92	; 0x5c
   10d5c:	f005 fbd6 	bl	1650c <f_opendir>
   10d60:	b128      	cbz	r0, 10d6e <dcpHandler(str&, CharDev&, void*)+0x56>
   10d62:	9a03      	ldr	r2, [sp, #12]
   10d64:	4937      	ldr	r1, [pc, #220]	; (10e44 <dcpHandler(str&, CharDev&, void*)+0x12c>)
   10d66:	4628      	mov	r0, r5
   10d68:	f007 ff12 	bl	18b90 <CharDev::printf(char const*, ...)>
   10d6c:	e05f      	b.n	10e2e <dcpHandler(str&, CharDev&, void*)+0x116>
   10d6e:	f44f 7280 	mov.w	r2, #256	; 0x100
   10d72:	eb0d 0102 	add.w	r1, sp, r2
   10d76:	a805      	add	r0, sp, #20
   10d78:	f006 ff20 	bl	17bbc <str::str(char*, int)>
   10d7c:	f44f 7280 	mov.w	r2, #256	; 0x100
   10d80:	a980      	add	r1, sp, #512	; 0x200
   10d82:	a80a      	add	r0, sp, #40	; 0x28
   10d84:	f006 ff1a 	bl	17bbc <str::str(char*, int)>
   10d88:	ae20      	add	r6, sp, #128	; 0x80
   10d8a:	2780      	movs	r7, #128	; 0x80
   10d8c:	a90f      	add	r1, sp, #60	; 0x3c
   10d8e:	a817      	add	r0, sp, #92	; 0x5c
   10d90:	9615      	str	r6, [sp, #84]	; 0x54
   10d92:	9716      	str	r7, [sp, #88]	; 0x58
   10d94:	f005 fbfe 	bl	16594 <f_readdir>
   10d98:	2800      	cmp	r0, #0
   10d9a:	d142      	bne.n	10e22 <dcpHandler(str&, CharDev&, void*)+0x10a>
   10d9c:	f89d 3045 	ldrb.w	r3, [sp, #69]	; 0x45
   10da0:	2b00      	cmp	r3, #0
   10da2:	d03e      	beq.n	10e22 <dcpHandler(str&, CharDev&, void*)+0x10a>
   10da4:	f89d 3044 	ldrb.w	r3, [sp, #68]	; 0x44
   10da8:	f003 0310 	and.w	r3, r3, #16
   10dac:	f003 0aff 	and.w	sl, r3, #255	; 0xff
   10db0:	2b00      	cmp	r3, #0
   10db2:	d1eb      	bne.n	10d8c <dcpHandler(str&, CharDev&, void*)+0x74>
   10db4:	f10d 0345 	add.w	r3, sp, #69	; 0x45
   10db8:	9a03      	ldr	r2, [sp, #12]
   10dba:	4923      	ldr	r1, [pc, #140]	; (10e48 <dcpHandler(str&, CharDev&, void*)+0x130>)
   10dbc:	a805      	add	r0, sp, #20
   10dbe:	f007 f901 	bl	17fc4 <str::printf(char const*, ...)>
   10dc2:	f10d 0345 	add.w	r3, sp, #69	; 0x45
   10dc6:	6822      	ldr	r2, [r4, #0]
   10dc8:	491f      	ldr	r1, [pc, #124]	; (10e48 <dcpHandler(str&, CharDev&, void*)+0x130>)
   10dca:	a80a      	add	r0, sp, #40	; 0x28
   10dcc:	f007 f8fa 	bl	17fc4 <str::printf(char const*, ...)>
   10dd0:	a805      	add	r0, sp, #20
   10dd2:	f007 f8ad 	bl	17f30 <str::operator()() const>
   10dd6:	4607      	mov	r7, r0
   10dd8:	a80a      	add	r0, sp, #40	; 0x28
   10dda:	f007 f8a9 	bl	17f30 <str::operator()() const>
   10dde:	4680      	mov	r8, r0
   10de0:	a805      	add	r0, sp, #20
   10de2:	f8dd 903c 	ldr.w	r9, [sp, #60]	; 0x3c
   10de6:	f007 f8a3 	bl	17f30 <str::operator()() const>
   10dea:	4683      	mov	fp, r0
   10dec:	a80a      	add	r0, sp, #40	; 0x28
   10dee:	f007 f89f 	bl	17f30 <str::operator()() const>
   10df2:	4653      	mov	r3, sl
   10df4:	4652      	mov	r2, sl
   10df6:	4601      	mov	r1, r0
   10df8:	f8cd a000 	str.w	sl, [sp]
   10dfc:	4658      	mov	r0, fp
   10dfe:	f003 f819 	bl	13e34 <Storage::copy(char const*, char const*, unsigned int*, unsigned int*, unsigned int*)>
   10e02:	4a12      	ldr	r2, [pc, #72]	; (10e4c <dcpHandler(str&, CharDev&, void*)+0x134>)
   10e04:	4b12      	ldr	r3, [pc, #72]	; (10e50 <dcpHandler(str&, CharDev&, void*)+0x138>)
   10e06:	f8cd 9000 	str.w	r9, [sp]
   10e0a:	2800      	cmp	r0, #0
   10e0c:	bf0c      	ite	eq
   10e0e:	4618      	moveq	r0, r3
   10e10:	4610      	movne	r0, r2
   10e12:	4910      	ldr	r1, [pc, #64]	; (10e54 <dcpHandler(str&, CharDev&, void*)+0x13c>)
   10e14:	9001      	str	r0, [sp, #4]
   10e16:	4643      	mov	r3, r8
   10e18:	463a      	mov	r2, r7
   10e1a:	4628      	mov	r0, r5
   10e1c:	f007 feb8 	bl	18b90 <CharDev::printf(char const*, ...)>
   10e20:	e7b3      	b.n	10d8a <dcpHandler(str&, CharDev&, void*)+0x72>
   10e22:	a80a      	add	r0, sp, #40	; 0x28
   10e24:	f006 fedf 	bl	17be6 <str::~str()>
   10e28:	a805      	add	r0, sp, #20
   10e2a:	f006 fedc 	bl	17be6 <str::~str()>
   10e2e:	2001      	movs	r0, #1
   10e30:	f50d 7d41 	add.w	sp, sp, #772	; 0x304
   10e34:	e8bd 8ff0 	ldmia.w	sp!, {r4, r5, r6, r7, r8, r9, sl, fp, pc}
   10e38:	00024242 	.word	0x00024242
   10e3c:	000233e3 	.word	0x000233e3
   10e40:	00023428 	.word	0x00023428
   10e44:	0002344d 	.word	0x0002344d
   10e48:	0002346d 	.word	0x0002346d
   10e4c:	000234a3 	.word	0x000234a3
   10e50:	00023499 	.word	0x00023499
   10e54:	00023473 	.word	0x00023473

00010e58 <storageHandler(str&, CharDev&, void*)>:
_Z14storageHandlerR3strR7CharDevPv():
   10e58:	b5f8      	push	{r3, r4, r5, r6, r7, lr}
   10e5a:	460d      	mov	r5, r1
   10e5c:	4924      	ldr	r1, [pc, #144]	; (10ef0 <storageHandler(str&, CharDev&, void*)+0x98>)
   10e5e:	4606      	mov	r6, r0
   10e60:	f007 f864 	bl	17f2c <str::operator==(char const*) const>
   10e64:	4604      	mov	r4, r0
   10e66:	4607      	mov	r7, r0
   10e68:	b118      	cbz	r0, 10e72 <storageHandler(str&, CharDev&, void*)+0x1a>
   10e6a:	f7ff fb41 	bl	104f0 <Storage::getSDDrive()>
   10e6e:	2200      	movs	r2, #0
   10e70:	e008      	b.n	10e84 <storageHandler(str&, CharDev&, void*)+0x2c>
   10e72:	4920      	ldr	r1, [pc, #128]	; (10ef4 <storageHandler(str&, CharDev&, void*)+0x9c>)
   10e74:	4630      	mov	r0, r6
   10e76:	f007 f859 	bl	17f2c <str::operator==(char const*) const>
   10e7a:	4604      	mov	r4, r0
   10e7c:	b160      	cbz	r0, 10e98 <storageHandler(str&, CharDev&, void*)+0x40>
   10e7e:	f7ff fb13 	bl	104a8 <Storage::getFlashDrive()>
   10e82:	463a      	mov	r2, r7
   10e84:	4611      	mov	r1, r2
   10e86:	f200 2035 	addw	r0, r0, #565	; 0x235
   10e8a:	f005 fdad 	bl	169e8 <f_mkfs>
   10e8e:	f04f 32ff 	mov.w	r2, #4294967295
   10e92:	4b19      	ldr	r3, [pc, #100]	; (10ef8 <storageHandler(str&, CharDev&, void*)+0xa0>)
   10e94:	4919      	ldr	r1, [pc, #100]	; (10efc <storageHandler(str&, CharDev&, void*)+0xa4>)
   10e96:	e022      	b.n	10ede <storageHandler(str&, CharDev&, void*)+0x86>
   10e98:	4919      	ldr	r1, [pc, #100]	; (10f00 <storageHandler(str&, CharDev&, void*)+0xa8>)
   10e9a:	4630      	mov	r0, r6
   10e9c:	f007 f846 	bl	17f2c <str::operator==(char const*) const>
   10ea0:	4604      	mov	r4, r0
   10ea2:	b158      	cbz	r0, 10ebc <storageHandler(str&, CharDev&, void*)+0x64>
   10ea4:	f7ff fb24 	bl	104f0 <Storage::getSDDrive()>
   10ea8:	2201      	movs	r2, #1
   10eaa:	f200 2135 	addw	r1, r0, #565	; 0x235
   10eae:	f004 ffcd 	bl	15e4c <f_mount>
   10eb2:	f04f 32ff 	mov.w	r2, #4294967295
   10eb6:	4b13      	ldr	r3, [pc, #76]	; (10f04 <storageHandler(str&, CharDev&, void*)+0xac>)
   10eb8:	4913      	ldr	r1, [pc, #76]	; (10f08 <storageHandler(str&, CharDev&, void*)+0xb0>)
   10eba:	e010      	b.n	10ede <storageHandler(str&, CharDev&, void*)+0x86>
   10ebc:	4913      	ldr	r1, [pc, #76]	; (10f0c <storageHandler(str&, CharDev&, void*)+0xb4>)
   10ebe:	4630      	mov	r0, r6
   10ec0:	f007 f834 	bl	17f2c <str::operator==(char const*) const>
   10ec4:	4604      	mov	r4, r0
   10ec6:	b180      	cbz	r0, 10eea <storageHandler(str&, CharDev&, void*)+0x92>
   10ec8:	f7ff faee 	bl	104a8 <Storage::getFlashDrive()>
   10ecc:	2201      	movs	r2, #1
   10ece:	f200 2135 	addw	r1, r0, #565	; 0x235
   10ed2:	f004 ffbb 	bl	15e4c <f_mount>
   10ed6:	4b0e      	ldr	r3, [pc, #56]	; (10f10 <storageHandler(str&, CharDev&, void*)+0xb8>)
   10ed8:	490e      	ldr	r1, [pc, #56]	; (10f14 <storageHandler(str&, CharDev&, void*)+0xbc>)
   10eda:	f04f 32ff 	mov.w	r2, #4294967295
   10ede:	2800      	cmp	r0, #0
   10ee0:	bf18      	it	ne
   10ee2:	4619      	movne	r1, r3
   10ee4:	4628      	mov	r0, r5
   10ee6:	f007 fe1d 	bl	18b24 <CharDev::putline(char const*, unsigned int)>
   10eea:	4620      	mov	r0, r4
   10eec:	bdf8      	pop	{r3, r4, r5, r6, r7, pc}
   10eee:	bf00      	nop
   10ef0:	000234fa 	.word	0x000234fa
   10ef4:	00023504 	.word	0x00023504
   10ef8:	0002349c 	.word	0x0002349c
   10efc:	00023492 	.word	0x00023492
   10f00:	00023511 	.word	0x00023511
   10f04:	000234b9 	.word	0x000234b9
   10f08:	000234a9 	.word	0x000234a9
   10f0c:	0002351a 	.word	0x0002351a
   10f10:	000234de 	.word	0x000234de
   10f14:	000234d0 	.word	0x000234d0

00010f18 <rebootHandler(str&, CharDev&, void*)>:
_Z13rebootHandlerR3strR7CharDevPv():
   10f18:	b508      	push	{r3, lr}
   10f1a:	4608      	mov	r0, r1
   10f1c:	f04f 32ff 	mov.w	r2, #4294967295
   10f20:	4908      	ldr	r1, [pc, #32]	; (10f44 <rebootHandler(str&, CharDev&, void*)+0x2c>)
   10f22:	f007 fdff 	bl	18b24 <CharDev::putline(char const*, unsigned int)>
   10f26:	f006 fa79 	bl	1741c <logger_send_flush_request>
   10f2a:	f44f 60fa 	mov.w	r0, #2000	; 0x7d0
   10f2e:	f008 ffe7 	bl	19f00 <vTaskDelay>
   10f32:	f04f 4380 	mov.w	r3, #1073741824	; 0x40000000
   10f36:	22aa      	movs	r2, #170	; 0xaa
   10f38:	721a      	strb	r2, [r3, #8]
   10f3a:	2200      	movs	r2, #0
   10f3c:	701a      	strb	r2, [r3, #0]
   10f3e:	2001      	movs	r0, #1
   10f40:	bd08      	pop	{r3, pc}
   10f42:	bf00      	nop
   10f44:	00023526 	.word	0x00023526

00010f48 <learnIrHandler(str&, CharDev&, void*)>:
_Z14learnIrHandlerR3strR7CharDevPv():
   10f48:	b510      	push	{r4, lr}
   10f4a:	2001      	movs	r0, #1
   10f4c:	460c      	mov	r4, r1
   10f4e:	f006 fe29 	bl	17ba4 <scheduler_task::getSharedObject(unsigned char)>
   10f52:	b140      	cbz	r0, 10f66 <learnIrHandler(str&, CharDev&, void*)+0x1e>
   10f54:	2300      	movs	r3, #0
   10f56:	461a      	mov	r2, r3
   10f58:	4619      	mov	r1, r3
   10f5a:	f008 fae3 	bl	19524 <xQueueGenericSend>
   10f5e:	f04f 32ff 	mov.w	r2, #4294967295
   10f62:	4905      	ldr	r1, [pc, #20]	; (10f78 <learnIrHandler(str&, CharDev&, void*)+0x30>)
   10f64:	e002      	b.n	10f6c <learnIrHandler(str&, CharDev&, void*)+0x24>
   10f66:	4905      	ldr	r1, [pc, #20]	; (10f7c <learnIrHandler(str&, CharDev&, void*)+0x34>)
   10f68:	f04f 32ff 	mov.w	r2, #4294967295
   10f6c:	4620      	mov	r0, r4
   10f6e:	f007 fdd9 	bl	18b24 <CharDev::putline(char const*, unsigned int)>
   10f72:	2001      	movs	r0, #1
   10f74:	bd10      	pop	{r4, pc}
   10f76:	bf00      	nop
   10f78:	00023537 	.word	0x00023537
   10f7c:	0002354d 	.word	0x0002354d

00010f80 <SingletonTemplate<I2C2>::getInstance()>:
_ZN17SingletonTemplateI4I2C2E11getInstanceEv():
   10f80:	b538      	push	{r3, r4, r5, lr}
   10f82:	4c06      	ldr	r4, [pc, #24]	; (10f9c <SingletonTemplate<I2C2>::getInstance()+0x1c>)
   10f84:	6823      	ldr	r3, [r4, #0]
   10f86:	b933      	cbnz	r3, 10f96 <SingletonTemplate<I2C2>::getInstance()+0x16>
   10f88:	201c      	movs	r0, #28
   10f8a:	f7ff f979 	bl	10280 <operator new(unsigned int)>
   10f8e:	4605      	mov	r5, r0
   10f90:	f007 fa96 	bl	184c0 <I2C2::I2C2()>
   10f94:	6025      	str	r5, [r4, #0]
   10f96:	6820      	ldr	r0, [r4, #0]
   10f98:	bd38      	pop	{r3, r4, r5, pc}
   10f9a:	bf00      	nop
   10f9c:	2007c320 	.word	0x2007c320

00010fa0 <healthHandler(str&, CharDev&, void*)>:
_Z13healthHandlerR3strR7CharDevPv():
   10fa0:	e92d 4ff0 	stmdb	sp!, {r4, r5, r6, r7, r8, r9, sl, fp, lr}
   10fa4:	4c5f      	ldr	r4, [pc, #380]	; (11124 <healthHandler(str&, CharDev&, void*)+0x184>)
   10fa6:	b091      	sub	sp, #68	; 0x44
   10fa8:	6823      	ldr	r3, [r4, #0]
   10faa:	460e      	mov	r6, r1
   10fac:	b933      	cbnz	r3, 10fbc <healthHandler(str&, CharDev&, void*)+0x1c>
   10fae:	202c      	movs	r0, #44	; 0x2c
   10fb0:	f7ff f966 	bl	10280 <operator new(unsigned int)>
   10fb4:	4605      	mov	r5, r0
   10fb6:	f007 fd17 	bl	189e8 <Uart0::Uart0()>
   10fba:	6025      	str	r5, [r4, #0]
   10fbc:	6827      	ldr	r7, [r4, #0]
   10fbe:	f7ff fa73 	bl	104a8 <Storage::getFlashDrive()>
   10fc2:	2400      	movs	r4, #0
   10fc4:	aa0c      	add	r2, sp, #48	; 0x30
   10fc6:	a90d      	add	r1, sp, #52	; 0x34
   10fc8:	f200 2035 	addw	r0, r0, #565	; 0x235
   10fcc:	940d      	str	r4, [sp, #52]	; 0x34
   10fce:	f005 fb10 	bl	165f2 <f_getfree>
   10fd2:	b948      	cbnz	r0, 10fe8 <healthHandler(str&, CharDev&, void*)+0x48>
   10fd4:	9a0c      	ldr	r2, [sp, #48]	; 0x30
   10fd6:	9c0d      	ldr	r4, [sp, #52]	; 0x34
   10fd8:	6995      	ldr	r5, [r2, #24]
   10fda:	7893      	ldrb	r3, [r2, #2]
   10fdc:	3d02      	subs	r5, #2
   10fde:	435c      	muls	r4, r3
   10fe0:	435d      	muls	r5, r3
   10fe2:	0864      	lsrs	r4, r4, #1
   10fe4:	086d      	lsrs	r5, r5, #1
   10fe6:	e000      	b.n	10fea <healthHandler(str&, CharDev&, void*)+0x4a>
   10fe8:	4625      	mov	r5, r4
   10fea:	4b4f      	ldr	r3, [pc, #316]	; (11128 <healthHandler(str&, CharDev&, void*)+0x188>)
   10fec:	681a      	ldr	r2, [r3, #0]
   10fee:	4698      	mov	r8, r3
   10ff0:	b97a      	cbnz	r2, 11012 <healthHandler(str&, CharDev&, void*)+0x72>
   10ff2:	200c      	movs	r0, #12
   10ff4:	f7ff f944 	bl	10280 <operator new(unsigned int)>
   10ff8:	4681      	mov	r9, r0
   10ffa:	f7ff ffc1 	bl	10f80 <SingletonTemplate<I2C2>::getInstance()>
   10ffe:	2390      	movs	r3, #144	; 0x90
   11000:	f889 3004 	strb.w	r3, [r9, #4]
   11004:	2300      	movs	r3, #0
   11006:	f8c9 0000 	str.w	r0, [r9]
   1100a:	f8c9 3008 	str.w	r3, [r9, #8]
   1100e:	f8c8 9000 	str.w	r9, [r8]
   11012:	f8d8 0000 	ldr.w	r0, [r8]
   11016:	f002 fefb 	bl	13e10 <I2C_Temp::getFarenheit()>
   1101a:	4681      	mov	r9, r0
   1101c:	f00a ff62 	bl	1bee4 <__aeabi_f2iz>
   11020:	900a      	str	r0, [sp, #40]	; 0x28
   11022:	f00a fdbb 	bl	1bb9c <__aeabi_i2f>
   11026:	4601      	mov	r1, r0
   11028:	4648      	mov	r0, r9
   1102a:	f00a fd01 	bl	1ba30 <__aeabi_fsub>
   1102e:	493f      	ldr	r1, [pc, #252]	; (1112c <healthHandler(str&, CharDev&, void*)+0x18c>)
   11030:	f00a fe08 	bl	1bc44 <__aeabi_fmul>
   11034:	f00a ff56 	bl	1bee4 <__aeabi_f2iz>
   11038:	4681      	mov	r9, r0
   1103a:	a80d      	add	r0, sp, #52	; 0x34
   1103c:	f009 fba4 	bl	1a788 <sys_get_boot_time>
   11040:	f003 fe3c 	bl	14cbc <flash_supports_metadata>
   11044:	b368      	cbz	r0, 110a2 <healthHandler(str&, CharDev&, void*)+0x102>
   11046:	f007 fc71 	bl	1892c <spi1_lock>
   1104a:	f003 fe21 	bl	14c90 <flash_get_page_count>
   1104e:	f04f 0a00 	mov.w	sl, #0
   11052:	4603      	mov	r3, r0
   11054:	46d3      	mov	fp, sl
   11056:	46d0      	mov	r8, sl
   11058:	459a      	cmp	sl, r3
   1105a:	930b      	str	r3, [sp, #44]	; 0x2c
   1105c:	d00b      	beq.n	11076 <healthHandler(str&, CharDev&, void*)+0xd6>
   1105e:	4650      	mov	r0, sl
   11060:	f003 fe7a 	bl	14d58 <flash_get_page_write_count>
   11064:	4580      	cmp	r8, r0
   11066:	bf38      	it	cc
   11068:	46d3      	movcc	fp, sl
   1106a:	9b0b      	ldr	r3, [sp, #44]	; 0x2c
   1106c:	bf38      	it	cc
   1106e:	4680      	movcc	r8, r0
   11070:	f10a 0a01 	add.w	sl, sl, #1
   11074:	e7f0      	b.n	11058 <healthHandler(str&, CharDev&, void*)+0xb8>
   11076:	f007 fc71 	bl	1895c <spi1_unlock>
   1107a:	2364      	movs	r3, #100	; 0x64
   1107c:	fb03 f308 	mul.w	r3, r3, r8
   11080:	4a2b      	ldr	r2, [pc, #172]	; (11130 <healthHandler(str&, CharDev&, void*)+0x190>)
   11082:	f8cd 8008 	str.w	r8, [sp, #8]
   11086:	fbb3 f3f2 	udiv	r3, r3, r2
   1108a:	f1c3 0364 	rsb	r3, r3, #100	; 0x64
   1108e:	9300      	str	r3, [sp, #0]
   11090:	f8cd b004 	str.w	fp, [sp, #4]
   11094:	462b      	mov	r3, r5
   11096:	4622      	mov	r2, r4
   11098:	4926      	ldr	r1, [pc, #152]	; (11134 <healthHandler(str&, CharDev&, void*)+0x194>)
   1109a:	4630      	mov	r0, r6
   1109c:	f007 fd78 	bl	18b90 <CharDev::printf(char const*, ...)>
   110a0:	e005      	b.n	110ae <healthHandler(str&, CharDev&, void*)+0x10e>
   110a2:	462b      	mov	r3, r5
   110a4:	4622      	mov	r2, r4
   110a6:	4924      	ldr	r1, [pc, #144]	; (11138 <healthHandler(str&, CharDev&, void*)+0x198>)
   110a8:	4630      	mov	r0, r6
   110aa:	f007 fd71 	bl	18b90 <CharDev::printf(char const*, ...)>
   110ae:	4c23      	ldr	r4, [pc, #140]	; (1113c <healthHandler(str&, CharDev&, void*)+0x19c>)
   110b0:	6823      	ldr	r3, [r4, #0]
   110b2:	b91b      	cbnz	r3, 110bc <healthHandler(str&, CharDev&, void*)+0x11c>
   110b4:	2001      	movs	r0, #1
   110b6:	f7ff f8e3 	bl	10280 <operator new(unsigned int)>
   110ba:	6020      	str	r0, [r4, #0]
   110bc:	6820      	ldr	r0, [r4, #0]
   110be:	f002 fe6b 	bl	13d98 <Light_Sensor::getRawValue()>
   110c2:	4604      	mov	r4, r0
   110c4:	f007 fbb8 	bl	18838 <rtc_get_date_time_str>
   110c8:	8cfb      	ldrh	r3, [r7, #38]	; 0x26
   110ca:	9a0a      	ldr	r2, [sp, #40]	; 0x28
   110cc:	9309      	str	r3, [sp, #36]	; 0x24
   110ce:	8cbb      	ldrh	r3, [r7, #36]	; 0x24
   110d0:	491b      	ldr	r1, [pc, #108]	; (11140 <healthHandler(str&, CharDev&, void*)+0x1a0>)
   110d2:	9308      	str	r3, [sp, #32]
   110d4:	f89d 3034 	ldrb.w	r3, [sp, #52]	; 0x34
   110d8:	9001      	str	r0, [sp, #4]
   110da:	f003 033f 	and.w	r3, r3, #63	; 0x3f
   110de:	9307      	str	r3, [sp, #28]
   110e0:	f89d 3035 	ldrb.w	r3, [sp, #53]	; 0x35
   110e4:	9400      	str	r4, [sp, #0]
   110e6:	f003 033f 	and.w	r3, r3, #63	; 0x3f
   110ea:	9306      	str	r3, [sp, #24]
   110ec:	f89d 3036 	ldrb.w	r3, [sp, #54]	; 0x36
   110f0:	4630      	mov	r0, r6
   110f2:	f003 031f 	and.w	r3, r3, #31
   110f6:	9305      	str	r3, [sp, #20]
   110f8:	f8bd 303a 	ldrh.w	r3, [sp, #58]	; 0x3a
   110fc:	f3c3 030b 	ubfx	r3, r3, #0, #12
   11100:	9304      	str	r3, [sp, #16]
   11102:	f89d 3038 	ldrb.w	r3, [sp, #56]	; 0x38
   11106:	f003 031f 	and.w	r3, r3, #31
   1110a:	9303      	str	r3, [sp, #12]
   1110c:	f89d 3039 	ldrb.w	r3, [sp, #57]	; 0x39
   11110:	f003 030f 	and.w	r3, r3, #15
   11114:	9302      	str	r3, [sp, #8]
   11116:	464b      	mov	r3, r9
   11118:	f007 fd3a 	bl	18b90 <CharDev::printf(char const*, ...)>
   1111c:	2001      	movs	r0, #1
   1111e:	b011      	add	sp, #68	; 0x44
   11120:	e8bd 8ff0 	ldmia.w	sp!, {r4, r5, r6, r7, r8, r9, sl, fp, pc}
   11124:	2007c324 	.word	0x2007c324
   11128:	2007c318 	.word	0x2007c318
   1112c:	41200000 	.word	0x41200000
   11130:	000186a0 	.word	0x000186a0
   11134:	00023586 	.word	0x00023586
   11138:	000235ba 	.word	0x000235ba
   1113c:	2007c31c 	.word	0x2007c31c
   11140:	000235c8 	.word	0x000235c8

00011144 <i2cIoHandler(str&, CharDev&, void*)>:
_Z12i2cIoHandlerR3strR7CharDevPv():
   11144:	e92d 4ff0 	stmdb	sp!, {r4, r5, r6, r7, r8, r9, sl, fp, lr}
   11148:	460d      	mov	r5, r1
   1114a:	b0c7      	sub	sp, #284	; 0x11c
   1114c:	4955      	ldr	r1, [pc, #340]	; (112a4 <i2cIoHandler(str&, CharDev&, void*)+0x160>)
   1114e:	4681      	mov	r9, r0
   11150:	f006 fe13 	bl	17d7a <str::beginsWithIgnoreCase(char const*) const>
   11154:	4954      	ldr	r1, [pc, #336]	; (112a8 <i2cIoHandler(str&, CharDev&, void*)+0x164>)
   11156:	4682      	mov	sl, r0
   11158:	4648      	mov	r0, r9
   1115a:	f006 fe0e 	bl	17d7a <str::beginsWithIgnoreCase(char const*) const>
   1115e:	4953      	ldr	r1, [pc, #332]	; (112ac <i2cIoHandler(str&, CharDev&, void*)+0x168>)
   11160:	4683      	mov	fp, r0
   11162:	4648      	mov	r0, r9
   11164:	f006 fe09 	bl	17d7a <str::beginsWithIgnoreCase(char const*) const>
   11168:	2700      	movs	r7, #0
   1116a:	f10d 0810 	add.w	r8, sp, #16
   1116e:	ae05      	add	r6, sp, #20
   11170:	4604      	mov	r4, r0
   11172:	9702      	str	r7, [sp, #8]
   11174:	9703      	str	r7, [sp, #12]
   11176:	f8c8 7000 	str.w	r7, [r8]
   1117a:	6037      	str	r7, [r6, #0]
   1117c:	f1ba 0f00 	cmp.w	sl, #0
   11180:	d045      	beq.n	1120e <i2cIoHandler(str&, CharDev&, void*)+0xca>
   11182:	9600      	str	r6, [sp, #0]
   11184:	ab03      	add	r3, sp, #12
   11186:	aa02      	add	r2, sp, #8
   11188:	4949      	ldr	r1, [pc, #292]	; (112b0 <i2cIoHandler(str&, CharDev&, void*)+0x16c>)
   1118a:	4648      	mov	r0, r9
   1118c:	f006 fd46 	bl	17c1c <str::scanf(char const*, ...)>
   11190:	2801      	cmp	r0, #1
   11192:	dc07      	bgt.n	111a4 <i2cIoHandler(str&, CharDev&, void*)+0x60>
   11194:	4628      	mov	r0, r5
   11196:	f04f 32ff 	mov.w	r2, #4294967295
   1119a:	4946      	ldr	r1, [pc, #280]	; (112b4 <i2cIoHandler(str&, CharDev&, void*)+0x170>)
   1119c:	f007 fcc2 	bl	18b24 <CharDev::putline(char const*, unsigned int)>
   111a0:	4638      	mov	r0, r7
   111a2:	e07c      	b.n	1129e <i2cIoHandler(str&, CharDev&, void*)+0x15a>
   111a4:	f10d 0818 	add.w	r8, sp, #24
   111a8:	f44f 7480 	mov.w	r4, #256	; 0x100
   111ac:	4622      	mov	r2, r4
   111ae:	4639      	mov	r1, r7
   111b0:	4640      	mov	r0, r8
   111b2:	f00b fb02 	bl	1c7ba <memset>
   111b6:	6833      	ldr	r3, [r6, #0]
   111b8:	b913      	cbnz	r3, 111c0 <i2cIoHandler(str&, CharDev&, void*)+0x7c>
   111ba:	2301      	movs	r3, #1
   111bc:	6033      	str	r3, [r6, #0]
   111be:	e003      	b.n	111c8 <i2cIoHandler(str&, CharDev&, void*)+0x84>
   111c0:	f5b3 7f80 	cmp.w	r3, #256	; 0x100
   111c4:	bf88      	it	hi
   111c6:	6034      	strhi	r4, [r6, #0]
   111c8:	f7ff feda 	bl	10f80 <SingletonTemplate<I2C2>::getInstance()>
   111cc:	6833      	ldr	r3, [r6, #0]
   111ce:	f89d 200c 	ldrb.w	r2, [sp, #12]
   111d2:	f89d 1008 	ldrb.w	r1, [sp, #8]
   111d6:	9300      	str	r3, [sp, #0]
   111d8:	4643      	mov	r3, r8
   111da:	f007 fd9f 	bl	18d1c <I2C_Base::readRegisters(unsigned char, unsigned char, unsigned char*, unsigned long)>
   111de:	4a36      	ldr	r2, [pc, #216]	; (112b8 <i2cIoHandler(str&, CharDev&, void*)+0x174>)
   111e0:	4b36      	ldr	r3, [pc, #216]	; (112bc <i2cIoHandler(str&, CharDev&, void*)+0x178>)
   111e2:	4937      	ldr	r1, [pc, #220]	; (112c0 <i2cIoHandler(str&, CharDev&, void*)+0x17c>)
   111e4:	2800      	cmp	r0, #0
   111e6:	bf18      	it	ne
   111e8:	4613      	movne	r3, r2
   111ea:	9a02      	ldr	r2, [sp, #8]
   111ec:	4628      	mov	r0, r5
   111ee:	f007 fccf 	bl	18b90 <CharDev::printf(char const*, ...)>
   111f2:	2400      	movs	r4, #0
   111f4:	6833      	ldr	r3, [r6, #0]
   111f6:	429c      	cmp	r4, r3
   111f8:	d24e      	bcs.n	11298 <i2cIoHandler(str&, CharDev&, void*)+0x154>
   111fa:	9a03      	ldr	r2, [sp, #12]
   111fc:	f818 3004 	ldrb.w	r3, [r8, r4]
   11200:	4422      	add	r2, r4
   11202:	4930      	ldr	r1, [pc, #192]	; (112c4 <i2cIoHandler(str&, CharDev&, void*)+0x180>)
   11204:	4628      	mov	r0, r5
   11206:	f007 fcc3 	bl	18b90 <CharDev::printf(char const*, ...)>
   1120a:	3401      	adds	r4, #1
   1120c:	e7f2      	b.n	111f4 <i2cIoHandler(str&, CharDev&, void*)+0xb0>
   1120e:	f1bb 0f00 	cmp.w	fp, #0
   11212:	d02c      	beq.n	1126e <i2cIoHandler(str&, CharDev&, void*)+0x12a>
   11214:	f8cd 8000 	str.w	r8, [sp]
   11218:	ab03      	add	r3, sp, #12
   1121a:	aa02      	add	r2, sp, #8
   1121c:	492a      	ldr	r1, [pc, #168]	; (112c8 <i2cIoHandler(str&, CharDev&, void*)+0x184>)
   1121e:	4648      	mov	r0, r9
   11220:	f006 fcfc 	bl	17c1c <str::scanf(char const*, ...)>
   11224:	2803      	cmp	r0, #3
   11226:	d007      	beq.n	11238 <i2cIoHandler(str&, CharDev&, void*)+0xf4>
   11228:	4628      	mov	r0, r5
   1122a:	f04f 32ff 	mov.w	r2, #4294967295
   1122e:	4927      	ldr	r1, [pc, #156]	; (112cc <i2cIoHandler(str&, CharDev&, void*)+0x188>)
   11230:	f007 fc78 	bl	18b24 <CharDev::putline(char const*, unsigned int)>
   11234:	4650      	mov	r0, sl
   11236:	e032      	b.n	1129e <i2cIoHandler(str&, CharDev&, void*)+0x15a>
   11238:	f7ff fea2 	bl	10f80 <SingletonTemplate<I2C2>::getInstance()>
   1123c:	f898 3000 	ldrb.w	r3, [r8]
   11240:	f89d 200c 	ldrb.w	r2, [sp, #12]
   11244:	f89d 1008 	ldrb.w	r1, [sp, #8]
   11248:	f007 fd7d 	bl	18d46 <I2C_Base::writeReg(unsigned char, unsigned char, unsigned char)>
   1124c:	b148      	cbz	r0, 11262 <i2cIoHandler(str&, CharDev&, void*)+0x11e>
   1124e:	9b03      	ldr	r3, [sp, #12]
   11250:	491f      	ldr	r1, [pc, #124]	; (112d0 <i2cIoHandler(str&, CharDev&, void*)+0x18c>)
   11252:	9300      	str	r3, [sp, #0]
   11254:	f8d8 2000 	ldr.w	r2, [r8]
   11258:	9b02      	ldr	r3, [sp, #8]
   1125a:	4628      	mov	r0, r5
   1125c:	f007 fc98 	bl	18b90 <CharDev::printf(char const*, ...)>
   11260:	e01a      	b.n	11298 <i2cIoHandler(str&, CharDev&, void*)+0x154>
   11262:	9a02      	ldr	r2, [sp, #8]
   11264:	491b      	ldr	r1, [pc, #108]	; (112d4 <i2cIoHandler(str&, CharDev&, void*)+0x190>)
   11266:	4628      	mov	r0, r5
   11268:	f007 fc92 	bl	18b90 <CharDev::printf(char const*, ...)>
   1126c:	e014      	b.n	11298 <i2cIoHandler(str&, CharDev&, void*)+0x154>
   1126e:	b1a8      	cbz	r0, 1129c <i2cIoHandler(str&, CharDev&, void*)+0x158>
   11270:	2302      	movs	r3, #2
   11272:	9302      	str	r3, [sp, #8]
   11274:	9b02      	ldr	r3, [sp, #8]
   11276:	2bfe      	cmp	r3, #254	; 0xfe
   11278:	dc10      	bgt.n	1129c <i2cIoHandler(str&, CharDev&, void*)+0x158>
   1127a:	f7ff fe81 	bl	10f80 <SingletonTemplate<I2C2>::getInstance()>
   1127e:	f89d 1008 	ldrb.w	r1, [sp, #8]
   11282:	f007 fd6b 	bl	18d5c <I2C_Base::checkDeviceResponse(unsigned char)>
   11286:	b120      	cbz	r0, 11292 <i2cIoHandler(str&, CharDev&, void*)+0x14e>
   11288:	9a02      	ldr	r2, [sp, #8]
   1128a:	4913      	ldr	r1, [pc, #76]	; (112d8 <i2cIoHandler(str&, CharDev&, void*)+0x194>)
   1128c:	4628      	mov	r0, r5
   1128e:	f007 fc7f 	bl	18b90 <CharDev::printf(char const*, ...)>
   11292:	9b02      	ldr	r3, [sp, #8]
   11294:	3302      	adds	r3, #2
   11296:	e7ec      	b.n	11272 <i2cIoHandler(str&, CharDev&, void*)+0x12e>
   11298:	2001      	movs	r0, #1
   1129a:	e000      	b.n	1129e <i2cIoHandler(str&, CharDev&, void*)+0x15a>
   1129c:	4620      	mov	r0, r4
   1129e:	b047      	add	sp, #284	; 0x11c
   112a0:	e8bd 8ff0 	ldmia.w	sp!, {r4, r5, r6, r7, r8, r9, sl, fp, pc}
   112a4:	00024361 	.word	0x00024361
   112a8:	00023631 	.word	0x00023631
   112ac:	00023637 	.word	0x00023637
   112b0:	00023640 	.word	0x00023640
   112b4:	0002364f 	.word	0x0002364f
   112b8:	00023499 	.word	0x00023499
   112bc:	000234a3 	.word	0x000234a3
   112c0:	00023670 	.word	0x00023670
   112c4:	00023694 	.word	0x00023694
   112c8:	000236a4 	.word	0x000236a4
   112cc:	000236b4 	.word	0x000236b4
   112d0:	000236db 	.word	0x000236db
   112d4:	000236f5 	.word	0x000236f5
   112d8:	00023712 	.word	0x00023712

000112dc <flashProgHandler(str&, CharDev&, void*)>:
_Z16flashProgHandlerR3strR7CharDevPv():
   112dc:	b570      	push	{r4, r5, r6, lr}
   112de:	f5ad 7d0a 	sub.w	sp, sp, #552	; 0x228
   112e2:	4605      	mov	r5, r0
   112e4:	460c      	mov	r4, r1
   112e6:	f006 fc90 	bl	17c0a <str::getLen() const>
   112ea:	280b      	cmp	r0, #11
   112ec:	dd02      	ble.n	112f4 <flashProgHandler(str&, CharDev&, void*)+0x18>
   112ee:	220c      	movs	r2, #12
   112f0:	4922      	ldr	r1, [pc, #136]	; (1137c <flashProgHandler(str&, CharDev&, void*)+0xa0>)
   112f2:	e03c      	b.n	1136e <flashProgHandler(str&, CharDev&, void*)+0x92>
   112f4:	4628      	mov	r0, r5
   112f6:	f006 fe1b 	bl	17f30 <str::operator()() const>
   112fa:	2201      	movs	r2, #1
   112fc:	4601      	mov	r1, r0
   112fe:	a801      	add	r0, sp, #4
   11300:	f004 fde2 	bl	15ec8 <f_open>
   11304:	4606      	mov	r6, r0
   11306:	bb68      	cbnz	r0, 11364 <flashProgHandler(str&, CharDev&, void*)+0x88>
   11308:	a801      	add	r0, sp, #4
   1130a:	f005 f846 	bl	1639a <f_close>
   1130e:	4628      	mov	r0, r5
   11310:	f006 fe0e 	bl	17f30 <str::operator()() const>
   11314:	491a      	ldr	r1, [pc, #104]	; (11380 <flashProgHandler(str&, CharDev&, void*)+0xa4>)
   11316:	4602      	mov	r2, r0
   11318:	9b04      	ldr	r3, [sp, #16]
   1131a:	4620      	mov	r0, r4
   1131c:	f007 fc38 	bl	18b90 <CharDev::printf(char const*, ...)>
   11320:	6823      	ldr	r3, [r4, #0]
   11322:	4620      	mov	r0, r4
   11324:	689b      	ldr	r3, [r3, #8]
   11326:	4798      	blx	r3
   11328:	200a      	movs	r0, #10
   1132a:	f008 fde9 	bl	19f00 <vTaskDelay>
   1132e:	f04f 0310 	mov.w	r3, #16
   11332:	f383 8811 	msr	BASEPRI, r3
   11336:	f3bf 8f6f 	isb	sy
   1133a:	f3bf 8f4f 	dsb	sy
   1133e:	4628      	mov	r0, r5
   11340:	f006 fdf6 	bl	17f30 <str::operator()() const>
   11344:	4602      	mov	r2, r0
   11346:	4b0f      	ldr	r3, [pc, #60]	; (11384 <flashProgHandler(str&, CharDev&, void*)+0xa8>)
   11348:	6800      	ldr	r0, [r0, #0]
   1134a:	6851      	ldr	r1, [r2, #4]
   1134c:	c303      	stmia	r3!, {r0, r1}
   1134e:	6890      	ldr	r0, [r2, #8]
   11350:	4a0d      	ldr	r2, [pc, #52]	; (11388 <flashProgHandler(str&, CharDev&, void*)+0xac>)
   11352:	6018      	str	r0, [r3, #0]
   11354:	f843 2c0c 	str.w	r2, [r3, #-12]
   11358:	f04f 4380 	mov.w	r3, #1073741824	; 0x40000000
   1135c:	22aa      	movs	r2, #170	; 0xaa
   1135e:	721a      	strb	r2, [r3, #8]
   11360:	701e      	strb	r6, [r3, #0]
   11362:	e007      	b.n	11374 <flashProgHandler(str&, CharDev&, void*)+0x98>
   11364:	4628      	mov	r0, r5
   11366:	f006 fde3 	bl	17f30 <str::operator()() const>
   1136a:	4602      	mov	r2, r0
   1136c:	4907      	ldr	r1, [pc, #28]	; (1138c <flashProgHandler(str&, CharDev&, void*)+0xb0>)
   1136e:	4620      	mov	r0, r4
   11370:	f007 fc0e 	bl	18b90 <CharDev::printf(char const*, ...)>
   11374:	2001      	movs	r0, #1
   11376:	f50d 7d0a 	add.w	sp, sp, #552	; 0x228
   1137a:	bd70      	pop	{r4, r5, r6, pc}
   1137c:	0002374c 	.word	0x0002374c
   11380:	00023773 	.word	0x00023773
   11384:	40024048 	.word	0x40024048
   11388:	deadd00d 	.word	0xdeadd00d
   1138c:	000237ba 	.word	0x000237ba

00011390 <getFileHandler(str&, CharDev&, void*)>:
_Z14getFileHandlerR3strR7CharDevPv():
   11390:	e92d 41f0 	stmdb	sp!, {r4, r5, r6, r7, r8, lr}
   11394:	4c40      	ldr	r4, [pc, #256]	; (11498 <getFileHandler(str&, CharDev&, void*)+0x108>)
   11396:	b0a4      	sub	sp, #144	; 0x90
   11398:	6823      	ldr	r3, [r4, #0]
   1139a:	4606      	mov	r6, r0
   1139c:	07db      	lsls	r3, r3, #31
   1139e:	460d      	mov	r5, r1
   113a0:	d40c      	bmi.n	113bc <getFileHandler(str&, CharDev&, void*)+0x2c>
   113a2:	4620      	mov	r0, r4
   113a4:	f00a f8e8 	bl	1b578 <__cxa_guard_acquire>
   113a8:	b140      	cbz	r0, 113bc <getFileHandler(str&, CharDev&, void*)+0x2c>
   113aa:	f44f 6080 	mov.w	r0, #1024	; 0x400
   113ae:	f00b f99f 	bl	1c6f0 <malloc>
   113b2:	4b3a      	ldr	r3, [pc, #232]	; (1149c <getFileHandler(str&, CharDev&, void*)+0x10c>)
   113b4:	6018      	str	r0, [r3, #0]
   113b6:	4620      	mov	r0, r4
   113b8:	f00a f8ea 	bl	1b590 <__cxa_guard_release>
   113bc:	4938      	ldr	r1, [pc, #224]	; (114a0 <getFileHandler(str&, CharDev&, void*)+0x110>)
   113be:	4630      	mov	r0, r6
   113c0:	f006 fcdb 	bl	17d7a <str::beginsWithIgnoreCase(char const*) const>
   113c4:	4607      	mov	r7, r0
   113c6:	4604      	mov	r4, r0
   113c8:	b300      	cbz	r0, 1140c <getFileHandler(str&, CharDev&, void*)+0x7c>
   113ca:	2280      	movs	r2, #128	; 0x80
   113cc:	2100      	movs	r1, #0
   113ce:	a804      	add	r0, sp, #16
   113d0:	f00b f9f3 	bl	1c7ba <memset>
   113d4:	2300      	movs	r3, #0
   113d6:	9302      	str	r3, [sp, #8]
   113d8:	9303      	str	r3, [sp, #12]
   113da:	ab03      	add	r3, sp, #12
   113dc:	9300      	str	r3, [sp, #0]
   113de:	aa04      	add	r2, sp, #16
   113e0:	ab02      	add	r3, sp, #8
   113e2:	4930      	ldr	r1, [pc, #192]	; (114a4 <getFileHandler(str&, CharDev&, void*)+0x114>)
   113e4:	4630      	mov	r0, r6
   113e6:	f006 fc19 	bl	17c1c <str::scanf(char const*, ...)>
   113ea:	492c      	ldr	r1, [pc, #176]	; (1149c <getFileHandler(str&, CharDev&, void*)+0x10c>)
   113ec:	9b02      	ldr	r3, [sp, #8]
   113ee:	9a03      	ldr	r2, [sp, #12]
   113f0:	6809      	ldr	r1, [r1, #0]
   113f2:	a804      	add	r0, sp, #16
   113f4:	b913      	cbnz	r3, 113fc <getFileHandler(str&, CharDev&, void*)+0x6c>
   113f6:	f002 fdb9 	bl	13f6c <Storage::write(char const*, void*, unsigned int, unsigned int)>
   113fa:	e001      	b.n	11400 <getFileHandler(str&, CharDev&, void*)+0x70>
   113fc:	f002 fdd8 	bl	13fb0 <Storage::append(char const*, void const*, unsigned int, unsigned int)>
   11400:	4b29      	ldr	r3, [pc, #164]	; (114a8 <getFileHandler(str&, CharDev&, void*)+0x118>)
   11402:	492a      	ldr	r1, [pc, #168]	; (114ac <getFileHandler(str&, CharDev&, void*)+0x11c>)
   11404:	2800      	cmp	r0, #0
   11406:	bf18      	it	ne
   11408:	4619      	movne	r1, r3
   1140a:	e038      	b.n	1147e <getFileHandler(str&, CharDev&, void*)+0xee>
   1140c:	4928      	ldr	r1, [pc, #160]	; (114b0 <getFileHandler(str&, CharDev&, void*)+0x120>)
   1140e:	4630      	mov	r0, r6
   11410:	f006 fcb3 	bl	17d7a <str::beginsWithIgnoreCase(char const*) const>
   11414:	4607      	mov	r7, r0
   11416:	2800      	cmp	r0, #0
   11418:	d03a      	beq.n	11490 <getFileHandler(str&, CharDev&, void*)+0x100>
   1141a:	ab04      	add	r3, sp, #16
   1141c:	4630      	mov	r0, r6
   1141e:	aa03      	add	r2, sp, #12
   11420:	4924      	ldr	r1, [pc, #144]	; (114b4 <getFileHandler(str&, CharDev&, void*)+0x124>)
   11422:	9403      	str	r4, [sp, #12]
   11424:	9404      	str	r4, [sp, #16]
   11426:	f88d 4008 	strb.w	r4, [sp, #8]
   1142a:	f006 fbf7 	bl	17c1c <str::scanf(char const*, ...)>
   1142e:	9e03      	ldr	r6, [sp, #12]
   11430:	9b04      	ldr	r3, [sp, #16]
   11432:	4433      	add	r3, r6
   11434:	f5b3 6f80 	cmp.w	r3, #1024	; 0x400
   11438:	dc02      	bgt.n	11440 <getFileHandler(str&, CharDev&, void*)+0xb0>
   1143a:	f8df 8060 	ldr.w	r8, [pc, #96]	; 1149c <getFileHandler(str&, CharDev&, void*)+0x10c>
   1143e:	e00c      	b.n	1145a <getFileHandler(str&, CharDev&, void*)+0xca>
   11440:	f44f 6280 	mov.w	r2, #1024	; 0x400
   11444:	491c      	ldr	r1, [pc, #112]	; (114b8 <getFileHandler(str&, CharDev&, void*)+0x128>)
   11446:	e020      	b.n	1148a <getFileHandler(str&, CharDev&, void*)+0xfa>
   11448:	f8d8 3000 	ldr.w	r3, [r8]
   1144c:	f89d 2008 	ldrb.w	r2, [sp, #8]
   11450:	559a      	strb	r2, [r3, r6]
   11452:	f89d 3008 	ldrb.w	r3, [sp, #8]
   11456:	3601      	adds	r6, #1
   11458:	441c      	add	r4, r3
   1145a:	9b03      	ldr	r3, [sp, #12]
   1145c:	9a04      	ldr	r2, [sp, #16]
   1145e:	1af3      	subs	r3, r6, r3
   11460:	4293      	cmp	r3, r2
   11462:	da10      	bge.n	11486 <getFileHandler(str&, CharDev&, void*)+0xf6>
   11464:	f5b6 6f80 	cmp.w	r6, #1024	; 0x400
   11468:	da0d      	bge.n	11486 <getFileHandler(str&, CharDev&, void*)+0xf6>
   1146a:	682b      	ldr	r3, [r5, #0]
   1146c:	f44f 62fa 	mov.w	r2, #2000	; 0x7d0
   11470:	681b      	ldr	r3, [r3, #0]
   11472:	a902      	add	r1, sp, #8
   11474:	4628      	mov	r0, r5
   11476:	4798      	blx	r3
   11478:	2800      	cmp	r0, #0
   1147a:	d1e5      	bne.n	11448 <getFileHandler(str&, CharDev&, void*)+0xb8>
   1147c:	490f      	ldr	r1, [pc, #60]	; (114bc <getFileHandler(str&, CharDev&, void*)+0x12c>)
   1147e:	4628      	mov	r0, r5
   11480:	f007 fb86 	bl	18b90 <CharDev::printf(char const*, ...)>
   11484:	e004      	b.n	11490 <getFileHandler(str&, CharDev&, void*)+0x100>
   11486:	4622      	mov	r2, r4
   11488:	490d      	ldr	r1, [pc, #52]	; (114c0 <getFileHandler(str&, CharDev&, void*)+0x130>)
   1148a:	4628      	mov	r0, r5
   1148c:	f007 fb80 	bl	18b90 <CharDev::printf(char const*, ...)>
   11490:	4638      	mov	r0, r7
   11492:	b024      	add	sp, #144	; 0x90
   11494:	e8bd 81f0 	ldmia.w	sp!, {r4, r5, r6, r7, r8, pc}
   11498:	2007c33c 	.word	0x2007c33c
   1149c:	2007c338 	.word	0x2007c338
   114a0:	000237e5 	.word	0x000237e5
   114a4:	000237ec 	.word	0x000237ec
   114a8:	000237d3 	.word	0x000237d3
   114ac:	000237cf 	.word	0x000237cf
   114b0:	000237fc 	.word	0x000237fc
   114b4:	00023803 	.word	0x00023803
   114b8:	0002380d 	.word	0x0002380d
   114bc:	00023831 	.word	0x00023831
   114c0:	00023841 	.word	0x00023841

000114c4 <wsAddrHandler(str&, CharDev&, void*)>:
_ZL13wsAddrHandlerR3strR7CharDevPv():
   114c4:	b538      	push	{r3, r4, r5, lr}
   114c6:	460d      	mov	r5, r1
   114c8:	f006 fd34 	bl	17f34 <str::operator int() const>
   114cc:	4604      	mov	r4, r0
   114ce:	b2c0      	uxtb	r0, r0
   114d0:	f001 fc82 	bl	12dd8 <mesh_set_node_address>
   114d4:	4a05      	ldr	r2, [pc, #20]	; (114ec <wsAddrHandler(str&, CharDev&, void*)+0x28>)
   114d6:	4b06      	ldr	r3, [pc, #24]	; (114f0 <wsAddrHandler(str&, CharDev&, void*)+0x2c>)
   114d8:	4906      	ldr	r1, [pc, #24]	; (114f4 <wsAddrHandler(str&, CharDev&, void*)+0x30>)
   114da:	2800      	cmp	r0, #0
   114dc:	bf18      	it	ne
   114de:	4613      	movne	r3, r2
   114e0:	4622      	mov	r2, r4
   114e2:	4628      	mov	r0, r5
   114e4:	f007 fb54 	bl	18b90 <CharDev::printf(char const*, ...)>
   114e8:	2001      	movs	r0, #1
   114ea:	bd38      	pop	{r3, r4, r5, pc}
   114ec:	00023499 	.word	0x00023499
   114f0:	00023852 	.word	0x00023852
   114f4:	00023859 	.word	0x00023859

000114f8 <wirelessHandlerPrintStats(CharDev&, mesh_stats_t*, unsigned char) [clone .constprop.4]>:
_ZL25wirelessHandlerPrintStatsR7CharDevP12mesh_stats_th.constprop.4():
   114f8:	b530      	push	{r4, r5, lr}
   114fa:	460c      	mov	r4, r1
   114fc:	4605      	mov	r5, r0
   114fe:	b087      	sub	sp, #28
   11500:	490a      	ldr	r1, [pc, #40]	; (1152c <wirelessHandlerPrintStats(CharDev&, mesh_stats_t*, unsigned char) [clone .constprop.4]+0x34>)
   11502:	f007 fb45 	bl	18b90 <CharDev::printf(char const*, ...)>
   11506:	88a1      	ldrh	r1, [r4, #4]
   11508:	8823      	ldrh	r3, [r4, #0]
   1150a:	9104      	str	r1, [sp, #16]
   1150c:	8921      	ldrh	r1, [r4, #8]
   1150e:	8862      	ldrh	r2, [r4, #2]
   11510:	9103      	str	r1, [sp, #12]
   11512:	88e1      	ldrh	r1, [r4, #6]
   11514:	4628      	mov	r0, r5
   11516:	9102      	str	r1, [sp, #8]
   11518:	7ae1      	ldrb	r1, [r4, #11]
   1151a:	9101      	str	r1, [sp, #4]
   1151c:	7aa1      	ldrb	r1, [r4, #10]
   1151e:	9100      	str	r1, [sp, #0]
   11520:	4903      	ldr	r1, [pc, #12]	; (11530 <wirelessHandlerPrintStats(CharDev&, mesh_stats_t*, unsigned char) [clone .constprop.4]+0x38>)
   11522:	f007 fb35 	bl	18b90 <CharDev::printf(char const*, ...)>
   11526:	b007      	add	sp, #28
   11528:	bd30      	pop	{r4, r5, pc}
   1152a:	bf00      	nop
   1152c:	00023870 	.word	0x00023870
   11530:	000238a6 	.word	0x000238a6

00011534 <wsTxHandler(str&, CharDev&, void*)>:
_ZL11wsTxHandlerR3strR7CharDevPv():
   11534:	e92d 41f0 	stmdb	sp!, {r4, r5, r6, r7, r8, lr}
   11538:	b08c      	sub	sp, #48	; 0x30
   1153a:	ab03      	add	r3, sp, #12
   1153c:	2600      	movs	r6, #0
   1153e:	9300      	str	r3, [sp, #0]
   11540:	460d      	mov	r5, r1
   11542:	4690      	mov	r8, r2
   11544:	ab02      	add	r3, sp, #8
   11546:	2202      	movs	r2, #2
   11548:	4938      	ldr	r1, [pc, #224]	; (1162c <wsTxHandler(str&, CharDev&, void*)+0xf8>)
   1154a:	9602      	str	r6, [sp, #8]
   1154c:	9603      	str	r6, [sp, #12]
   1154e:	f006 fb73 	bl	17c38 <str::tokenize(char const*, int, ...)>
   11552:	42b0      	cmp	r0, r6
   11554:	dd66      	ble.n	11624 <wsTxHandler(str&, CharDev&, void*)+0xf0>
   11556:	9802      	ldr	r0, [sp, #8]
   11558:	f00a fea1 	bl	1c29e <atoi>
   1155c:	b2c7      	uxtb	r7, r0
   1155e:	9803      	ldr	r0, [sp, #12]
   11560:	b118      	cbz	r0, 1156a <wsTxHandler(str&, CharDev&, void*)+0x36>
   11562:	f00c fe2b 	bl	1e1bc <strlen>
   11566:	b2c4      	uxtb	r4, r0
   11568:	e000      	b.n	1156c <wsTxHandler(str&, CharDev&, void*)+0x38>
   1156a:	4604      	mov	r4, r0
   1156c:	2100      	movs	r1, #0
   1156e:	a804      	add	r0, sp, #16
   11570:	f002 fad2 	bl	13b18 <wireless_get_rx_pkt>
   11574:	b130      	cbz	r0, 11584 <wsTxHandler(str&, CharDev&, void*)+0x50>
   11576:	f04f 32ff 	mov.w	r2, #4294967295
   1157a:	492d      	ldr	r1, [pc, #180]	; (11630 <wsTxHandler(str&, CharDev&, void*)+0xfc>)
   1157c:	4628      	mov	r0, r5
   1157e:	f007 fad1 	bl	18b24 <CharDev::putline(char const*, unsigned int)>
   11582:	e7f3      	b.n	1156c <wsTxHandler(str&, CharDev&, void*)+0x38>
   11584:	2302      	movs	r3, #2
   11586:	f118 0100 	adds.w	r1, r8, #0
   1158a:	9300      	str	r3, [sp, #0]
   1158c:	9a03      	ldr	r2, [sp, #12]
   1158e:	4623      	mov	r3, r4
   11590:	bf18      	it	ne
   11592:	2101      	movne	r1, #1
   11594:	4638      	mov	r0, r7
   11596:	f001 fd63 	bl	13060 <mesh_send>
   1159a:	4606      	mov	r6, r0
   1159c:	b938      	cbnz	r0, 115ae <wsTxHandler(str&, CharDev&, void*)+0x7a>
   1159e:	f04f 32ff 	mov.w	r2, #4294967295
   115a2:	4924      	ldr	r1, [pc, #144]	; (11634 <wsTxHandler(str&, CharDev&, void*)+0x100>)
   115a4:	4628      	mov	r0, r5
   115a6:	f007 fabd 	bl	18b24 <CharDev::putline(char const*, unsigned int)>
   115aa:	2601      	movs	r6, #1
   115ac:	e03a      	b.n	11624 <wsTxHandler(str&, CharDev&, void*)+0xf0>
   115ae:	f1b8 0f00 	cmp.w	r8, #0
   115b2:	d037      	beq.n	11624 <wsTxHandler(str&, CharDev&, void*)+0xf0>
   115b4:	f44f 717a 	mov.w	r1, #1000	; 0x3e8
   115b8:	a804      	add	r0, sp, #16
   115ba:	f002 fab5 	bl	13b28 <wireless_get_ack_pkt>
   115be:	b360      	cbz	r0, 1161a <wsTxHandler(str&, CharDev&, void*)+0xe6>
   115c0:	f89d 3010 	ldrb.w	r3, [sp, #16]
   115c4:	42bb      	cmp	r3, r7
   115c6:	d128      	bne.n	1161a <wsTxHandler(str&, CharDev&, void*)+0xe6>
   115c8:	f89d 3017 	ldrb.w	r3, [sp, #23]
   115cc:	2b0c      	cmp	r3, #12
   115ce:	d104      	bne.n	115da <wsTxHandler(str&, CharDev&, void*)+0xa6>
   115d0:	463a      	mov	r2, r7
   115d2:	a906      	add	r1, sp, #24
   115d4:	4628      	mov	r0, r5
   115d6:	f7ff ff8f 	bl	114f8 <wirelessHandlerPrintStats(CharDev&, mesh_stats_t*, unsigned char) [clone .constprop.4]>
   115da:	b9bc      	cbnz	r4, 1160c <wsTxHandler(str&, CharDev&, void*)+0xd8>
   115dc:	4916      	ldr	r1, [pc, #88]	; (11638 <wsTxHandler(str&, CharDev&, void*)+0x104>)
   115de:	4628      	mov	r0, r5
   115e0:	f007 fad6 	bl	18b90 <CharDev::printf(char const*, ...)>
   115e4:	f89d 3017 	ldrb.w	r3, [sp, #23]
   115e8:	429c      	cmp	r4, r3
   115ea:	da0a      	bge.n	11602 <wsTxHandler(str&, CharDev&, void*)+0xce>
   115ec:	ab04      	add	r3, sp, #16
   115ee:	1919      	adds	r1, r3, r4
   115f0:	682b      	ldr	r3, [r5, #0]
   115f2:	f04f 32ff 	mov.w	r2, #4294967295
   115f6:	685b      	ldr	r3, [r3, #4]
   115f8:	7a09      	ldrb	r1, [r1, #8]
   115fa:	4628      	mov	r0, r5
   115fc:	4798      	blx	r3
   115fe:	3401      	adds	r4, #1
   11600:	e7f0      	b.n	115e4 <wsTxHandler(str&, CharDev&, void*)+0xb0>
   11602:	490e      	ldr	r1, [pc, #56]	; (1163c <wsTxHandler(str&, CharDev&, void*)+0x108>)
   11604:	4628      	mov	r0, r5
   11606:	f007 fac3 	bl	18b90 <CharDev::printf(char const*, ...)>
   1160a:	e00b      	b.n	11624 <wsTxHandler(str&, CharDev&, void*)+0xf0>
   1160c:	f04f 32ff 	mov.w	r2, #4294967295
   11610:	490b      	ldr	r1, [pc, #44]	; (11640 <wsTxHandler(str&, CharDev&, void*)+0x10c>)
   11612:	4628      	mov	r0, r5
   11614:	f007 fa86 	bl	18b24 <CharDev::putline(char const*, unsigned int)>
   11618:	e004      	b.n	11624 <wsTxHandler(str&, CharDev&, void*)+0xf0>
   1161a:	9a02      	ldr	r2, [sp, #8]
   1161c:	4909      	ldr	r1, [pc, #36]	; (11644 <wsTxHandler(str&, CharDev&, void*)+0x110>)
   1161e:	4628      	mov	r0, r5
   11620:	f007 fab6 	bl	18b90 <CharDev::printf(char const*, ...)>
   11624:	4630      	mov	r0, r6
   11626:	b00c      	add	sp, #48	; 0x30
   11628:	e8bd 81f0 	ldmia.w	sp!, {r4, r5, r6, r7, r8, pc}
   1162c:	00024242 	.word	0x00024242
   11630:	000238c4 	.word	0x000238c4
   11634:	000238e6 	.word	0x000238e6
   11638:	0002390e 	.word	0x0002390e
   1163c:	00023f3b 	.word	0x00023f3b
   11640:	00023922 	.word	0x00023922
   11644:	0002393f 	.word	0x0002393f

00011648 <wsStatsHandler(str&, CharDev&, void*)>:
_ZL14wsStatsHandlerR3strR7CharDevPv():
   11648:	b51f      	push	{r0, r1, r2, r3, r4, lr}
   1164a:	a801      	add	r0, sp, #4
   1164c:	460c      	mov	r4, r1
   1164e:	f001 fee5 	bl	1341c <mesh_get_stats>
   11652:	f001 fbcd 	bl	12df0 <mesh_get_node_address>
   11656:	a901      	add	r1, sp, #4
   11658:	4602      	mov	r2, r0
   1165a:	4620      	mov	r0, r4
   1165c:	f7ff ff4c 	bl	114f8 <wirelessHandlerPrintStats(CharDev&, mesh_stats_t*, unsigned char) [clone .constprop.4]>
   11660:	2001      	movs	r0, #1
   11662:	b004      	add	sp, #16
   11664:	bd10      	pop	{r4, pc}
   11666:	Address 0x00011666 is out of bounds.


00011668 <wsRxHandler(str&, CharDev&, void*)>:
_ZL11wsRxHandlerR3strR7CharDevPv():
   11668:	b530      	push	{r4, r5, lr}
   1166a:	b08b      	sub	sp, #44	; 0x2c
   1166c:	aa0a      	add	r2, sp, #40	; 0x28
   1166e:	f44f 737a 	mov.w	r3, #1000	; 0x3e8
   11672:	460c      	mov	r4, r1
   11674:	f842 3d24 	str.w	r3, [r2, #-36]!
   11678:	4917      	ldr	r1, [pc, #92]	; (116d8 <wsRxHandler(str&, CharDev&, void*)+0x70>)
   1167a:	f006 facf 	bl	17c1c <str::scanf(char const*, ...)>
   1167e:	2500      	movs	r5, #0
   11680:	9901      	ldr	r1, [sp, #4]
   11682:	a802      	add	r0, sp, #8
   11684:	f002 fa48 	bl	13b18 <wireless_get_rx_pkt>
   11688:	b1d8      	cbz	r0, 116c2 <wsRxHandler(str&, CharDev&, void*)+0x5a>
   1168a:	f89d 2008 	ldrb.w	r2, [sp, #8]
   1168e:	4913      	ldr	r1, [pc, #76]	; (116dc <wsRxHandler(str&, CharDev&, void*)+0x74>)
   11690:	4620      	mov	r0, r4
   11692:	f007 fa7d 	bl	18b90 <CharDev::printf(char const*, ...)>
   11696:	2500      	movs	r5, #0
   11698:	f89d 300f 	ldrb.w	r3, [sp, #15]
   1169c:	429d      	cmp	r5, r3
   1169e:	da0a      	bge.n	116b6 <wsRxHandler(str&, CharDev&, void*)+0x4e>
   116a0:	ab02      	add	r3, sp, #8
   116a2:	1959      	adds	r1, r3, r5
   116a4:	6823      	ldr	r3, [r4, #0]
   116a6:	f04f 32ff 	mov.w	r2, #4294967295
   116aa:	685b      	ldr	r3, [r3, #4]
   116ac:	7a09      	ldrb	r1, [r1, #8]
   116ae:	4620      	mov	r0, r4
   116b0:	4798      	blx	r3
   116b2:	3501      	adds	r5, #1
   116b4:	e7f0      	b.n	11698 <wsRxHandler(str&, CharDev&, void*)+0x30>
   116b6:	490a      	ldr	r1, [pc, #40]	; (116e0 <wsRxHandler(str&, CharDev&, void*)+0x78>)
   116b8:	4620      	mov	r0, r4
   116ba:	f007 fa69 	bl	18b90 <CharDev::printf(char const*, ...)>
   116be:	2501      	movs	r5, #1
   116c0:	e7de      	b.n	11680 <wsRxHandler(str&, CharDev&, void*)+0x18>
   116c2:	b92d      	cbnz	r5, 116d0 <wsRxHandler(str&, CharDev&, void*)+0x68>
   116c4:	f04f 32ff 	mov.w	r2, #4294967295
   116c8:	4906      	ldr	r1, [pc, #24]	; (116e4 <wsRxHandler(str&, CharDev&, void*)+0x7c>)
   116ca:	4620      	mov	r0, r4
   116cc:	f007 fa2a 	bl	18b24 <CharDev::putline(char const*, unsigned int)>
   116d0:	2001      	movs	r0, #1
   116d2:	b00b      	add	sp, #44	; 0x2c
   116d4:	bd30      	pop	{r4, r5, pc}
   116d6:	bf00      	nop
   116d8:	0002380a 	.word	0x0002380a
   116dc:	00023965 	.word	0x00023965
   116e0:	000237b8 	.word	0x000237b8
   116e4:	0002397c 	.word	0x0002397c

000116e8 <wsRteHandler(str&, CharDev&, void*)>:
_Z12wsRteHandlerR3strR7CharDevPv():
   116e8:	b537      	push	{r0, r1, r2, r4, r5, lr}
   116ea:	460c      	mov	r4, r1
   116ec:	f001 fcfa 	bl	130e4 <mesh_get_num_routing_entries>
   116f0:	4605      	mov	r5, r0
   116f2:	4916      	ldr	r1, [pc, #88]	; (1174c <wsRteHandler(str&, CharDev&, void*)+0x64>)
   116f4:	4620      	mov	r0, r4
   116f6:	f007 fa4b 	bl	18b90 <CharDev::printf(char const*, ...)>
   116fa:	4915      	ldr	r1, [pc, #84]	; (11750 <wsRteHandler(str&, CharDev&, void*)+0x68>)
   116fc:	462a      	mov	r2, r5
   116fe:	4620      	mov	r0, r4
   11700:	f007 fa46 	bl	18b90 <CharDev::printf(char const*, ...)>
   11704:	4911      	ldr	r1, [pc, #68]	; (1174c <wsRteHandler(str&, CharDev&, void*)+0x64>)
   11706:	4620      	mov	r0, r4
   11708:	f007 fa42 	bl	18b90 <CharDev::printf(char const*, ...)>
   1170c:	b1d5      	cbz	r5, 11744 <wsRteHandler(str&, CharDev&, void*)+0x5c>
   1170e:	4911      	ldr	r1, [pc, #68]	; (11754 <wsRteHandler(str&, CharDev&, void*)+0x6c>)
   11710:	4620      	mov	r0, r4
   11712:	f007 fa3d 	bl	18b90 <CharDev::printf(char const*, ...)>
   11716:	490d      	ldr	r1, [pc, #52]	; (1174c <wsRteHandler(str&, CharDev&, void*)+0x64>)
   11718:	4620      	mov	r0, r4
   1171a:	f007 fa39 	bl	18b90 <CharDev::printf(char const*, ...)>
   1171e:	2500      	movs	r5, #0
   11720:	b2e8      	uxtb	r0, r5
   11722:	f001 fcc9 	bl	130b8 <mesh_get_routing_entry>
   11726:	3501      	adds	r5, #1
   11728:	b140      	cbz	r0, 1173c <wsRteHandler(str&, CharDev&, void*)+0x54>
   1172a:	7881      	ldrb	r1, [r0, #2]
   1172c:	7843      	ldrb	r3, [r0, #1]
   1172e:	7802      	ldrb	r2, [r0, #0]
   11730:	9100      	str	r1, [sp, #0]
   11732:	4620      	mov	r0, r4
   11734:	4908      	ldr	r1, [pc, #32]	; (11758 <wsRteHandler(str&, CharDev&, void*)+0x70>)
   11736:	f007 fa2b 	bl	18b90 <CharDev::printf(char const*, ...)>
   1173a:	e7f1      	b.n	11720 <wsRteHandler(str&, CharDev&, void*)+0x38>
   1173c:	4903      	ldr	r1, [pc, #12]	; (1174c <wsRteHandler(str&, CharDev&, void*)+0x64>)
   1173e:	4620      	mov	r0, r4
   11740:	f007 fa26 	bl	18b90 <CharDev::printf(char const*, ...)>
   11744:	2001      	movs	r0, #1
   11746:	b003      	add	sp, #12
   11748:	bd30      	pop	{r4, r5, pc}
   1174a:	bf00      	nop
   1174c:	0002398d 	.word	0x0002398d
   11750:	000239a8 	.word	0x000239a8
   11754:	000239c2 	.word	0x000239c2
   11758:	000239dd 	.word	0x000239dd

0001175c <wirelessHandler(str&, CharDev&, void*)>:
_Z15wirelessHandlerR3strR7CharDevPv():
   1175c:	e92d 47f3 	stmdb	sp!, {r0, r1, r4, r5, r6, r7, r8, r9, sl, lr}
   11760:	4c3c      	ldr	r4, [pc, #240]	; (11854 <wirelessHandler(str&, CharDev&, void*)+0xf8>)
   11762:	4607      	mov	r7, r0
   11764:	6826      	ldr	r6, [r4, #0]
   11766:	4689      	mov	r9, r1
   11768:	2e00      	cmp	r6, #0
   1176a:	d162      	bne.n	11832 <wirelessHandler(str&, CharDev&, void*)+0xd6>
   1176c:	2024      	movs	r0, #36	; 0x24
   1176e:	f7fe fd87 	bl	10280 <operator new(unsigned int)>
   11772:	2304      	movs	r3, #4
   11774:	4605      	mov	r5, r0
   11776:	e880 0048 	stmia.w	r0, {r3, r6}
   1177a:	6086      	str	r6, [r0, #8]
   1177c:	60c6      	str	r6, [r0, #12]
   1177e:	2120      	movs	r1, #32
   11780:	4630      	mov	r0, r6
   11782:	f00c fa83 	bl	1dc8c <realloc>
   11786:	68ae      	ldr	r6, [r5, #8]
   11788:	60e8      	str	r0, [r5, #12]
   1178a:	ea4f 0886 	mov.w	r8, r6, lsl #2
   1178e:	2e07      	cmp	r6, #7
   11790:	d80e      	bhi.n	117b0 <wirelessHandler(str&, CharDev&, void*)+0x54>
   11792:	2010      	movs	r0, #16
   11794:	f7fe fd74 	bl	10280 <operator new(unsigned int)>
   11798:	4682      	mov	sl, r0
   1179a:	2210      	movs	r2, #16
   1179c:	2100      	movs	r1, #0
   1179e:	f00b f80c 	bl	1c7ba <memset>
   117a2:	68eb      	ldr	r3, [r5, #12]
   117a4:	3601      	adds	r6, #1
   117a6:	f843 a008 	str.w	sl, [r3, r8]
   117aa:	f108 0804 	add.w	r8, r8, #4
   117ae:	e7ee      	b.n	1178e <wirelessHandler(str&, CharDev&, void*)+0x32>
   117b0:	2600      	movs	r6, #0
   117b2:	2308      	movs	r3, #8
   117b4:	606b      	str	r3, [r5, #4]
   117b6:	f04f 0801 	mov.w	r8, #1
   117ba:	4b27      	ldr	r3, [pc, #156]	; (11858 <wirelessHandler(str&, CharDev&, void*)+0xfc>)
   117bc:	4a27      	ldr	r2, [pc, #156]	; (1185c <wirelessHandler(str&, CharDev&, void*)+0x100>)
   117be:	4928      	ldr	r1, [pc, #160]	; (11860 <wirelessHandler(str&, CharDev&, void*)+0x104>)
   117c0:	4628      	mov	r0, r5
   117c2:	9600      	str	r6, [sp, #0]
   117c4:	f885 8020 	strb.w	r8, [r5, #32]
   117c8:	6025      	str	r5, [r4, #0]
   117ca:	f005 fb99 	bl	16f00 <CommandProcessor::addHandler(bool (*)(str&, CharDev&, void*), char const*, char const*, void*)>
   117ce:	4b25      	ldr	r3, [pc, #148]	; (11864 <wirelessHandler(str&, CharDev&, void*)+0x108>)
   117d0:	4a25      	ldr	r2, [pc, #148]	; (11868 <wirelessHandler(str&, CharDev&, void*)+0x10c>)
   117d2:	4926      	ldr	r1, [pc, #152]	; (1186c <wirelessHandler(str&, CharDev&, void*)+0x110>)
   117d4:	6820      	ldr	r0, [r4, #0]
   117d6:	9600      	str	r6, [sp, #0]
   117d8:	f005 fb92 	bl	16f00 <CommandProcessor::addHandler(bool (*)(str&, CharDev&, void*), char const*, char const*, void*)>
   117dc:	4b24      	ldr	r3, [pc, #144]	; (11870 <wirelessHandler(str&, CharDev&, void*)+0x114>)
   117de:	4a25      	ldr	r2, [pc, #148]	; (11874 <wirelessHandler(str&, CharDev&, void*)+0x118>)
   117e0:	4925      	ldr	r1, [pc, #148]	; (11878 <wirelessHandler(str&, CharDev&, void*)+0x11c>)
   117e2:	6820      	ldr	r0, [r4, #0]
   117e4:	9600      	str	r6, [sp, #0]
   117e6:	f005 fb8b 	bl	16f00 <CommandProcessor::addHandler(bool (*)(str&, CharDev&, void*), char const*, char const*, void*)>
   117ea:	4b24      	ldr	r3, [pc, #144]	; (1187c <wirelessHandler(str&, CharDev&, void*)+0x120>)
   117ec:	4a24      	ldr	r2, [pc, #144]	; (11880 <wirelessHandler(str&, CharDev&, void*)+0x124>)
   117ee:	4925      	ldr	r1, [pc, #148]	; (11884 <wirelessHandler(str&, CharDev&, void*)+0x128>)
   117f0:	6820      	ldr	r0, [r4, #0]
   117f2:	9600      	str	r6, [sp, #0]
   117f4:	f005 fb84 	bl	16f00 <CommandProcessor::addHandler(bool (*)(str&, CharDev&, void*), char const*, char const*, void*)>
   117f8:	4b23      	ldr	r3, [pc, #140]	; (11888 <wirelessHandler(str&, CharDev&, void*)+0x12c>)
   117fa:	4a24      	ldr	r2, [pc, #144]	; (1188c <wirelessHandler(str&, CharDev&, void*)+0x130>)
   117fc:	4924      	ldr	r1, [pc, #144]	; (11890 <wirelessHandler(str&, CharDev&, void*)+0x134>)
   117fe:	6820      	ldr	r0, [r4, #0]
   11800:	9600      	str	r6, [sp, #0]
   11802:	f005 fb7d 	bl	16f00 <CommandProcessor::addHandler(bool (*)(str&, CharDev&, void*), char const*, char const*, void*)>
   11806:	4b23      	ldr	r3, [pc, #140]	; (11894 <wirelessHandler(str&, CharDev&, void*)+0x138>)
   11808:	4a23      	ldr	r2, [pc, #140]	; (11898 <wirelessHandler(str&, CharDev&, void*)+0x13c>)
   1180a:	4924      	ldr	r1, [pc, #144]	; (1189c <wirelessHandler(str&, CharDev&, void*)+0x140>)
   1180c:	6820      	ldr	r0, [r4, #0]
   1180e:	f8cd 8000 	str.w	r8, [sp]
   11812:	f005 fb75 	bl	16f00 <CommandProcessor::addHandler(bool (*)(str&, CharDev&, void*), char const*, char const*, void*)>
   11816:	4b22      	ldr	r3, [pc, #136]	; (118a0 <wirelessHandler(str&, CharDev&, void*)+0x144>)
   11818:	4a22      	ldr	r2, [pc, #136]	; (118a4 <wirelessHandler(str&, CharDev&, void*)+0x148>)
   1181a:	4920      	ldr	r1, [pc, #128]	; (1189c <wirelessHandler(str&, CharDev&, void*)+0x140>)
   1181c:	6820      	ldr	r0, [r4, #0]
   1181e:	9600      	str	r6, [sp, #0]
   11820:	f005 fb6e 	bl	16f00 <CommandProcessor::addHandler(bool (*)(str&, CharDev&, void*), char const*, char const*, void*)>
   11824:	9600      	str	r6, [sp, #0]
   11826:	4b20      	ldr	r3, [pc, #128]	; (118a8 <wirelessHandler(str&, CharDev&, void*)+0x14c>)
   11828:	4a20      	ldr	r2, [pc, #128]	; (118ac <wirelessHandler(str&, CharDev&, void*)+0x150>)
   1182a:	4921      	ldr	r1, [pc, #132]	; (118b0 <wirelessHandler(str&, CharDev&, void*)+0x154>)
   1182c:	6820      	ldr	r0, [r4, #0]
   1182e:	f005 fb67 	bl	16f00 <CommandProcessor::addHandler(bool (*)(str&, CharDev&, void*), char const*, char const*, void*)>
   11832:	4920      	ldr	r1, [pc, #128]	; (118b4 <wirelessHandler(str&, CharDev&, void*)+0x158>)
   11834:	4638      	mov	r0, r7
   11836:	f006 fb79 	bl	17f2c <str::operator==(char const*) const>
   1183a:	b118      	cbz	r0, 11844 <wirelessHandler(str&, CharDev&, void*)+0xe8>
   1183c:	491e      	ldr	r1, [pc, #120]	; (118b8 <wirelessHandler(str&, CharDev&, void*)+0x15c>)
   1183e:	4638      	mov	r0, r7
   11840:	f006 fc2e 	bl	180a0 <str::operator=(char const*)>
   11844:	464a      	mov	r2, r9
   11846:	4639      	mov	r1, r7
   11848:	6820      	ldr	r0, [r4, #0]
   1184a:	b002      	add	sp, #8
   1184c:	e8bd 47f0 	ldmia.w	sp!, {r4, r5, r6, r7, r8, r9, sl, lr}
   11850:	f005 bc36 	b.w	170c0 <CommandProcessor::handleCommand(str&, CharDev&)>
   11854:	2007c344 	.word	0x2007c344
   11858:	000239f8 	.word	0x000239f8
   1185c:	00023a32 	.word	0x00023a32
   11860:	00011b09 	.word	0x00011b09
   11864:	00023a39 	.word	0x00023a39
   11868:	00023a8d 	.word	0x00023a8d
   1186c:	000118dd 	.word	0x000118dd
   11870:	00023a96 	.word	0x00023a96
   11874:	00023ab9 	.word	0x00023ab9
   11878:	00011669 	.word	0x00011669
   1187c:	00023abc 	.word	0x00023abc
   11880:	0002401b 	.word	0x0002401b
   11884:	000114c5 	.word	0x000114c5
   11888:	00023ae6 	.word	0x00023ae6
   1188c:	00023b02 	.word	0x00023b02
   11890:	000116e9 	.word	0x000116e9
   11894:	00023b09 	.word	0x00023b09
   11898:	00023b70 	.word	0x00023b70
   1189c:	00011535 	.word	0x00011535
   118a0:	00023b4a 	.word	0x00023b4a
   118a4:	00023b6f 	.word	0x00023b6f
   118a8:	00023b74 	.word	0x00023b74
   118ac:	00023b8f 	.word	0x00023b8f
   118b0:	00011649 	.word	0x00011649
   118b4:	000237b9 	.word	0x000237b9
   118b8:	00023b95 	.word	0x00023b95

000118bc <SingletonTemplate<NordicStream>::getInstance()>:
_ZN17SingletonTemplateI12NordicStreamE11getInstanceEv():
   118bc:	b538      	push	{r3, r4, r5, lr}
   118be:	4c06      	ldr	r4, [pc, #24]	; (118d8 <SingletonTemplate<NordicStream>::getInstance()+0x1c>)
   118c0:	6823      	ldr	r3, [r4, #0]
   118c2:	b933      	cbnz	r3, 118d2 <SingletonTemplate<NordicStream>::getInstance()+0x16>
   118c4:	2058      	movs	r0, #88	; 0x58
   118c6:	f7fe fcdb 	bl	10280 <operator new(unsigned int)>
   118ca:	4605      	mov	r5, r0
   118cc:	f006 fed0 	bl	18670 <NordicStream::NordicStream()>
   118d0:	6025      	str	r5, [r4, #0]
   118d2:	6820      	ldr	r0, [r4, #0]
   118d4:	bd38      	pop	{r3, r4, r5, pc}
   118d6:	bf00      	nop
   118d8:	2007c340 	.word	0x2007c340

000118dc <wsFileTxHandler(str&, CharDev&, void*)>:
_ZL15wsFileTxHandlerR3strR7CharDevPv():
   118dc:	e92d 4ff0 	stmdb	sp!, {r4, r5, r6, r7, r8, r9, sl, fp, lr}
   118e0:	4604      	mov	r4, r0
   118e2:	f2ad 5ddc 	subw	sp, sp, #1500	; 0x5dc
   118e6:	2280      	movs	r2, #128	; 0x80
   118e8:	4688      	mov	r8, r1
   118ea:	a80d      	add	r0, sp, #52	; 0x34
   118ec:	2100      	movs	r1, #0
   118ee:	f00a ff64 	bl	1c7ba <memset>
   118f2:	2280      	movs	r2, #128	; 0x80
   118f4:	2100      	movs	r1, #0
   118f6:	a82d      	add	r0, sp, #180	; 0xb4
   118f8:	f00a ff5f 	bl	1c7ba <memset>
   118fc:	ae06      	add	r6, sp, #24
   118fe:	2300      	movs	r3, #0
   11900:	6033      	str	r3, [r6, #0]
   11902:	aa0d      	add	r2, sp, #52	; 0x34
   11904:	9600      	str	r6, [sp, #0]
   11906:	ab2d      	add	r3, sp, #180	; 0xb4
   11908:	4975      	ldr	r1, [pc, #468]	; (11ae0 <wsFileTxHandler(str&, CharDev&, void*)+0x204>)
   1190a:	4620      	mov	r0, r4
   1190c:	f006 f986 	bl	17c1c <str::scanf(char const*, ...)>
   11910:	2803      	cmp	r0, #3
   11912:	d001      	beq.n	11918 <wsFileTxHandler(str&, CharDev&, void*)+0x3c>
   11914:	2000      	movs	r0, #0
   11916:	e0df      	b.n	11ad8 <wsFileTxHandler(str&, CharDev&, void*)+0x1fc>
   11918:	2201      	movs	r2, #1
   1191a:	a90d      	add	r1, sp, #52	; 0x34
   1191c:	a8ed      	add	r0, sp, #948	; 0x3b4
   1191e:	f004 fad3 	bl	15ec8 <f_open>
   11922:	4605      	mov	r5, r0
   11924:	2800      	cmp	r0, #0
   11926:	d1f5      	bne.n	11914 <wsFileTxHandler(str&, CharDev&, void*)+0x38>
   11928:	f7ff ffc8 	bl	118bc <SingletonTemplate<NordicStream>::getInstance()>
   1192c:	6833      	ldr	r3, [r6, #0]
   1192e:	2280      	movs	r2, #128	; 0x80
   11930:	f880 3053 	strb.w	r3, [r0, #83]	; 0x53
   11934:	a94d      	add	r1, sp, #308	; 0x134
   11936:	4604      	mov	r4, r0
   11938:	a808      	add	r0, sp, #32
   1193a:	f88d 5017 	strb.w	r5, [sp, #23]
   1193e:	9507      	str	r5, [sp, #28]
   11940:	f006 f93c 	bl	17bbc <str::str(char*, int)>
   11944:	ab2d      	add	r3, sp, #180	; 0xb4
   11946:	9300      	str	r3, [sp, #0]
   11948:	6833      	ldr	r3, [r6, #0]
   1194a:	aa0d      	add	r2, sp, #52	; 0x34
   1194c:	4965      	ldr	r1, [pc, #404]	; (11ae4 <wsFileTxHandler(str&, CharDev&, void*)+0x208>)
   1194e:	4640      	mov	r0, r8
   11950:	f007 f91e 	bl	18b90 <CharDev::printf(char const*, ...)>
   11954:	46a9      	mov	r9, r5
   11956:	ae07      	add	r6, sp, #28
   11958:	4633      	mov	r3, r6
   1195a:	f44f 7200 	mov.w	r2, #512	; 0x200
   1195e:	a96d      	add	r1, sp, #436	; 0x1b4
   11960:	a8ed      	add	r0, sp, #948	; 0x3b4
   11962:	f004 fb4b 	bl	15ffc <f_read>
   11966:	2800      	cmp	r0, #0
   11968:	f040 80af 	bne.w	11aca <wsFileTxHandler(str&, CharDev&, void*)+0x1ee>
   1196c:	6833      	ldr	r3, [r6, #0]
   1196e:	2b00      	cmp	r3, #0
   11970:	f000 80ab 	beq.w	11aca <wsFileTxHandler(str&, CharDev&, void*)+0x1ee>
   11974:	1c6f      	adds	r7, r5, #1
   11976:	6832      	ldr	r2, [r6, #0]
   11978:	495b      	ldr	r1, [pc, #364]	; (11ae8 <wsFileTxHandler(str&, CharDev&, void*)+0x20c>)
   1197a:	4620      	mov	r0, r4
   1197c:	f007 f908 	bl	18b90 <CharDev::printf(char const*, ...)>
   11980:	6823      	ldr	r3, [r4, #0]
   11982:	4620      	mov	r0, r4
   11984:	689b      	ldr	r3, [r3, #8]
   11986:	4798      	blx	r3
   11988:	1e7d      	subs	r5, r7, #1
   1198a:	f50d 7bda 	add.w	fp, sp, #436	; 0x1b4
   1198e:	f04f 0a00 	mov.w	sl, #0
   11992:	ab6d      	add	r3, sp, #436	; 0x1b4
   11994:	6832      	ldr	r2, [r6, #0]
   11996:	ebc3 030b 	rsb	r3, r3, fp
   1199a:	429a      	cmp	r2, r3
   1199c:	6823      	ldr	r3, [r4, #0]
   1199e:	d90c      	bls.n	119ba <wsFileTxHandler(str&, CharDev&, void*)+0xde>
   119a0:	f8cd b00c 	str.w	fp, [sp, #12]
   119a4:	685b      	ldr	r3, [r3, #4]
   119a6:	f04f 32ff 	mov.w	r2, #4294967295
   119aa:	f81b 1b01 	ldrb.w	r1, [fp], #1
   119ae:	4620      	mov	r0, r4
   119b0:	4798      	blx	r3
   119b2:	9b03      	ldr	r3, [sp, #12]
   119b4:	781b      	ldrb	r3, [r3, #0]
   119b6:	449a      	add	sl, r3
   119b8:	e7eb      	b.n	11992 <wsFileTxHandler(str&, CharDev&, void*)+0xb6>
   119ba:	689b      	ldr	r3, [r3, #8]
   119bc:	4620      	mov	r0, r4
   119be:	4798      	blx	r3
   119c0:	a808      	add	r0, sp, #32
   119c2:	f006 fab5 	bl	17f30 <str::operator()() const>
   119c6:	4683      	mov	fp, r0
   119c8:	a808      	add	r0, sp, #32
   119ca:	f006 f921 	bl	17c10 <str::getCapacity() const>
   119ce:	f44f 737a 	mov.w	r3, #1000	; 0x3e8
   119d2:	4602      	mov	r2, r0
   119d4:	4659      	mov	r1, fp
   119d6:	4620      	mov	r0, r4
   119d8:	f007 f8b2 	bl	18b40 <CharDev::gets(char*, int, unsigned int)>
   119dc:	2220      	movs	r2, #32
   119de:	2101      	movs	r1, #1
   119e0:	eb0d 0002 	add.w	r0, sp, r2
   119e4:	f006 fa50 	bl	17e88 <str::eraseFirstWords(int, char)>
   119e8:	a808      	add	r0, sp, #32
   119ea:	f006 faa3 	bl	17f34 <str::operator int() const>
   119ee:	4582      	cmp	sl, r0
   119f0:	d020      	beq.n	11a34 <wsFileTxHandler(str&, CharDev&, void*)+0x158>
   119f2:	a808      	add	r0, sp, #32
   119f4:	f006 fa9e 	bl	17f34 <str::operator int() const>
   119f8:	4652      	mov	r2, sl
   119fa:	4603      	mov	r3, r0
   119fc:	493b      	ldr	r1, [pc, #236]	; (11aec <wsFileTxHandler(str&, CharDev&, void*)+0x210>)
   119fe:	4640      	mov	r0, r8
   11a00:	f007 f8c6 	bl	18b90 <CharDev::printf(char const*, ...)>
   11a04:	493a      	ldr	r1, [pc, #232]	; (11af0 <wsFileTxHandler(str&, CharDev&, void*)+0x214>)
   11a06:	4620      	mov	r0, r4
   11a08:	f007 f8c2 	bl	18b90 <CharDev::printf(char const*, ...)>
   11a0c:	6823      	ldr	r3, [r4, #0]
   11a0e:	4620      	mov	r0, r4
   11a10:	689b      	ldr	r3, [r3, #8]
   11a12:	4798      	blx	r3
   11a14:	6823      	ldr	r3, [r4, #0]
   11a16:	f44f 727a 	mov.w	r2, #1000	; 0x3e8
   11a1a:	681b      	ldr	r3, [r3, #0]
   11a1c:	f10d 0117 	add.w	r1, sp, #23
   11a20:	4620      	mov	r0, r4
   11a22:	4798      	blx	r3
   11a24:	2800      	cmp	r0, #0
   11a26:	d1f5      	bne.n	11a14 <wsFileTxHandler(str&, CharDev&, void*)+0x138>
   11a28:	2f02      	cmp	r7, #2
   11a2a:	f107 0301 	add.w	r3, r7, #1
   11a2e:	d84c      	bhi.n	11aca <wsFileTxHandler(str&, CharDev&, void*)+0x1ee>
   11a30:	461f      	mov	r7, r3
   11a32:	e7a0      	b.n	11976 <wsFileTxHandler(str&, CharDev&, void*)+0x9a>
   11a34:	6833      	ldr	r3, [r6, #0]
   11a36:	aa2d      	add	r2, sp, #180	; 0xb4
   11a38:	492e      	ldr	r1, [pc, #184]	; (11af4 <wsFileTxHandler(str&, CharDev&, void*)+0x218>)
   11a3a:	9300      	str	r3, [sp, #0]
   11a3c:	4620      	mov	r0, r4
   11a3e:	464b      	mov	r3, r9
   11a40:	f007 f8a6 	bl	18b90 <CharDev::printf(char const*, ...)>
   11a44:	6823      	ldr	r3, [r4, #0]
   11a46:	4620      	mov	r0, r4
   11a48:	689b      	ldr	r3, [r3, #8]
   11a4a:	4798      	blx	r3
   11a4c:	a808      	add	r0, sp, #32
   11a4e:	f006 fa6f 	bl	17f30 <str::operator()() const>
   11a52:	4682      	mov	sl, r0
   11a54:	a808      	add	r0, sp, #32
   11a56:	f006 f8db 	bl	17c10 <str::getCapacity() const>
   11a5a:	4651      	mov	r1, sl
   11a5c:	4602      	mov	r2, r0
   11a5e:	f44f 737a 	mov.w	r3, #1000	; 0x3e8
   11a62:	4620      	mov	r0, r4
   11a64:	f007 f86c 	bl	18b40 <CharDev::gets(char*, int, unsigned int)>
   11a68:	4923      	ldr	r1, [pc, #140]	; (11af8 <wsFileTxHandler(str&, CharDev&, void*)+0x21c>)
   11a6a:	a808      	add	r0, sp, #32
   11a6c:	f006 f95c 	bl	17d28 <str::containsIgnoreCase(char const*) const>
   11a70:	b9d0      	cbnz	r0, 11aa8 <wsFileTxHandler(str&, CharDev&, void*)+0x1cc>
   11a72:	a808      	add	r0, sp, #32
   11a74:	f006 fa5c 	bl	17f30 <str::operator()() const>
   11a78:	4920      	ldr	r1, [pc, #128]	; (11afc <wsFileTxHandler(str&, CharDev&, void*)+0x220>)
   11a7a:	4602      	mov	r2, r0
   11a7c:	4640      	mov	r0, r8
   11a7e:	f007 f887 	bl	18b90 <CharDev::printf(char const*, ...)>
   11a82:	491b      	ldr	r1, [pc, #108]	; (11af0 <wsFileTxHandler(str&, CharDev&, void*)+0x214>)
   11a84:	4620      	mov	r0, r4
   11a86:	f007 f883 	bl	18b90 <CharDev::printf(char const*, ...)>
   11a8a:	6823      	ldr	r3, [r4, #0]
   11a8c:	4620      	mov	r0, r4
   11a8e:	689b      	ldr	r3, [r3, #8]
   11a90:	4798      	blx	r3
   11a92:	6823      	ldr	r3, [r4, #0]
   11a94:	f44f 727a 	mov.w	r2, #1000	; 0x3e8
   11a98:	681b      	ldr	r3, [r3, #0]
   11a9a:	f10d 0117 	add.w	r1, sp, #23
   11a9e:	4620      	mov	r0, r4
   11aa0:	4798      	blx	r3
   11aa2:	2800      	cmp	r0, #0
   11aa4:	d1f5      	bne.n	11a92 <wsFileTxHandler(str&, CharDev&, void*)+0x1b6>
   11aa6:	e7bf      	b.n	11a28 <wsFileTxHandler(str&, CharDev&, void*)+0x14c>
   11aa8:	4915      	ldr	r1, [pc, #84]	; (11b00 <wsFileTxHandler(str&, CharDev&, void*)+0x224>)
   11aaa:	a808      	add	r0, sp, #32
   11aac:	f006 faf8 	bl	180a0 <str::operator=(char const*)>
   11ab0:	6833      	ldr	r3, [r6, #0]
   11ab2:	4914      	ldr	r1, [pc, #80]	; (11b04 <wsFileTxHandler(str&, CharDev&, void*)+0x228>)
   11ab4:	4499      	add	r9, r3
   11ab6:	464a      	mov	r2, r9
   11ab8:	9bf0      	ldr	r3, [sp, #960]	; 0x3c0
   11aba:	4640      	mov	r0, r8
   11abc:	f007 f868 	bl	18b90 <CharDev::printf(char const*, ...)>
   11ac0:	2d00      	cmp	r5, #0
   11ac2:	f43f af48 	beq.w	11956 <wsFileTxHandler(str&, CharDev&, void*)+0x7a>
   11ac6:	1ebd      	subs	r5, r7, #2
   11ac8:	e745      	b.n	11956 <wsFileTxHandler(str&, CharDev&, void*)+0x7a>
   11aca:	a8ed      	add	r0, sp, #948	; 0x3b4
   11acc:	f004 fc65 	bl	1639a <f_close>
   11ad0:	a808      	add	r0, sp, #32
   11ad2:	f006 f888 	bl	17be6 <str::~str()>
   11ad6:	2001      	movs	r0, #1
   11ad8:	f20d 5ddc 	addw	sp, sp, #1500	; 0x5dc
   11adc:	e8bd 8ff0 	ldmia.w	sp!, {r4, r5, r6, r7, r8, r9, sl, fp, pc}
   11ae0:	00023b9a 	.word	0x00023b9a
   11ae4:	00023ba9 	.word	0x00023ba9
   11ae8:	00023bc0 	.word	0x00023bc0
   11aec:	00023bd2 	.word	0x00023bd2
   11af0:	000237b8 	.word	0x000237b8
   11af4:	00023bf9 	.word	0x00023bf9
   11af8:	00023c0f 	.word	0x00023c0f
   11afc:	00023c12 	.word	0x00023c12
   11b00:	000237b9 	.word	0x000237b9
   11b04:	00023c4a 	.word	0x00023c4a

00011b08 <wsStreamHandler(str&, CharDev&, void*)>:
_ZL15wsStreamHandlerR3strR7CharDevPv():
   11b08:	e92d 47f0 	stmdb	sp!, {r4, r5, r6, r7, r8, r9, sl, lr}
   11b0c:	4607      	mov	r7, r0
   11b0e:	b086      	sub	sp, #24
   11b10:	aa06      	add	r2, sp, #24
   11b12:	2400      	movs	r4, #0
   11b14:	f842 4d0c 	str.w	r4, [r2, #-12]!
   11b18:	460e      	mov	r6, r1
   11b1a:	493d      	ldr	r1, [pc, #244]	; (11c10 <wsStreamHandler(str&, CharDev&, void*)+0x108>)
   11b1c:	f006 f87e 	bl	17c1c <str::scanf(char const*, ...)>
   11b20:	2220      	movs	r2, #32
   11b22:	2101      	movs	r1, #1
   11b24:	4638      	mov	r0, r7
   11b26:	f006 f9af 	bl	17e88 <str::eraseFirstWords(int, char)>
   11b2a:	9b03      	ldr	r3, [sp, #12]
   11b2c:	2b00      	cmp	r3, #0
   11b2e:	d065      	beq.n	11bfc <wsStreamHandler(str&, CharDev&, void*)+0xf4>
   11b30:	4638      	mov	r0, r7
   11b32:	f006 f86a 	bl	17c0a <str::getLen() const>
   11b36:	2800      	cmp	r0, #0
   11b38:	d060      	beq.n	11bfc <wsStreamHandler(str&, CharDev&, void*)+0xf4>
   11b3a:	f7ff febf 	bl	118bc <SingletonTemplate<NordicStream>::getInstance()>
   11b3e:	4605      	mov	r5, r0
   11b40:	f10d 0818 	add.w	r8, sp, #24
   11b44:	f808 4d0d 	strb.w	r4, [r8, #-13]!
   11b48:	682b      	ldr	r3, [r5, #0]
   11b4a:	2205      	movs	r2, #5
   11b4c:	681b      	ldr	r3, [r3, #0]
   11b4e:	4641      	mov	r1, r8
   11b50:	4628      	mov	r0, r5
   11b52:	4798      	blx	r3
   11b54:	4604      	mov	r4, r0
   11b56:	2800      	cmp	r0, #0
   11b58:	d1f6      	bne.n	11b48 <wsStreamHandler(str&, CharDev&, void*)+0x40>
   11b5a:	9b03      	ldr	r3, [sp, #12]
   11b5c:	4638      	mov	r0, r7
   11b5e:	f885 3053 	strb.w	r3, [r5, #83]	; 0x53
   11b62:	f006 f9e5 	bl	17f30 <str::operator()() const>
   11b66:	4627      	mov	r7, r4
   11b68:	4601      	mov	r1, r0
   11b6a:	f04f 32ff 	mov.w	r2, #4294967295
   11b6e:	4628      	mov	r0, r5
   11b70:	f006 ffd8 	bl	18b24 <CharDev::putline(char const*, unsigned int)>
   11b74:	682b      	ldr	r3, [r5, #0]
   11b76:	4628      	mov	r0, r5
   11b78:	689b      	ldr	r3, [r3, #8]
   11b7a:	4798      	blx	r3
   11b7c:	4b25      	ldr	r3, [pc, #148]	; (11c14 <wsStreamHandler(str&, CharDev&, void*)+0x10c>)
   11b7e:	f10d 0918 	add.w	r9, sp, #24
   11b82:	6818      	ldr	r0, [r3, #0]
   11b84:	f849 4d04 	str.w	r4, [r9, #-4]!
   11b88:	9004      	str	r0, [sp, #16]
   11b8a:	682b      	ldr	r3, [r5, #0]
   11b8c:	f44f 727a 	mov.w	r2, #1000	; 0x3e8
   11b90:	681b      	ldr	r3, [r3, #0]
   11b92:	4641      	mov	r1, r8
   11b94:	4628      	mov	r0, r5
   11b96:	4798      	blx	r3
   11b98:	b1d0      	cbz	r0, 11bd0 <wsStreamHandler(str&, CharDev&, void*)+0xc8>
   11b9a:	2203      	movs	r2, #3
   11b9c:	f10d 0115 	add.w	r1, sp, #21
   11ba0:	4648      	mov	r0, r9
   11ba2:	f00a fdef 	bl	1c784 <memmove>
   11ba6:	f89d a00b 	ldrb.w	sl, [sp, #11]
   11baa:	2204      	movs	r2, #4
